{
	"fundgme/fund.sol": {
		"fund_get": {
			"abi": [
				{
					"inputs": [
						{
							"internalType": "uint256",
							"name": "_lockTime",
							"type": "uint256"
						}
					],
					"stateMutability": "nonpayable",
					"type": "constructor"
				},
				{
					"inputs": [
						{
							"internalType": "address",
							"name": "",
							"type": "address"
						}
					],
					"name": "fundsAmount",
					"outputs": [
						{
							"internalType": "uint256",
							"name": "",
							"type": "uint256"
						}
					],
					"stateMutability": "view",
					"type": "function"
				},
				{
					"inputs": [],
					"name": "getChainlinkDataFeedLatestAnswer",
					"outputs": [
						{
							"internalType": "int256",
							"name": "",
							"type": "int256"
						}
					],
					"stateMutability": "view",
					"type": "function"
				},
				{
					"inputs": [],
					"name": "getFund",
					"outputs": [],
					"stateMutability": "nonpayable",
					"type": "function"
				},
				{
					"inputs": [],
					"name": "owner",
					"outputs": [
						{
							"internalType": "address",
							"name": "",
							"type": "address"
						}
					],
					"stateMutability": "view",
					"type": "function"
				},
				{
					"inputs": [],
					"name": "pay",
					"outputs": [],
					"stateMutability": "payable",
					"type": "function"
				},
				{
					"inputs": [],
					"name": "refund",
					"outputs": [],
					"stateMutability": "nonpayable",
					"type": "function"
				},
				{
					"inputs": [
						{
							"internalType": "address",
							"name": "newowner",
							"type": "address"
						}
					],
					"name": "transformerOwnership",
					"outputs": [],
					"stateMutability": "nonpayable",
					"type": "function"
				}
			],
			"devdoc": {
				"kind": "dev",
				"methods": {},
				"version": 1
			},
			"evm": {
				"assembly": "    /* \"fundgme/fund.sol\":175:3022  contract fund_get{... */\n  mstore(0x40, 0x80)\n    /* \"fundgme/fund.sol\":223:231  1*10**18 */\n  0x0de0b6b3a7640000\n    /* \"fundgme/fund.sol\":199:231  uint256 MINIMUN_VALUE = 1*10**18 */\n  0x00\n  sstore\n    /* \"fundgme/fund.sol\":502:755  constructor(uint256 _lockTime){... */\n  callvalue\n  dup1\n  iszero\n  tag_1\n  jumpi\n  0x00\n  dup1\n  revert\ntag_1:\n  pop\n  mload(0x40)\n  sub(codesize, bytecodeSize)\n  dup1\n  bytecodeSize\n  dup4\n  codecopy\n  dup2\n  dup2\n  add\n  0x40\n  mstore\n  dup2\n  add\n  swap1\n  tag_2\n  swap2\n  swap1\n  tag_3\n  jump\t// in\ntag_2:\n    /* \"fundgme/fund.sol\":596:638  0x694AA1769357215DE4FAC081bf1f309aDC325306 */\n  0x694aa1769357215de4fac081bf1f309adc325306\n    /* \"fundgme/fund.sol\":562:571  priceFeed */\n  0x01\n  0x00\n    /* \"fundgme/fund.sol\":562:639  priceFeed = AggregatorV3Interface(0x694AA1769357215DE4FAC081bf1f309aDC325306) */\n  0x0100\n  exp\n  dup2\n  sload\n  dup2\n  0xffffffffffffffffffffffffffffffffffffffff\n  mul\n  not\n  and\n  swap1\n  dup4\n  0xffffffffffffffffffffffffffffffffffffffff\n  and\n  mul\n  or\n  swap1\n  sstore\n  pop\n    /* \"fundgme/fund.sol\":658:668  msg.sender */\n  caller\n    /* \"fundgme/fund.sol\":650:655  owner */\n  0x03\n  0x00\n    /* \"fundgme/fund.sol\":650:668  owner = msg.sender */\n  0x0100\n  exp\n  dup2\n  sload\n  dup2\n  0xffffffffffffffffffffffffffffffffffffffff\n  mul\n  not\n  and\n  swap1\n  dup4\n  0xffffffffffffffffffffffffffffffffffffffff\n  and\n  mul\n  or\n  swap1\n  sstore\n  pop\n    /* \"fundgme/fund.sol\":701:716  block.timestamp */\n  timestamp\n    /* \"fundgme/fund.sol\":679:698  deploymentTimestamp */\n  0x04\n    /* \"fundgme/fund.sol\":679:716  deploymentTimestamp = block.timestamp */\n  dup2\n  swap1\n  sstore\n  pop\n    /* \"fundgme/fund.sol\":738:747  _lockTime */\n  dup1\n    /* \"fundgme/fund.sol\":727:735  lockTime */\n  0x05\n    /* \"fundgme/fund.sol\":727:747  lockTime = _lockTime */\n  dup2\n  swap1\n  sstore\n  pop\n    /* \"fundgme/fund.sol\":502:755  constructor(uint256 _lockTime){... */\n  pop\n    /* \"fundgme/fund.sol\":175:3022  contract fund_get{... */\n  jump(tag_6)\n    /* \"#utility.yul\":88:205   */\ntag_8:\n    /* \"#utility.yul\":197:198   */\n  0x00\n    /* \"#utility.yul\":194:195   */\n  dup1\n    /* \"#utility.yul\":187:199   */\n  revert\n    /* \"#utility.yul\":334:411   */\ntag_10:\n    /* \"#utility.yul\":371:378   */\n  0x00\n    /* \"#utility.yul\":400:405   */\n  dup2\n    /* \"#utility.yul\":389:405   */\n  swap1\n  pop\n    /* \"#utility.yul\":334:411   */\n  swap2\n  swap1\n  pop\n  jump\t// out\n    /* \"#utility.yul\":417:539   */\ntag_11:\n    /* \"#utility.yul\":490:514   */\n  tag_19\n    /* \"#utility.yul\":508:513   */\n  dup2\n    /* \"#utility.yul\":490:514   */\n  tag_10\n  jump\t// in\ntag_19:\n    /* \"#utility.yul\":483:488   */\n  dup2\n    /* \"#utility.yul\":480:515   */\n  eq\n    /* \"#utility.yul\":470:533   */\n  tag_20\n  jumpi\n    /* \"#utility.yul\":529:530   */\n  0x00\n    /* \"#utility.yul\":526:527   */\n  dup1\n    /* \"#utility.yul\":519:531   */\n  revert\n    /* \"#utility.yul\":470:533   */\ntag_20:\n    /* \"#utility.yul\":417:539   */\n  pop\n  jump\t// out\n    /* \"#utility.yul\":545:688   */\ntag_12:\n    /* \"#utility.yul\":602:607   */\n  0x00\n    /* \"#utility.yul\":633:639   */\n  dup2\n    /* \"#utility.yul\":627:640   */\n  mload\n    /* \"#utility.yul\":618:640   */\n  swap1\n  pop\n    /* \"#utility.yul\":649:682   */\n  tag_22\n    /* \"#utility.yul\":676:681   */\n  dup2\n    /* \"#utility.yul\":649:682   */\n  tag_11\n  jump\t// in\ntag_22:\n    /* \"#utility.yul\":545:688   */\n  swap3\n  swap2\n  pop\n  pop\n  jump\t// out\n    /* \"#utility.yul\":694:1045   */\ntag_3:\n    /* \"#utility.yul\":764:770   */\n  0x00\n    /* \"#utility.yul\":813:815   */\n  0x20\n    /* \"#utility.yul\":801:810   */\n  dup3\n    /* \"#utility.yul\":792:799   */\n  dup5\n    /* \"#utility.yul\":788:811   */\n  sub\n    /* \"#utility.yul\":784:816   */\n  slt\n    /* \"#utility.yul\":781:900   */\n  iszero\n  tag_24\n  jumpi\n    /* \"#utility.yul\":819:898   */\n  tag_25\n  tag_8\n  jump\t// in\ntag_25:\n    /* \"#utility.yul\":781:900   */\ntag_24:\n    /* \"#utility.yul\":939:940   */\n  0x00\n    /* \"#utility.yul\":964:1028   */\n  tag_26\n    /* \"#utility.yul\":1020:1027   */\n  dup5\n    /* \"#utility.yul\":1011:1017   */\n  dup3\n    /* \"#utility.yul\":1000:1009   */\n  dup6\n    /* \"#utility.yul\":996:1018   */\n  add\n    /* \"#utility.yul\":964:1028   */\n  tag_12\n  jump\t// in\ntag_26:\n    /* \"#utility.yul\":954:1028   */\n  swap2\n  pop\n    /* \"#utility.yul\":910:1038   */\n  pop\n    /* \"#utility.yul\":694:1045   */\n  swap3\n  swap2\n  pop\n  pop\n  jump\t// out\n    /* \"fundgme/fund.sol\":175:3022  contract fund_get{... */\ntag_6:\n  dataSize(sub_0)\n  dup1\n  dataOffset(sub_0)\n  0x00\n  codecopy\n  0x00\n  return\nstop\n\nsub_0: assembly {\n        /* \"fundgme/fund.sol\":175:3022  contract fund_get{... */\n      mstore(0x40, 0x80)\n      jumpi(tag_1, lt(calldatasize, 0x04))\n      shr(0xe0, calldataload(0x00))\n      dup1\n      0x8da5cb5b\n      gt\n      tag_9\n      jumpi\n      dup1\n      0x8da5cb5b\n      eq\n      tag_5\n      jumpi\n      dup1\n      0x8edd6eb6\n      eq\n      tag_6\n      jumpi\n      dup1\n      0xa6f4e227\n      eq\n      tag_7\n      jumpi\n      dup1\n      0xbea4dfb5\n      eq\n      tag_8\n      jumpi\n      jump(tag_1)\n    tag_9:\n      dup1\n      0x1b9265b8\n      eq\n      tag_2\n      jumpi\n      dup1\n      0x1ea62b0e\n      eq\n      tag_3\n      jumpi\n      dup1\n      0x590e1ae3\n      eq\n      tag_4\n      jumpi\n    tag_1:\n      0x00\n      dup1\n      revert\n        /* \"fundgme/fund.sol\":763:1044  function pay() external  payable { ... */\n    tag_2:\n      tag_10\n      tag_11\n      jump\t// in\n    tag_10:\n      stop\n        /* \"fundgme/fund.sol\":1447:1546  function transformerOwnership(address newowner) public onlyOwner{... */\n    tag_3:\n      callvalue\n      dup1\n      iszero\n      tag_12\n      jumpi\n      0x00\n      dup1\n      revert\n    tag_12:\n      pop\n      tag_13\n      0x04\n      dup1\n      calldatasize\n      sub\n      dup2\n      add\n      swap1\n      tag_14\n      swap2\n      swap1\n      tag_15\n      jump\t// in\n    tag_14:\n      tag_16\n      jump\t// in\n    tag_13:\n      stop\n        /* \"fundgme/fund.sol\":2346:2747  function refund() external windowsClosed{... */\n    tag_4:\n      callvalue\n      dup1\n      iszero\n      tag_17\n      jumpi\n      0x00\n      dup1\n      revert\n    tag_17:\n      pop\n      tag_18\n      tag_19\n      jump\t// in\n    tag_18:\n      stop\n        /* \"fundgme/fund.sol\":402:424  address  public  owner */\n    tag_5:\n      callvalue\n      dup1\n      iszero\n      tag_20\n      jumpi\n      0x00\n      dup1\n      revert\n    tag_20:\n      pop\n      tag_21\n      tag_22\n      jump\t// in\n    tag_21:\n      mload(0x40)\n      tag_23\n      swap2\n      swap1\n      tag_24\n      jump\t// in\n    tag_23:\n      mload(0x40)\n      dup1\n      swap2\n      sub\n      swap1\n      return\n        /* \"fundgme/fund.sol\":1798:2338  function getFund() external windowsClosed onlyOwner{... */\n    tag_6:\n      callvalue\n      dup1\n      iszero\n      tag_25\n      jumpi\n      0x00\n      dup1\n      revert\n    tag_25:\n      pop\n      tag_26\n      tag_27\n      jump\t// in\n    tag_26:\n      stop\n        /* \"fundgme/fund.sol\":295:342  mapping (address => uint256) public fundsAmount */\n    tag_7:\n      callvalue\n      dup1\n      iszero\n      tag_28\n      jumpi\n      0x00\n      dup1\n      revert\n    tag_28:\n      pop\n      tag_29\n      0x04\n      dup1\n      calldatasize\n      sub\n      dup2\n      add\n      swap1\n      tag_30\n      swap2\n      swap1\n      tag_15\n      jump\t// in\n    tag_30:\n      tag_31\n      jump\t// in\n    tag_29:\n      mload(0x40)\n      tag_32\n      swap2\n      swap1\n      tag_33\n      jump\t// in\n    tag_32:\n      mload(0x40)\n      dup1\n      swap2\n      sub\n      swap1\n      return\n        /* \"fundgme/fund.sol\":1070:1419  function getChainlinkDataFeedLatestAnswer() public view returns (int) {... */\n    tag_8:\n      callvalue\n      dup1\n      iszero\n      tag_34\n      jumpi\n      0x00\n      dup1\n      revert\n    tag_34:\n      pop\n      tag_35\n      tag_36\n      jump\t// in\n    tag_35:\n      mload(0x40)\n      tag_37\n      swap2\n      swap1\n      tag_38\n      jump\t// in\n    tag_37:\n      mload(0x40)\n      dup1\n      swap2\n      sub\n      swap1\n      return\n        /* \"fundgme/fund.sol\":763:1044  function pay() external  payable { ... */\n    tag_11:\n        /* \"fundgme/fund.sol\":837:850  MINIMUN_VALUE */\n      sload(0x00)\n        /* \"fundgme/fund.sol\":816:835  EthToUsd(msg.value) */\n      tag_40\n        /* \"fundgme/fund.sol\":825:834  msg.value */\n      callvalue\n        /* \"fundgme/fund.sol\":816:824  EthToUsd */\n      tag_41\n        /* \"fundgme/fund.sol\":816:835  EthToUsd(msg.value) */\n      jump\t// in\n    tag_40:\n        /* \"fundgme/fund.sol\":816:850  EthToUsd(msg.value)>=MINIMUN_VALUE */\n      lt\n      iszero\n        /* \"fundgme/fund.sol\":808:888  require(EthToUsd(msg.value)>=MINIMUN_VALUE,\"You need to send minimum of 1 USD!\") */\n      tag_42\n      jumpi\n      mload(0x40)\n      0x08c379a000000000000000000000000000000000000000000000000000000000\n      dup2\n      mstore\n      0x04\n      add\n      tag_43\n      swap1\n      tag_44\n      jump\t// in\n    tag_43:\n      mload(0x40)\n      dup1\n      swap2\n      sub\n      swap1\n      revert\n    tag_42:\n        /* \"fundgme/fund.sol\":945:953  lockTime */\n      sload(0x05)\n        /* \"fundgme/fund.sol\":925:944  deploymentTimestamp */\n      sload(0x04)\n        /* \"fundgme/fund.sol\":925:953  deploymentTimestamp+lockTime */\n      tag_45\n      swap2\n      swap1\n      tag_46\n      jump\t// in\n    tag_45:\n        /* \"fundgme/fund.sol\":907:922  block.timestamp */\n      timestamp\n        /* \"fundgme/fund.sol\":907:953  block.timestamp < deploymentTimestamp+lockTime */\n      lt\n        /* \"fundgme/fund.sol\":899:990  require(block.timestamp < deploymentTimestamp+lockTime ,\"This operation is not allowed in\") */\n      tag_47\n      jumpi\n      mload(0x40)\n      0x08c379a000000000000000000000000000000000000000000000000000000000\n      dup2\n      mstore\n      0x04\n      add\n      tag_48\n      swap1\n      tag_49\n      jump\t// in\n    tag_48:\n      mload(0x40)\n      dup1\n      swap2\n      sub\n      swap1\n      revert\n    tag_47:\n        /* \"fundgme/fund.sol\":1027:1036  msg.value */\n      callvalue\n        /* \"fundgme/fund.sol\":1001:1012  fundsAmount */\n      0x02\n        /* \"fundgme/fund.sol\":1001:1024  fundsAmount[msg.sender] */\n      0x00\n        /* \"fundgme/fund.sol\":1013:1023  msg.sender */\n      caller\n        /* \"fundgme/fund.sol\":1001:1024  fundsAmount[msg.sender] */\n      0xffffffffffffffffffffffffffffffffffffffff\n      and\n      0xffffffffffffffffffffffffffffffffffffffff\n      and\n      dup2\n      mstore\n      0x20\n      add\n      swap1\n      dup2\n      mstore\n      0x20\n      add\n      0x00\n      keccak256\n        /* \"fundgme/fund.sol\":1001:1036  fundsAmount[msg.sender] = msg.value */\n      dup2\n      swap1\n      sstore\n      pop\n        /* \"fundgme/fund.sol\":763:1044  function pay() external  payable { ... */\n      jump\t// out\n        /* \"fundgme/fund.sol\":1447:1546  function transformerOwnership(address newowner) public onlyOwner{... */\n    tag_16:\n        /* \"fundgme/fund.sol\":2954:2959  owner */\n      0x03\n      0x00\n      swap1\n      sload\n      swap1\n      0x0100\n      exp\n      swap1\n      div\n      0xffffffffffffffffffffffffffffffffffffffff\n      and\n        /* \"fundgme/fund.sol\":2940:2959  msg.sender == owner */\n      0xffffffffffffffffffffffffffffffffffffffff\n      and\n        /* \"fundgme/fund.sol\":2940:2950  msg.sender */\n      caller\n        /* \"fundgme/fund.sol\":2940:2959  msg.sender == owner */\n      0xffffffffffffffffffffffffffffffffffffffff\n      and\n      eq\n        /* \"fundgme/fund.sol\":2932:2994  require(msg.sender == owner, \"You are not the current owner!\") */\n      tag_51\n      jumpi\n      mload(0x40)\n      0x08c379a000000000000000000000000000000000000000000000000000000000\n      dup2\n      mstore\n      0x04\n      add\n      tag_52\n      swap1\n      tag_53\n      jump\t// in\n    tag_52:\n      mload(0x40)\n      dup1\n      swap2\n      sub\n      swap1\n      revert\n    tag_51:\n        /* \"fundgme/fund.sol\":1530:1538  newowner */\n      dup1\n        /* \"fundgme/fund.sol\":1522:1527  owner */\n      0x03\n      0x00\n        /* \"fundgme/fund.sol\":1522:1538  owner = newowner */\n      0x0100\n      exp\n      dup2\n      sload\n      dup2\n      0xffffffffffffffffffffffffffffffffffffffff\n      mul\n      not\n      and\n      swap1\n      dup4\n      0xffffffffffffffffffffffffffffffffffffffff\n      and\n      mul\n      or\n      swap1\n      sstore\n      pop\n        /* \"fundgme/fund.sol\":1447:1546  function transformerOwnership(address newowner) public onlyOwner{... */\n      pop\n      jump\t// out\n        /* \"fundgme/fund.sol\":2346:2747  function refund() external windowsClosed{... */\n    tag_19:\n        /* \"fundgme/fund.sol\":2837:2845  lockTime */\n      sload(0x05)\n        /* \"fundgme/fund.sol\":2817:2836  deploymentTimestamp */\n      sload(0x04)\n        /* \"fundgme/fund.sol\":2817:2845  deploymentTimestamp+lockTime */\n      tag_56\n      swap2\n      swap1\n      tag_46\n      jump\t// in\n    tag_56:\n        /* \"fundgme/fund.sol\":2798:2813  block.timestamp */\n      timestamp\n        /* \"fundgme/fund.sol\":2798:2845  block.timestamp >= deploymentTimestamp+lockTime */\n      lt\n      iszero\n        /* \"fundgme/fund.sol\":2790:2873  require(block.timestamp >= deploymentTimestamp+lockTime ,\"This fund is not closed\") */\n      tag_57\n      jumpi\n      mload(0x40)\n      0x08c379a000000000000000000000000000000000000000000000000000000000\n      dup2\n      mstore\n      0x04\n      add\n      tag_58\n      swap1\n      tag_59\n      jump\t// in\n    tag_58:\n      mload(0x40)\n      dup1\n      swap2\n      sub\n      swap1\n      revert\n    tag_57:\n        /* \"fundgme/fund.sol\":377:387  100*10**18 */\n      0x056bc75e2d63100000\n        /* \"fundgme/fund.sol\":2405:2436  EthToUsd(address(this).balance) */\n      tag_61\n        /* \"fundgme/fund.sol\":2414:2435  address(this).balance */\n      selfbalance\n        /* \"fundgme/fund.sol\":2405:2413  EthToUsd */\n      tag_41\n        /* \"fundgme/fund.sol\":2405:2436  EthToUsd(address(this).balance) */\n      jump\t// in\n    tag_61:\n        /* \"fundgme/fund.sol\":2405:2443  EthToUsd(address(this).balance)<TARGET */\n      lt\n        /* \"fundgme/fund.sol\":2397:2463  require(EthToUsd(address(this).balance)<TARGET,\"Target is enough\") */\n      tag_62\n      jumpi\n      mload(0x40)\n      0x08c379a000000000000000000000000000000000000000000000000000000000\n      dup2\n      mstore\n      0x04\n      add\n      tag_63\n      swap1\n      tag_64\n      jump\t// in\n    tag_63:\n      mload(0x40)\n      dup1\n      swap2\n      sub\n      swap1\n      revert\n    tag_62:\n        /* \"fundgme/fund.sol\":2507:2508  0 */\n      0x00\n        /* \"fundgme/fund.sol\":2482:2493  fundsAmount */\n      0x02\n        /* \"fundgme/fund.sol\":2482:2505  fundsAmount[msg.sender] */\n      0x00\n        /* \"fundgme/fund.sol\":2494:2504  msg.sender */\n      caller\n        /* \"fundgme/fund.sol\":2482:2505  fundsAmount[msg.sender] */\n      0xffffffffffffffffffffffffffffffffffffffff\n      and\n      0xffffffffffffffffffffffffffffffffffffffff\n      and\n      dup2\n      mstore\n      0x20\n      add\n      swap1\n      dup2\n      mstore\n      0x20\n      add\n      0x00\n      keccak256\n      sload\n        /* \"fundgme/fund.sol\":2482:2508  fundsAmount[msg.sender]!=0 */\n      sub\n        /* \"fundgme/fund.sol\":2474:2540  require(fundsAmount[msg.sender]!=0, \"You did not send any funds!\") */\n      tag_65\n      jumpi\n      mload(0x40)\n      0x08c379a000000000000000000000000000000000000000000000000000000000\n      dup2\n      mstore\n      0x04\n      add\n      tag_66\n      swap1\n      tag_67\n      jump\t// in\n    tag_66:\n      mload(0x40)\n      dup1\n      swap2\n      sub\n      swap1\n      revert\n    tag_65:\n        /* \"fundgme/fund.sol\":2561:2573  bool success */\n      0x00\n        /* \"fundgme/fund.sol\":2606:2616  msg.sender */\n      caller\n        /* \"fundgme/fund.sol\":2598:2622  payable(msg.sender).call */\n      0xffffffffffffffffffffffffffffffffffffffff\n      and\n        /* \"fundgme/fund.sol\":2630:2641  fundsAmount */\n      0x02\n        /* \"fundgme/fund.sol\":2630:2653  fundsAmount[msg.sender] */\n      0x00\n        /* \"fundgme/fund.sol\":2642:2652  msg.sender */\n      caller\n        /* \"fundgme/fund.sol\":2630:2653  fundsAmount[msg.sender] */\n      0xffffffffffffffffffffffffffffffffffffffff\n      and\n      0xffffffffffffffffffffffffffffffffffffffff\n      and\n      dup2\n      mstore\n      0x20\n      add\n      swap1\n      dup2\n      mstore\n      0x20\n      add\n      0x00\n      keccak256\n      sload\n        /* \"fundgme/fund.sol\":2598:2658  payable(msg.sender).call{value: fundsAmount[msg.sender]}(\"\") */\n      mload(0x40)\n      tag_68\n      swap1\n      tag_69\n      jump\t// in\n    tag_68:\n      0x00\n      mload(0x40)\n      dup1\n      dup4\n      sub\n      dup2\n      dup6\n      dup8\n      gas\n      call\n      swap3\n      pop\n      pop\n      pop\n      returndatasize\n      dup1\n      0x00\n      dup2\n      eq\n      tag_72\n      jumpi\n      mload(0x40)\n      swap2\n      pop\n      and(add(returndatasize, 0x3f), not(0x1f))\n      dup3\n      add\n      0x40\n      mstore\n      returndatasize\n      dup3\n      mstore\n      returndatasize\n      0x00\n      0x20\n      dup5\n      add\n      returndatacopy\n      jump(tag_71)\n    tag_72:\n      0x60\n      swap2\n      pop\n    tag_71:\n      pop\n        /* \"fundgme/fund.sol\":2584:2658  (success, ) = payable(msg.sender).call{value: fundsAmount[msg.sender]}(\"\") */\n      pop\n      dup1\n      swap2\n      pop\n      pop\n        /* \"fundgme/fund.sol\":2677:2684  success */\n      dup1\n        /* \"fundgme/fund.sol\":2669:2701  require(success,\"Refund failed\") */\n      tag_73\n      jumpi\n      mload(0x40)\n      0x08c379a000000000000000000000000000000000000000000000000000000000\n      dup2\n      mstore\n      0x04\n      add\n      tag_74\n      swap1\n      tag_75\n      jump\t// in\n    tag_74:\n      mload(0x40)\n      dup1\n      swap2\n      sub\n      swap1\n      revert\n    tag_73:\n        /* \"fundgme/fund.sol\":2738:2739  0 */\n      0x00\n        /* \"fundgme/fund.sol\":2712:2723  fundsAmount */\n      0x02\n        /* \"fundgme/fund.sol\":2712:2735  fundsAmount[msg.sender] */\n      0x00\n        /* \"fundgme/fund.sol\":2724:2734  msg.sender */\n      caller\n        /* \"fundgme/fund.sol\":2712:2735  fundsAmount[msg.sender] */\n      0xffffffffffffffffffffffffffffffffffffffff\n      and\n      0xffffffffffffffffffffffffffffffffffffffff\n      and\n      dup2\n      mstore\n      0x20\n      add\n      swap1\n      dup2\n      mstore\n      0x20\n      add\n      0x00\n      keccak256\n        /* \"fundgme/fund.sol\":2712:2739  fundsAmount[msg.sender] = 0 */\n      dup2\n      swap1\n      sstore\n      pop\n        /* \"fundgme/fund.sol\":2386:2747  {... */\n      pop\n        /* \"fundgme/fund.sol\":2346:2747  function refund() external windowsClosed{... */\n      jump\t// out\n        /* \"fundgme/fund.sol\":402:424  address  public  owner */\n    tag_22:\n      0x03\n      0x00\n      swap1\n      sload\n      swap1\n      0x0100\n      exp\n      swap1\n      div\n      0xffffffffffffffffffffffffffffffffffffffff\n      and\n      dup2\n      jump\t// out\n        /* \"fundgme/fund.sol\":1798:2338  function getFund() external windowsClosed onlyOwner{... */\n    tag_27:\n        /* \"fundgme/fund.sol\":2837:2845  lockTime */\n      sload(0x05)\n        /* \"fundgme/fund.sol\":2817:2836  deploymentTimestamp */\n      sload(0x04)\n        /* \"fundgme/fund.sol\":2817:2845  deploymentTimestamp+lockTime */\n      tag_77\n      swap2\n      swap1\n      tag_46\n      jump\t// in\n    tag_77:\n        /* \"fundgme/fund.sol\":2798:2813  block.timestamp */\n      timestamp\n        /* \"fundgme/fund.sol\":2798:2845  block.timestamp >= deploymentTimestamp+lockTime */\n      lt\n      iszero\n        /* \"fundgme/fund.sol\":2790:2873  require(block.timestamp >= deploymentTimestamp+lockTime ,\"This fund is not closed\") */\n      tag_78\n      jumpi\n      mload(0x40)\n      0x08c379a000000000000000000000000000000000000000000000000000000000\n      dup2\n      mstore\n      0x04\n      add\n      tag_79\n      swap1\n      tag_59\n      jump\t// in\n    tag_79:\n      mload(0x40)\n      dup1\n      swap2\n      sub\n      swap1\n      revert\n    tag_78:\n        /* \"fundgme/fund.sol\":2954:2959  owner */\n      0x03\n      0x00\n      swap1\n      sload\n      swap1\n      0x0100\n      exp\n      swap1\n      div\n      0xffffffffffffffffffffffffffffffffffffffff\n      and\n        /* \"fundgme/fund.sol\":2940:2959  msg.sender == owner */\n      0xffffffffffffffffffffffffffffffffffffffff\n      and\n        /* \"fundgme/fund.sol\":2940:2950  msg.sender */\n      caller\n        /* \"fundgme/fund.sol\":2940:2959  msg.sender == owner */\n      0xffffffffffffffffffffffffffffffffffffffff\n      and\n      eq\n        /* \"fundgme/fund.sol\":2932:2994  require(msg.sender == owner, \"You are not the current owner!\") */\n      tag_81\n      jumpi\n      mload(0x40)\n      0x08c379a000000000000000000000000000000000000000000000000000000000\n      dup2\n      mstore\n      0x04\n      add\n      tag_82\n      swap1\n      tag_53\n      jump\t// in\n    tag_82:\n      mload(0x40)\n      dup1\n      swap2\n      sub\n      swap1\n      revert\n    tag_81:\n        /* \"fundgme/fund.sol\":377:387  100*10**18 */\n      0x056bc75e2d63100000\n        /* \"fundgme/fund.sol\":1868:1889  address(this).balance */\n      selfbalance\n        /* \"fundgme/fund.sol\":1868:1899  address(this).balance >= TARGET */\n      lt\n      iszero\n        /* \"fundgme/fund.sol\":1860:1922  require(address(this).balance >= TARGET,\"Not enough 1000 USD\") */\n      tag_84\n      jumpi\n      mload(0x40)\n      0x08c379a000000000000000000000000000000000000000000000000000000000\n      dup2\n      mstore\n      0x04\n      add\n      tag_85\n      swap1\n      tag_86\n      jump\t// in\n    tag_85:\n      mload(0x40)\n      dup1\n      swap2\n      sub\n      swap1\n      revert\n    tag_84:\n        /* \"fundgme/fund.sol\":2176:2188  bool success */\n      0x00\n        /* \"fundgme/fund.sol\":2221:2231  msg.sender */\n      caller\n        /* \"fundgme/fund.sol\":2213:2237  payable(msg.sender).call */\n      0xffffffffffffffffffffffffffffffffffffffff\n      and\n        /* \"fundgme/fund.sol\":2245:2266  address(this).balance */\n      selfbalance\n        /* \"fundgme/fund.sol\":2213:2271  payable(msg.sender).call{value: address(this).balance}(\"\") */\n      mload(0x40)\n      tag_87\n      swap1\n      tag_69\n      jump\t// in\n    tag_87:\n      0x00\n      mload(0x40)\n      dup1\n      dup4\n      sub\n      dup2\n      dup6\n      dup8\n      gas\n      call\n      swap3\n      pop\n      pop\n      pop\n      returndatasize\n      dup1\n      0x00\n      dup2\n      eq\n      tag_90\n      jumpi\n      mload(0x40)\n      swap2\n      pop\n      and(add(returndatasize, 0x3f), not(0x1f))\n      dup3\n      add\n      0x40\n      mstore\n      returndatasize\n      dup3\n      mstore\n      returndatasize\n      0x00\n      0x20\n      dup5\n      add\n      returndatacopy\n      jump(tag_89)\n    tag_90:\n      0x60\n      swap2\n      pop\n    tag_89:\n      pop\n        /* \"fundgme/fund.sol\":2199:2271  (success, ) = payable(msg.sender).call{value: address(this).balance}(\"\") */\n      pop\n      dup1\n      swap2\n      pop\n      pop\n        /* \"fundgme/fund.sol\":2290:2297  success */\n      dup1\n        /* \"fundgme/fund.sol\":2282:2330  require(success, \"Transferring 1000 USD failed\") */\n      tag_91\n      jumpi\n      mload(0x40)\n      0x08c379a000000000000000000000000000000000000000000000000000000000\n      dup2\n      mstore\n      0x04\n      add\n      tag_92\n      swap1\n      tag_93\n      jump\t// in\n    tag_92:\n      mload(0x40)\n      dup1\n      swap2\n      sub\n      swap1\n      revert\n    tag_91:\n        /* \"fundgme/fund.sol\":1849:2338  {... */\n      pop\n        /* \"fundgme/fund.sol\":1798:2338  function getFund() external windowsClosed onlyOwner{... */\n      jump\t// out\n        /* \"fundgme/fund.sol\":295:342  mapping (address => uint256) public fundsAmount */\n    tag_31:\n      mstore(0x20, 0x02)\n      dup1\n      0x00\n      mstore\n      keccak256(0x00, 0x40)\n      0x00\n      swap2\n      pop\n      swap1\n      pop\n      sload\n      dup2\n      jump\t// out\n        /* \"fundgme/fund.sol\":1070:1419  function getChainlinkDataFeedLatestAnswer() public view returns (int) {... */\n    tag_36:\n        /* \"fundgme/fund.sol\":1135:1138  int */\n      0x00\n        /* \"fundgme/fund.sol\":1229:1239  int answer */\n      dup1\n        /* \"fundgme/fund.sol\":1360:1369  priceFeed */\n      0x01\n      0x00\n      swap1\n      sload\n      swap1\n      0x0100\n      exp\n      swap1\n      div\n      0xffffffffffffffffffffffffffffffffffffffff\n      and\n        /* \"fundgme/fund.sol\":1360:1385  priceFeed.latestRoundData */\n      0xffffffffffffffffffffffffffffffffffffffff\n      and\n      0xfeaf968c\n        /* \"fundgme/fund.sol\":1360:1387  priceFeed.latestRoundData() */\n      mload(0x40)\n      dup2\n      0xffffffff\n      and\n      0xe0\n      shl\n      dup2\n      mstore\n      0x04\n      add\n      0xa0\n      mload(0x40)\n      dup1\n      dup4\n      sub\n      dup2\n      dup7\n      gas\n      staticcall\n      iszero\n      dup1\n      iszero\n      tag_96\n      jumpi\n      returndatasize\n      0x00\n      dup1\n      returndatacopy\n      revert(0x00, returndatasize)\n    tag_96:\n      pop\n      pop\n      pop\n      pop\n      mload(0x40)\n      returndatasize\n      not(0x1f)\n      0x1f\n      dup3\n      add\n      and\n      dup3\n      add\n      dup1\n      0x40\n      mstore\n      pop\n      dup2\n      add\n      swap1\n      tag_97\n      swap2\n      swap1\n      tag_98\n      jump\t// in\n    tag_97:\n        /* \"fundgme/fund.sol\":1179:1387  (... */\n      pop\n      pop\n      pop\n      swap2\n      pop\n      pop\n        /* \"fundgme/fund.sol\":1405:1411  answer */\n      dup1\n        /* \"fundgme/fund.sol\":1398:1411  return answer */\n      swap2\n      pop\n      pop\n        /* \"fundgme/fund.sol\":1070:1419  function getChainlinkDataFeedLatestAnswer() public view returns (int) {... */\n      swap1\n      jump\t// out\n        /* \"fundgme/fund.sol\":1564:1760  function EthToUsd(uint256 ethAmount) internal view returns(uint256){... */\n    tag_41:\n        /* \"fundgme/fund.sol\":1623:1630  uint256 */\n      0x00\n        /* \"fundgme/fund.sol\":1642:1658  uint256 ethPrice */\n      dup1\n        /* \"fundgme/fund.sol\":1669:1703  getChainlinkDataFeedLatestAnswer() */\n      tag_100\n        /* \"fundgme/fund.sol\":1669:1701  getChainlinkDataFeedLatestAnswer */\n      tag_36\n        /* \"fundgme/fund.sol\":1669:1703  getChainlinkDataFeedLatestAnswer() */\n      jump\t// in\n    tag_100:\n        /* \"fundgme/fund.sol\":1642:1704  uint256 ethPrice = uint256(getChainlinkDataFeedLatestAnswer()) */\n      swap1\n      pop\n        /* \"fundgme/fund.sol\":1746:1751  10**8 */\n      0x05f5e100\n        /* \"fundgme/fund.sol\":1734:1742  ethPrice */\n      dup2\n        /* \"fundgme/fund.sol\":1722:1731  ethAmount */\n      dup5\n        /* \"fundgme/fund.sol\":1722:1742  ethAmount * ethPrice */\n      tag_101\n      swap2\n      swap1\n      tag_102\n      jump\t// in\n    tag_101:\n        /* \"fundgme/fund.sol\":1722:1752  ethAmount * ethPrice / (10**8) */\n      tag_103\n      swap2\n      swap1\n      tag_104\n      jump\t// in\n    tag_103:\n        /* \"fundgme/fund.sol\":1715:1752  return ethAmount * ethPrice / (10**8) */\n      swap2\n      pop\n      pop\n        /* \"fundgme/fund.sol\":1564:1760  function EthToUsd(uint256 ethAmount) internal view returns(uint256){... */\n      swap2\n      swap1\n      pop\n      jump\t// out\n        /* \"#utility.yul\":88:205   */\n    tag_106:\n        /* \"#utility.yul\":197:198   */\n      0x00\n        /* \"#utility.yul\":194:195   */\n      dup1\n        /* \"#utility.yul\":187:199   */\n      revert\n        /* \"#utility.yul\":334:460   */\n    tag_108:\n        /* \"#utility.yul\":371:378   */\n      0x00\n        /* \"#utility.yul\":411:453   */\n      0xffffffffffffffffffffffffffffffffffffffff\n        /* \"#utility.yul\":404:409   */\n      dup3\n        /* \"#utility.yul\":400:454   */\n      and\n        /* \"#utility.yul\":389:454   */\n      swap1\n      pop\n        /* \"#utility.yul\":334:460   */\n      swap2\n      swap1\n      pop\n      jump\t// out\n        /* \"#utility.yul\":466:562   */\n    tag_109:\n        /* \"#utility.yul\":503:510   */\n      0x00\n        /* \"#utility.yul\":532:556   */\n      tag_154\n        /* \"#utility.yul\":550:555   */\n      dup3\n        /* \"#utility.yul\":532:556   */\n      tag_108\n      jump\t// in\n    tag_154:\n        /* \"#utility.yul\":521:556   */\n      swap1\n      pop\n        /* \"#utility.yul\":466:562   */\n      swap2\n      swap1\n      pop\n      jump\t// out\n        /* \"#utility.yul\":568:690   */\n    tag_110:\n        /* \"#utility.yul\":641:665   */\n      tag_156\n        /* \"#utility.yul\":659:664   */\n      dup2\n        /* \"#utility.yul\":641:665   */\n      tag_109\n      jump\t// in\n    tag_156:\n        /* \"#utility.yul\":634:639   */\n      dup2\n        /* \"#utility.yul\":631:666   */\n      eq\n        /* \"#utility.yul\":621:684   */\n      tag_157\n      jumpi\n        /* \"#utility.yul\":680:681   */\n      0x00\n        /* \"#utility.yul\":677:678   */\n      dup1\n        /* \"#utility.yul\":670:682   */\n      revert\n        /* \"#utility.yul\":621:684   */\n    tag_157:\n        /* \"#utility.yul\":568:690   */\n      pop\n      jump\t// out\n        /* \"#utility.yul\":696:835   */\n    tag_111:\n        /* \"#utility.yul\":742:747   */\n      0x00\n        /* \"#utility.yul\":780:786   */\n      dup2\n        /* \"#utility.yul\":767:787   */\n      calldataload\n        /* \"#utility.yul\":758:787   */\n      swap1\n      pop\n        /* \"#utility.yul\":796:829   */\n      tag_159\n        /* \"#utility.yul\":823:828   */\n      dup2\n        /* \"#utility.yul\":796:829   */\n      tag_110\n      jump\t// in\n    tag_159:\n        /* \"#utility.yul\":696:835   */\n      swap3\n      swap2\n      pop\n      pop\n      jump\t// out\n        /* \"#utility.yul\":841:1170   */\n    tag_15:\n        /* \"#utility.yul\":900:906   */\n      0x00\n        /* \"#utility.yul\":949:951   */\n      0x20\n        /* \"#utility.yul\":937:946   */\n      dup3\n        /* \"#utility.yul\":928:935   */\n      dup5\n        /* \"#utility.yul\":924:947   */\n      sub\n        /* \"#utility.yul\":920:952   */\n      slt\n        /* \"#utility.yul\":917:1036   */\n      iszero\n      tag_161\n      jumpi\n        /* \"#utility.yul\":955:1034   */\n      tag_162\n      tag_106\n      jump\t// in\n    tag_162:\n        /* \"#utility.yul\":917:1036   */\n    tag_161:\n        /* \"#utility.yul\":1075:1076   */\n      0x00\n        /* \"#utility.yul\":1100:1153   */\n      tag_163\n        /* \"#utility.yul\":1145:1152   */\n      dup5\n        /* \"#utility.yul\":1136:1142   */\n      dup3\n        /* \"#utility.yul\":1125:1134   */\n      dup6\n        /* \"#utility.yul\":1121:1143   */\n      add\n        /* \"#utility.yul\":1100:1153   */\n      tag_111\n      jump\t// in\n    tag_163:\n        /* \"#utility.yul\":1090:1153   */\n      swap2\n      pop\n        /* \"#utility.yul\":1046:1163   */\n      pop\n        /* \"#utility.yul\":841:1170   */\n      swap3\n      swap2\n      pop\n      pop\n      jump\t// out\n        /* \"#utility.yul\":1176:1294   */\n    tag_112:\n        /* \"#utility.yul\":1263:1287   */\n      tag_165\n        /* \"#utility.yul\":1281:1286   */\n      dup2\n        /* \"#utility.yul\":1263:1287   */\n      tag_109\n      jump\t// in\n    tag_165:\n        /* \"#utility.yul\":1258:1261   */\n      dup3\n        /* \"#utility.yul\":1251:1288   */\n      mstore\n        /* \"#utility.yul\":1176:1294   */\n      pop\n      pop\n      jump\t// out\n        /* \"#utility.yul\":1300:1522   */\n    tag_24:\n        /* \"#utility.yul\":1393:1397   */\n      0x00\n        /* \"#utility.yul\":1431:1433   */\n      0x20\n        /* \"#utility.yul\":1420:1429   */\n      dup3\n        /* \"#utility.yul\":1416:1434   */\n      add\n        /* \"#utility.yul\":1408:1434   */\n      swap1\n      pop\n        /* \"#utility.yul\":1444:1515   */\n      tag_167\n        /* \"#utility.yul\":1512:1513   */\n      0x00\n        /* \"#utility.yul\":1501:1510   */\n      dup4\n        /* \"#utility.yul\":1497:1514   */\n      add\n        /* \"#utility.yul\":1488:1494   */\n      dup5\n        /* \"#utility.yul\":1444:1515   */\n      tag_112\n      jump\t// in\n    tag_167:\n        /* \"#utility.yul\":1300:1522   */\n      swap3\n      swap2\n      pop\n      pop\n      jump\t// out\n        /* \"#utility.yul\":1528:1605   */\n    tag_113:\n        /* \"#utility.yul\":1565:1572   */\n      0x00\n        /* \"#utility.yul\":1594:1599   */\n      dup2\n        /* \"#utility.yul\":1583:1599   */\n      swap1\n      pop\n        /* \"#utility.yul\":1528:1605   */\n      swap2\n      swap1\n      pop\n      jump\t// out\n        /* \"#utility.yul\":1611:1729   */\n    tag_114:\n        /* \"#utility.yul\":1698:1722   */\n      tag_170\n        /* \"#utility.yul\":1716:1721   */\n      dup2\n        /* \"#utility.yul\":1698:1722   */\n      tag_113\n      jump\t// in\n    tag_170:\n        /* \"#utility.yul\":1693:1696   */\n      dup3\n        /* \"#utility.yul\":1686:1723   */\n      mstore\n        /* \"#utility.yul\":1611:1729   */\n      pop\n      pop\n      jump\t// out\n        /* \"#utility.yul\":1735:1957   */\n    tag_33:\n        /* \"#utility.yul\":1828:1832   */\n      0x00\n        /* \"#utility.yul\":1866:1868   */\n      0x20\n        /* \"#utility.yul\":1855:1864   */\n      dup3\n        /* \"#utility.yul\":1851:1869   */\n      add\n        /* \"#utility.yul\":1843:1869   */\n      swap1\n      pop\n        /* \"#utility.yul\":1879:1950   */\n      tag_172\n        /* \"#utility.yul\":1947:1948   */\n      0x00\n        /* \"#utility.yul\":1936:1945   */\n      dup4\n        /* \"#utility.yul\":1932:1949   */\n      add\n        /* \"#utility.yul\":1923:1929   */\n      dup5\n        /* \"#utility.yul\":1879:1950   */\n      tag_114\n      jump\t// in\n    tag_172:\n        /* \"#utility.yul\":1735:1957   */\n      swap3\n      swap2\n      pop\n      pop\n      jump\t// out\n        /* \"#utility.yul\":1963:2039   */\n    tag_115:\n        /* \"#utility.yul\":1999:2006   */\n      0x00\n        /* \"#utility.yul\":2028:2033   */\n      dup2\n        /* \"#utility.yul\":2017:2033   */\n      swap1\n      pop\n        /* \"#utility.yul\":1963:2039   */\n      swap2\n      swap1\n      pop\n      jump\t// out\n        /* \"#utility.yul\":2045:2160   */\n    tag_116:\n        /* \"#utility.yul\":2130:2153   */\n      tag_175\n        /* \"#utility.yul\":2147:2152   */\n      dup2\n        /* \"#utility.yul\":2130:2153   */\n      tag_115\n      jump\t// in\n    tag_175:\n        /* \"#utility.yul\":2125:2128   */\n      dup3\n        /* \"#utility.yul\":2118:2154   */\n      mstore\n        /* \"#utility.yul\":2045:2160   */\n      pop\n      pop\n      jump\t// out\n        /* \"#utility.yul\":2166:2384   */\n    tag_38:\n        /* \"#utility.yul\":2257:2261   */\n      0x00\n        /* \"#utility.yul\":2295:2297   */\n      0x20\n        /* \"#utility.yul\":2284:2293   */\n      dup3\n        /* \"#utility.yul\":2280:2298   */\n      add\n        /* \"#utility.yul\":2272:2298   */\n      swap1\n      pop\n        /* \"#utility.yul\":2308:2377   */\n      tag_177\n        /* \"#utility.yul\":2374:2375   */\n      0x00\n        /* \"#utility.yul\":2363:2372   */\n      dup4\n        /* \"#utility.yul\":2359:2376   */\n      add\n        /* \"#utility.yul\":2350:2356   */\n      dup5\n        /* \"#utility.yul\":2308:2377   */\n      tag_116\n      jump\t// in\n    tag_177:\n        /* \"#utility.yul\":2166:2384   */\n      swap3\n      swap2\n      pop\n      pop\n      jump\t// out\n        /* \"#utility.yul\":2390:2559   */\n    tag_117:\n        /* \"#utility.yul\":2474:2485   */\n      0x00\n        /* \"#utility.yul\":2508:2514   */\n      dup3\n        /* \"#utility.yul\":2503:2506   */\n      dup3\n        /* \"#utility.yul\":2496:2515   */\n      mstore\n        /* \"#utility.yul\":2548:2552   */\n      0x20\n        /* \"#utility.yul\":2543:2546   */\n      dup3\n        /* \"#utility.yul\":2539:2553   */\n      add\n        /* \"#utility.yul\":2524:2553   */\n      swap1\n      pop\n        /* \"#utility.yul\":2390:2559   */\n      swap3\n      swap2\n      pop\n      pop\n      jump\t// out\n        /* \"#utility.yul\":2565:2786   */\n    tag_118:\n        /* \"#utility.yul\":2705:2739   */\n      0x596f75206e65656420746f2073656e64206d696e696d756d206f662031205553\n        /* \"#utility.yul\":2701:2702   */\n      0x00\n        /* \"#utility.yul\":2693:2699   */\n      dup3\n        /* \"#utility.yul\":2689:2703   */\n      add\n        /* \"#utility.yul\":2682:2740   */\n      mstore\n        /* \"#utility.yul\":2774:2778   */\n      0x4421000000000000000000000000000000000000000000000000000000000000\n        /* \"#utility.yul\":2769:2771   */\n      0x20\n        /* \"#utility.yul\":2761:2767   */\n      dup3\n        /* \"#utility.yul\":2757:2772   */\n      add\n        /* \"#utility.yul\":2750:2779   */\n      mstore\n        /* \"#utility.yul\":2565:2786   */\n      pop\n      jump\t// out\n        /* \"#utility.yul\":2792:3158   */\n    tag_119:\n        /* \"#utility.yul\":2934:2937   */\n      0x00\n        /* \"#utility.yul\":2955:3022   */\n      tag_181\n        /* \"#utility.yul\":3019:3021   */\n      0x22\n        /* \"#utility.yul\":3014:3017   */\n      dup4\n        /* \"#utility.yul\":2955:3022   */\n      tag_117\n      jump\t// in\n    tag_181:\n        /* \"#utility.yul\":2948:3022   */\n      swap2\n      pop\n        /* \"#utility.yul\":3031:3124   */\n      tag_182\n        /* \"#utility.yul\":3120:3123   */\n      dup3\n        /* \"#utility.yul\":3031:3124   */\n      tag_118\n      jump\t// in\n    tag_182:\n        /* \"#utility.yul\":3149:3151   */\n      0x40\n        /* \"#utility.yul\":3144:3147   */\n      dup3\n        /* \"#utility.yul\":3140:3152   */\n      add\n        /* \"#utility.yul\":3133:3152   */\n      swap1\n      pop\n        /* \"#utility.yul\":2792:3158   */\n      swap2\n      swap1\n      pop\n      jump\t// out\n        /* \"#utility.yul\":3164:3583   */\n    tag_44:\n        /* \"#utility.yul\":3330:3334   */\n      0x00\n        /* \"#utility.yul\":3368:3370   */\n      0x20\n        /* \"#utility.yul\":3357:3366   */\n      dup3\n        /* \"#utility.yul\":3353:3371   */\n      add\n        /* \"#utility.yul\":3345:3371   */\n      swap1\n      pop\n        /* \"#utility.yul\":3417:3426   */\n      dup2\n        /* \"#utility.yul\":3411:3415   */\n      dup2\n        /* \"#utility.yul\":3407:3427   */\n      sub\n        /* \"#utility.yul\":3403:3404   */\n      0x00\n        /* \"#utility.yul\":3392:3401   */\n      dup4\n        /* \"#utility.yul\":3388:3405   */\n      add\n        /* \"#utility.yul\":3381:3428   */\n      mstore\n        /* \"#utility.yul\":3445:3576   */\n      tag_184\n        /* \"#utility.yul\":3571:3575   */\n      dup2\n        /* \"#utility.yul\":3445:3576   */\n      tag_119\n      jump\t// in\n    tag_184:\n        /* \"#utility.yul\":3437:3576   */\n      swap1\n      pop\n        /* \"#utility.yul\":3164:3583   */\n      swap2\n      swap1\n      pop\n      jump\t// out\n        /* \"#utility.yul\":3589:3769   */\n    tag_120:\n        /* \"#utility.yul\":3637:3714   */\n      0x4e487b7100000000000000000000000000000000000000000000000000000000\n        /* \"#utility.yul\":3634:3635   */\n      0x00\n        /* \"#utility.yul\":3627:3715   */\n      mstore\n        /* \"#utility.yul\":3734:3738   */\n      0x11\n        /* \"#utility.yul\":3731:3732   */\n      0x04\n        /* \"#utility.yul\":3724:3739   */\n      mstore\n        /* \"#utility.yul\":3758:3762   */\n      0x24\n        /* \"#utility.yul\":3755:3756   */\n      0x00\n        /* \"#utility.yul\":3748:3763   */\n      revert\n        /* \"#utility.yul\":3775:3966   */\n    tag_46:\n        /* \"#utility.yul\":3815:3818   */\n      0x00\n        /* \"#utility.yul\":3834:3854   */\n      tag_187\n        /* \"#utility.yul\":3852:3853   */\n      dup3\n        /* \"#utility.yul\":3834:3854   */\n      tag_113\n      jump\t// in\n    tag_187:\n        /* \"#utility.yul\":3829:3854   */\n      swap2\n      pop\n        /* \"#utility.yul\":3868:3888   */\n      tag_188\n        /* \"#utility.yul\":3886:3887   */\n      dup4\n        /* \"#utility.yul\":3868:3888   */\n      tag_113\n      jump\t// in\n    tag_188:\n        /* \"#utility.yul\":3863:3888   */\n      swap3\n      pop\n        /* \"#utility.yul\":3911:3912   */\n      dup3\n        /* \"#utility.yul\":3908:3909   */\n      dup3\n        /* \"#utility.yul\":3904:3913   */\n      add\n        /* \"#utility.yul\":3897:3913   */\n      swap1\n      pop\n        /* \"#utility.yul\":3932:3935   */\n      dup1\n        /* \"#utility.yul\":3929:3930   */\n      dup3\n        /* \"#utility.yul\":3926:3936   */\n      gt\n        /* \"#utility.yul\":3923:3959   */\n      iszero\n      tag_189\n      jumpi\n        /* \"#utility.yul\":3939:3957   */\n      tag_190\n      tag_120\n      jump\t// in\n    tag_190:\n        /* \"#utility.yul\":3923:3959   */\n    tag_189:\n        /* \"#utility.yul\":3775:3966   */\n      swap3\n      swap2\n      pop\n      pop\n      jump\t// out\n        /* \"#utility.yul\":3972:4154   */\n    tag_121:\n        /* \"#utility.yul\":4112:4146   */\n      0x54686973206f7065726174696f6e206973206e6f7420616c6c6f77656420696e\n        /* \"#utility.yul\":4108:4109   */\n      0x00\n        /* \"#utility.yul\":4100:4106   */\n      dup3\n        /* \"#utility.yul\":4096:4110   */\n      add\n        /* \"#utility.yul\":4089:4147   */\n      mstore\n        /* \"#utility.yul\":3972:4154   */\n      pop\n      jump\t// out\n        /* \"#utility.yul\":4160:4526   */\n    tag_122:\n        /* \"#utility.yul\":4302:4305   */\n      0x00\n        /* \"#utility.yul\":4323:4390   */\n      tag_193\n        /* \"#utility.yul\":4387:4389   */\n      0x20\n        /* \"#utility.yul\":4382:4385   */\n      dup4\n        /* \"#utility.yul\":4323:4390   */\n      tag_117\n      jump\t// in\n    tag_193:\n        /* \"#utility.yul\":4316:4390   */\n      swap2\n      pop\n        /* \"#utility.yul\":4399:4492   */\n      tag_194\n        /* \"#utility.yul\":4488:4491   */\n      dup3\n        /* \"#utility.yul\":4399:4492   */\n      tag_121\n      jump\t// in\n    tag_194:\n        /* \"#utility.yul\":4517:4519   */\n      0x20\n        /* \"#utility.yul\":4512:4515   */\n      dup3\n        /* \"#utility.yul\":4508:4520   */\n      add\n        /* \"#utility.yul\":4501:4520   */\n      swap1\n      pop\n        /* \"#utility.yul\":4160:4526   */\n      swap2\n      swap1\n      pop\n      jump\t// out\n        /* \"#utility.yul\":4532:4951   */\n    tag_49:\n        /* \"#utility.yul\":4698:4702   */\n      0x00\n        /* \"#utility.yul\":4736:4738   */\n      0x20\n        /* \"#utility.yul\":4725:4734   */\n      dup3\n        /* \"#utility.yul\":4721:4739   */\n      add\n        /* \"#utility.yul\":4713:4739   */\n      swap1\n      pop\n        /* \"#utility.yul\":4785:4794   */\n      dup2\n        /* \"#utility.yul\":4779:4783   */\n      dup2\n        /* \"#utility.yul\":4775:4795   */\n      sub\n        /* \"#utility.yul\":4771:4772   */\n      0x00\n        /* \"#utility.yul\":4760:4769   */\n      dup4\n        /* \"#utility.yul\":4756:4773   */\n      add\n        /* \"#utility.yul\":4749:4796   */\n      mstore\n        /* \"#utility.yul\":4813:4944   */\n      tag_196\n        /* \"#utility.yul\":4939:4943   */\n      dup2\n        /* \"#utility.yul\":4813:4944   */\n      tag_122\n      jump\t// in\n    tag_196:\n        /* \"#utility.yul\":4805:4944   */\n      swap1\n      pop\n        /* \"#utility.yul\":4532:4951   */\n      swap2\n      swap1\n      pop\n      jump\t// out\n        /* \"#utility.yul\":4957:5137   */\n    tag_123:\n        /* \"#utility.yul\":5097:5129   */\n      0x596f7520617265206e6f74207468652063757272656e74206f776e6572210000\n        /* \"#utility.yul\":5093:5094   */\n      0x00\n        /* \"#utility.yul\":5085:5091   */\n      dup3\n        /* \"#utility.yul\":5081:5095   */\n      add\n        /* \"#utility.yul\":5074:5130   */\n      mstore\n        /* \"#utility.yul\":4957:5137   */\n      pop\n      jump\t// out\n        /* \"#utility.yul\":5143:5509   */\n    tag_124:\n        /* \"#utility.yul\":5285:5288   */\n      0x00\n        /* \"#utility.yul\":5306:5373   */\n      tag_199\n        /* \"#utility.yul\":5370:5372   */\n      0x1e\n        /* \"#utility.yul\":5365:5368   */\n      dup4\n        /* \"#utility.yul\":5306:5373   */\n      tag_117\n      jump\t// in\n    tag_199:\n        /* \"#utility.yul\":5299:5373   */\n      swap2\n      pop\n        /* \"#utility.yul\":5382:5475   */\n      tag_200\n        /* \"#utility.yul\":5471:5474   */\n      dup3\n        /* \"#utility.yul\":5382:5475   */\n      tag_123\n      jump\t// in\n    tag_200:\n        /* \"#utility.yul\":5500:5502   */\n      0x20\n        /* \"#utility.yul\":5495:5498   */\n      dup3\n        /* \"#utility.yul\":5491:5503   */\n      add\n        /* \"#utility.yul\":5484:5503   */\n      swap1\n      pop\n        /* \"#utility.yul\":5143:5509   */\n      swap2\n      swap1\n      pop\n      jump\t// out\n        /* \"#utility.yul\":5515:5934   */\n    tag_53:\n        /* \"#utility.yul\":5681:5685   */\n      0x00\n        /* \"#utility.yul\":5719:5721   */\n      0x20\n        /* \"#utility.yul\":5708:5717   */\n      dup3\n        /* \"#utility.yul\":5704:5722   */\n      add\n        /* \"#utility.yul\":5696:5722   */\n      swap1\n      pop\n        /* \"#utility.yul\":5768:5777   */\n      dup2\n        /* \"#utility.yul\":5762:5766   */\n      dup2\n        /* \"#utility.yul\":5758:5778   */\n      sub\n        /* \"#utility.yul\":5754:5755   */\n      0x00\n        /* \"#utility.yul\":5743:5752   */\n      dup4\n        /* \"#utility.yul\":5739:5756   */\n      add\n        /* \"#utility.yul\":5732:5779   */\n      mstore\n        /* \"#utility.yul\":5796:5927   */\n      tag_202\n        /* \"#utility.yul\":5922:5926   */\n      dup2\n        /* \"#utility.yul\":5796:5927   */\n      tag_124\n      jump\t// in\n    tag_202:\n        /* \"#utility.yul\":5788:5927   */\n      swap1\n      pop\n        /* \"#utility.yul\":5515:5934   */\n      swap2\n      swap1\n      pop\n      jump\t// out\n        /* \"#utility.yul\":5940:6113   */\n    tag_125:\n        /* \"#utility.yul\":6080:6105   */\n      0x546869732066756e64206973206e6f7420636c6f736564000000000000000000\n        /* \"#utility.yul\":6076:6077   */\n      0x00\n        /* \"#utility.yul\":6068:6074   */\n      dup3\n        /* \"#utility.yul\":6064:6078   */\n      add\n        /* \"#utility.yul\":6057:6106   */\n      mstore\n        /* \"#utility.yul\":5940:6113   */\n      pop\n      jump\t// out\n        /* \"#utility.yul\":6119:6485   */\n    tag_126:\n        /* \"#utility.yul\":6261:6264   */\n      0x00\n        /* \"#utility.yul\":6282:6349   */\n      tag_205\n        /* \"#utility.yul\":6346:6348   */\n      0x17\n        /* \"#utility.yul\":6341:6344   */\n      dup4\n        /* \"#utility.yul\":6282:6349   */\n      tag_117\n      jump\t// in\n    tag_205:\n        /* \"#utility.yul\":6275:6349   */\n      swap2\n      pop\n        /* \"#utility.yul\":6358:6451   */\n      tag_206\n        /* \"#utility.yul\":6447:6450   */\n      dup3\n        /* \"#utility.yul\":6358:6451   */\n      tag_125\n      jump\t// in\n    tag_206:\n        /* \"#utility.yul\":6476:6478   */\n      0x20\n        /* \"#utility.yul\":6471:6474   */\n      dup3\n        /* \"#utility.yul\":6467:6479   */\n      add\n        /* \"#utility.yul\":6460:6479   */\n      swap1\n      pop\n        /* \"#utility.yul\":6119:6485   */\n      swap2\n      swap1\n      pop\n      jump\t// out\n        /* \"#utility.yul\":6491:6910   */\n    tag_59:\n        /* \"#utility.yul\":6657:6661   */\n      0x00\n        /* \"#utility.yul\":6695:6697   */\n      0x20\n        /* \"#utility.yul\":6684:6693   */\n      dup3\n        /* \"#utility.yul\":6680:6698   */\n      add\n        /* \"#utility.yul\":6672:6698   */\n      swap1\n      pop\n        /* \"#utility.yul\":6744:6753   */\n      dup2\n        /* \"#utility.yul\":6738:6742   */\n      dup2\n        /* \"#utility.yul\":6734:6754   */\n      sub\n        /* \"#utility.yul\":6730:6731   */\n      0x00\n        /* \"#utility.yul\":6719:6728   */\n      dup4\n        /* \"#utility.yul\":6715:6732   */\n      add\n        /* \"#utility.yul\":6708:6755   */\n      mstore\n        /* \"#utility.yul\":6772:6903   */\n      tag_208\n        /* \"#utility.yul\":6898:6902   */\n      dup2\n        /* \"#utility.yul\":6772:6903   */\n      tag_126\n      jump\t// in\n    tag_208:\n        /* \"#utility.yul\":6764:6903   */\n      swap1\n      pop\n        /* \"#utility.yul\":6491:6910   */\n      swap2\n      swap1\n      pop\n      jump\t// out\n        /* \"#utility.yul\":6916:7082   */\n    tag_127:\n        /* \"#utility.yul\":7056:7074   */\n      0x54617267657420697320656e6f75676800000000000000000000000000000000\n        /* \"#utility.yul\":7052:7053   */\n      0x00\n        /* \"#utility.yul\":7044:7050   */\n      dup3\n        /* \"#utility.yul\":7040:7054   */\n      add\n        /* \"#utility.yul\":7033:7075   */\n      mstore\n        /* \"#utility.yul\":6916:7082   */\n      pop\n      jump\t// out\n        /* \"#utility.yul\":7088:7454   */\n    tag_128:\n        /* \"#utility.yul\":7230:7233   */\n      0x00\n        /* \"#utility.yul\":7251:7318   */\n      tag_211\n        /* \"#utility.yul\":7315:7317   */\n      0x10\n        /* \"#utility.yul\":7310:7313   */\n      dup4\n        /* \"#utility.yul\":7251:7318   */\n      tag_117\n      jump\t// in\n    tag_211:\n        /* \"#utility.yul\":7244:7318   */\n      swap2\n      pop\n        /* \"#utility.yul\":7327:7420   */\n      tag_212\n        /* \"#utility.yul\":7416:7419   */\n      dup3\n        /* \"#utility.yul\":7327:7420   */\n      tag_127\n      jump\t// in\n    tag_212:\n        /* \"#utility.yul\":7445:7447   */\n      0x20\n        /* \"#utility.yul\":7440:7443   */\n      dup3\n        /* \"#utility.yul\":7436:7448   */\n      add\n        /* \"#utility.yul\":7429:7448   */\n      swap1\n      pop\n        /* \"#utility.yul\":7088:7454   */\n      swap2\n      swap1\n      pop\n      jump\t// out\n        /* \"#utility.yul\":7460:7879   */\n    tag_64:\n        /* \"#utility.yul\":7626:7630   */\n      0x00\n        /* \"#utility.yul\":7664:7666   */\n      0x20\n        /* \"#utility.yul\":7653:7662   */\n      dup3\n        /* \"#utility.yul\":7649:7667   */\n      add\n        /* \"#utility.yul\":7641:7667   */\n      swap1\n      pop\n        /* \"#utility.yul\":7713:7722   */\n      dup2\n        /* \"#utility.yul\":7707:7711   */\n      dup2\n        /* \"#utility.yul\":7703:7723   */\n      sub\n        /* \"#utility.yul\":7699:7700   */\n      0x00\n        /* \"#utility.yul\":7688:7697   */\n      dup4\n        /* \"#utility.yul\":7684:7701   */\n      add\n        /* \"#utility.yul\":7677:7724   */\n      mstore\n        /* \"#utility.yul\":7741:7872   */\n      tag_214\n        /* \"#utility.yul\":7867:7871   */\n      dup2\n        /* \"#utility.yul\":7741:7872   */\n      tag_128\n      jump\t// in\n    tag_214:\n        /* \"#utility.yul\":7733:7872   */\n      swap1\n      pop\n        /* \"#utility.yul\":7460:7879   */\n      swap2\n      swap1\n      pop\n      jump\t// out\n        /* \"#utility.yul\":7885:8062   */\n    tag_129:\n        /* \"#utility.yul\":8025:8054   */\n      0x596f7520646964206e6f742073656e6420616e792066756e6473210000000000\n        /* \"#utility.yul\":8021:8022   */\n      0x00\n        /* \"#utility.yul\":8013:8019   */\n      dup3\n        /* \"#utility.yul\":8009:8023   */\n      add\n        /* \"#utility.yul\":8002:8055   */\n      mstore\n        /* \"#utility.yul\":7885:8062   */\n      pop\n      jump\t// out\n        /* \"#utility.yul\":8068:8434   */\n    tag_130:\n        /* \"#utility.yul\":8210:8213   */\n      0x00\n        /* \"#utility.yul\":8231:8298   */\n      tag_217\n        /* \"#utility.yul\":8295:8297   */\n      0x1b\n        /* \"#utility.yul\":8290:8293   */\n      dup4\n        /* \"#utility.yul\":8231:8298   */\n      tag_117\n      jump\t// in\n    tag_217:\n        /* \"#utility.yul\":8224:8298   */\n      swap2\n      pop\n        /* \"#utility.yul\":8307:8400   */\n      tag_218\n        /* \"#utility.yul\":8396:8399   */\n      dup3\n        /* \"#utility.yul\":8307:8400   */\n      tag_129\n      jump\t// in\n    tag_218:\n        /* \"#utility.yul\":8425:8427   */\n      0x20\n        /* \"#utility.yul\":8420:8423   */\n      dup3\n        /* \"#utility.yul\":8416:8428   */\n      add\n        /* \"#utility.yul\":8409:8428   */\n      swap1\n      pop\n        /* \"#utility.yul\":8068:8434   */\n      swap2\n      swap1\n      pop\n      jump\t// out\n        /* \"#utility.yul\":8440:8859   */\n    tag_67:\n        /* \"#utility.yul\":8606:8610   */\n      0x00\n        /* \"#utility.yul\":8644:8646   */\n      0x20\n        /* \"#utility.yul\":8633:8642   */\n      dup3\n        /* \"#utility.yul\":8629:8647   */\n      add\n        /* \"#utility.yul\":8621:8647   */\n      swap1\n      pop\n        /* \"#utility.yul\":8693:8702   */\n      dup2\n        /* \"#utility.yul\":8687:8691   */\n      dup2\n        /* \"#utility.yul\":8683:8703   */\n      sub\n        /* \"#utility.yul\":8679:8680   */\n      0x00\n        /* \"#utility.yul\":8668:8677   */\n      dup4\n        /* \"#utility.yul\":8664:8681   */\n      add\n        /* \"#utility.yul\":8657:8704   */\n      mstore\n        /* \"#utility.yul\":8721:8852   */\n      tag_220\n        /* \"#utility.yul\":8847:8851   */\n      dup2\n        /* \"#utility.yul\":8721:8852   */\n      tag_130\n      jump\t// in\n    tag_220:\n        /* \"#utility.yul\":8713:8852   */\n      swap1\n      pop\n        /* \"#utility.yul\":8440:8859   */\n      swap2\n      swap1\n      pop\n      jump\t// out\n        /* \"#utility.yul\":8865:9012   */\n    tag_131:\n        /* \"#utility.yul\":8966:8977   */\n      0x00\n        /* \"#utility.yul\":9003:9006   */\n      dup2\n        /* \"#utility.yul\":8988:9006   */\n      swap1\n      pop\n        /* \"#utility.yul\":8865:9012   */\n      swap3\n      swap2\n      pop\n      pop\n      jump\t// out\n        /* \"#utility.yul\":9018:9132   */\n    tag_132:\n      pop\n      jump\t// out\n        /* \"#utility.yul\":9138:9536   */\n    tag_133:\n        /* \"#utility.yul\":9297:9300   */\n      0x00\n        /* \"#utility.yul\":9318:9401   */\n      tag_224\n        /* \"#utility.yul\":9399:9400   */\n      0x00\n        /* \"#utility.yul\":9394:9397   */\n      dup4\n        /* \"#utility.yul\":9318:9401   */\n      tag_131\n      jump\t// in\n    tag_224:\n        /* \"#utility.yul\":9311:9401   */\n      swap2\n      pop\n        /* \"#utility.yul\":9410:9503   */\n      tag_225\n        /* \"#utility.yul\":9499:9502   */\n      dup3\n        /* \"#utility.yul\":9410:9503   */\n      tag_132\n      jump\t// in\n    tag_225:\n        /* \"#utility.yul\":9528:9529   */\n      0x00\n        /* \"#utility.yul\":9523:9526   */\n      dup3\n        /* \"#utility.yul\":9519:9530   */\n      add\n        /* \"#utility.yul\":9512:9530   */\n      swap1\n      pop\n        /* \"#utility.yul\":9138:9536   */\n      swap2\n      swap1\n      pop\n      jump\t// out\n        /* \"#utility.yul\":9542:9921   */\n    tag_69:\n        /* \"#utility.yul\":9726:9729   */\n      0x00\n        /* \"#utility.yul\":9748:9895   */\n      tag_227\n        /* \"#utility.yul\":9891:9894   */\n      dup3\n        /* \"#utility.yul\":9748:9895   */\n      tag_133\n      jump\t// in\n    tag_227:\n        /* \"#utility.yul\":9741:9895   */\n      swap2\n      pop\n        /* \"#utility.yul\":9912:9915   */\n      dup2\n        /* \"#utility.yul\":9905:9915   */\n      swap1\n      pop\n        /* \"#utility.yul\":9542:9921   */\n      swap2\n      swap1\n      pop\n      jump\t// out\n        /* \"#utility.yul\":9927:10090   */\n    tag_134:\n        /* \"#utility.yul\":10067:10082   */\n      0x526566756e64206661696c656400000000000000000000000000000000000000\n        /* \"#utility.yul\":10063:10064   */\n      0x00\n        /* \"#utility.yul\":10055:10061   */\n      dup3\n        /* \"#utility.yul\":10051:10065   */\n      add\n        /* \"#utility.yul\":10044:10083   */\n      mstore\n        /* \"#utility.yul\":9927:10090   */\n      pop\n      jump\t// out\n        /* \"#utility.yul\":10096:10462   */\n    tag_135:\n        /* \"#utility.yul\":10238:10241   */\n      0x00\n        /* \"#utility.yul\":10259:10326   */\n      tag_230\n        /* \"#utility.yul\":10323:10325   */\n      0x0d\n        /* \"#utility.yul\":10318:10321   */\n      dup4\n        /* \"#utility.yul\":10259:10326   */\n      tag_117\n      jump\t// in\n    tag_230:\n        /* \"#utility.yul\":10252:10326   */\n      swap2\n      pop\n        /* \"#utility.yul\":10335:10428   */\n      tag_231\n        /* \"#utility.yul\":10424:10427   */\n      dup3\n        /* \"#utility.yul\":10335:10428   */\n      tag_134\n      jump\t// in\n    tag_231:\n        /* \"#utility.yul\":10453:10455   */\n      0x20\n        /* \"#utility.yul\":10448:10451   */\n      dup3\n        /* \"#utility.yul\":10444:10456   */\n      add\n        /* \"#utility.yul\":10437:10456   */\n      swap1\n      pop\n        /* \"#utility.yul\":10096:10462   */\n      swap2\n      swap1\n      pop\n      jump\t// out\n        /* \"#utility.yul\":10468:10887   */\n    tag_75:\n        /* \"#utility.yul\":10634:10638   */\n      0x00\n        /* \"#utility.yul\":10672:10674   */\n      0x20\n        /* \"#utility.yul\":10661:10670   */\n      dup3\n        /* \"#utility.yul\":10657:10675   */\n      add\n        /* \"#utility.yul\":10649:10675   */\n      swap1\n      pop\n        /* \"#utility.yul\":10721:10730   */\n      dup2\n        /* \"#utility.yul\":10715:10719   */\n      dup2\n        /* \"#utility.yul\":10711:10731   */\n      sub\n        /* \"#utility.yul\":10707:10708   */\n      0x00\n        /* \"#utility.yul\":10696:10705   */\n      dup4\n        /* \"#utility.yul\":10692:10709   */\n      add\n        /* \"#utility.yul\":10685:10732   */\n      mstore\n        /* \"#utility.yul\":10749:10880   */\n      tag_233\n        /* \"#utility.yul\":10875:10879   */\n      dup2\n        /* \"#utility.yul\":10749:10880   */\n      tag_135\n      jump\t// in\n    tag_233:\n        /* \"#utility.yul\":10741:10880   */\n      swap1\n      pop\n        /* \"#utility.yul\":10468:10887   */\n      swap2\n      swap1\n      pop\n      jump\t// out\n        /* \"#utility.yul\":10893:11062   */\n    tag_136:\n        /* \"#utility.yul\":11033:11054   */\n      0x4e6f7420656e6f75676820313030302055534400000000000000000000000000\n        /* \"#utility.yul\":11029:11030   */\n      0x00\n        /* \"#utility.yul\":11021:11027   */\n      dup3\n        /* \"#utility.yul\":11017:11031   */\n      add\n        /* \"#utility.yul\":11010:11055   */\n      mstore\n        /* \"#utility.yul\":10893:11062   */\n      pop\n      jump\t// out\n        /* \"#utility.yul\":11068:11434   */\n    tag_137:\n        /* \"#utility.yul\":11210:11213   */\n      0x00\n        /* \"#utility.yul\":11231:11298   */\n      tag_236\n        /* \"#utility.yul\":11295:11297   */\n      0x13\n        /* \"#utility.yul\":11290:11293   */\n      dup4\n        /* \"#utility.yul\":11231:11298   */\n      tag_117\n      jump\t// in\n    tag_236:\n        /* \"#utility.yul\":11224:11298   */\n      swap2\n      pop\n        /* \"#utility.yul\":11307:11400   */\n      tag_237\n        /* \"#utility.yul\":11396:11399   */\n      dup3\n        /* \"#utility.yul\":11307:11400   */\n      tag_136\n      jump\t// in\n    tag_237:\n        /* \"#utility.yul\":11425:11427   */\n      0x20\n        /* \"#utility.yul\":11420:11423   */\n      dup3\n        /* \"#utility.yul\":11416:11428   */\n      add\n        /* \"#utility.yul\":11409:11428   */\n      swap1\n      pop\n        /* \"#utility.yul\":11068:11434   */\n      swap2\n      swap1\n      pop\n      jump\t// out\n        /* \"#utility.yul\":11440:11859   */\n    tag_86:\n        /* \"#utility.yul\":11606:11610   */\n      0x00\n        /* \"#utility.yul\":11644:11646   */\n      0x20\n        /* \"#utility.yul\":11633:11642   */\n      dup3\n        /* \"#utility.yul\":11629:11647   */\n      add\n        /* \"#utility.yul\":11621:11647   */\n      swap1\n      pop\n        /* \"#utility.yul\":11693:11702   */\n      dup2\n        /* \"#utility.yul\":11687:11691   */\n      dup2\n        /* \"#utility.yul\":11683:11703   */\n      sub\n        /* \"#utility.yul\":11679:11680   */\n      0x00\n        /* \"#utility.yul\":11668:11677   */\n      dup4\n        /* \"#utility.yul\":11664:11681   */\n      add\n        /* \"#utility.yul\":11657:11704   */\n      mstore\n        /* \"#utility.yul\":11721:11852   */\n      tag_239\n        /* \"#utility.yul\":11847:11851   */\n      dup2\n        /* \"#utility.yul\":11721:11852   */\n      tag_137\n      jump\t// in\n    tag_239:\n        /* \"#utility.yul\":11713:11852   */\n      swap1\n      pop\n        /* \"#utility.yul\":11440:11859   */\n      swap2\n      swap1\n      pop\n      jump\t// out\n        /* \"#utility.yul\":11865:12043   */\n    tag_138:\n        /* \"#utility.yul\":12005:12035   */\n      0x5472616e7366657272696e67203130303020555344206661696c656400000000\n        /* \"#utility.yul\":12001:12002   */\n      0x00\n        /* \"#utility.yul\":11993:11999   */\n      dup3\n        /* \"#utility.yul\":11989:12003   */\n      add\n        /* \"#utility.yul\":11982:12036   */\n      mstore\n        /* \"#utility.yul\":11865:12043   */\n      pop\n      jump\t// out\n        /* \"#utility.yul\":12049:12415   */\n    tag_139:\n        /* \"#utility.yul\":12191:12194   */\n      0x00\n        /* \"#utility.yul\":12212:12279   */\n      tag_242\n        /* \"#utility.yul\":12276:12278   */\n      0x1c\n        /* \"#utility.yul\":12271:12274   */\n      dup4\n        /* \"#utility.yul\":12212:12279   */\n      tag_117\n      jump\t// in\n    tag_242:\n        /* \"#utility.yul\":12205:12279   */\n      swap2\n      pop\n        /* \"#utility.yul\":12288:12381   */\n      tag_243\n        /* \"#utility.yul\":12377:12380   */\n      dup3\n        /* \"#utility.yul\":12288:12381   */\n      tag_138\n      jump\t// in\n    tag_243:\n        /* \"#utility.yul\":12406:12408   */\n      0x20\n        /* \"#utility.yul\":12401:12404   */\n      dup3\n        /* \"#utility.yul\":12397:12409   */\n      add\n        /* \"#utility.yul\":12390:12409   */\n      swap1\n      pop\n        /* \"#utility.yul\":12049:12415   */\n      swap2\n      swap1\n      pop\n      jump\t// out\n        /* \"#utility.yul\":12421:12840   */\n    tag_93:\n        /* \"#utility.yul\":12587:12591   */\n      0x00\n        /* \"#utility.yul\":12625:12627   */\n      0x20\n        /* \"#utility.yul\":12614:12623   */\n      dup3\n        /* \"#utility.yul\":12610:12628   */\n      add\n        /* \"#utility.yul\":12602:12628   */\n      swap1\n      pop\n        /* \"#utility.yul\":12674:12683   */\n      dup2\n        /* \"#utility.yul\":12668:12672   */\n      dup2\n        /* \"#utility.yul\":12664:12684   */\n      sub\n        /* \"#utility.yul\":12660:12661   */\n      0x00\n        /* \"#utility.yul\":12649:12658   */\n      dup4\n        /* \"#utility.yul\":12645:12662   */\n      add\n        /* \"#utility.yul\":12638:12685   */\n      mstore\n        /* \"#utility.yul\":12702:12833   */\n      tag_245\n        /* \"#utility.yul\":12828:12832   */\n      dup2\n        /* \"#utility.yul\":12702:12833   */\n      tag_139\n      jump\t// in\n    tag_245:\n        /* \"#utility.yul\":12694:12833   */\n      swap1\n      pop\n        /* \"#utility.yul\":12421:12840   */\n      swap2\n      swap1\n      pop\n      jump\t// out\n        /* \"#utility.yul\":12846:12951   */\n    tag_140:\n        /* \"#utility.yul\":12882:12889   */\n      0x00\n        /* \"#utility.yul\":12922:12944   */\n      0xffffffffffffffffffff\n        /* \"#utility.yul\":12915:12920   */\n      dup3\n        /* \"#utility.yul\":12911:12945   */\n      and\n        /* \"#utility.yul\":12900:12945   */\n      swap1\n      pop\n        /* \"#utility.yul\":12846:12951   */\n      swap2\n      swap1\n      pop\n      jump\t// out\n        /* \"#utility.yul\":12957:13077   */\n    tag_141:\n        /* \"#utility.yul\":13029:13052   */\n      tag_248\n        /* \"#utility.yul\":13046:13051   */\n      dup2\n        /* \"#utility.yul\":13029:13052   */\n      tag_140\n      jump\t// in\n    tag_248:\n        /* \"#utility.yul\":13022:13027   */\n      dup2\n        /* \"#utility.yul\":13019:13053   */\n      eq\n        /* \"#utility.yul\":13009:13071   */\n      tag_249\n      jumpi\n        /* \"#utility.yul\":13067:13068   */\n      0x00\n        /* \"#utility.yul\":13064:13065   */\n      dup1\n        /* \"#utility.yul\":13057:13069   */\n      revert\n        /* \"#utility.yul\":13009:13071   */\n    tag_249:\n        /* \"#utility.yul\":12957:13077   */\n      pop\n      jump\t// out\n        /* \"#utility.yul\":13083:13224   */\n    tag_142:\n        /* \"#utility.yul\":13139:13144   */\n      0x00\n        /* \"#utility.yul\":13170:13176   */\n      dup2\n        /* \"#utility.yul\":13164:13177   */\n      mload\n        /* \"#utility.yul\":13155:13177   */\n      swap1\n      pop\n        /* \"#utility.yul\":13186:13218   */\n      tag_251\n        /* \"#utility.yul\":13212:13217   */\n      dup2\n        /* \"#utility.yul\":13186:13218   */\n      tag_141\n      jump\t// in\n    tag_251:\n        /* \"#utility.yul\":13083:13224   */\n      swap3\n      swap2\n      pop\n      pop\n      jump\t// out\n        /* \"#utility.yul\":13230:13350   */\n    tag_143:\n        /* \"#utility.yul\":13302:13325   */\n      tag_253\n        /* \"#utility.yul\":13319:13324   */\n      dup2\n        /* \"#utility.yul\":13302:13325   */\n      tag_115\n      jump\t// in\n    tag_253:\n        /* \"#utility.yul\":13295:13300   */\n      dup2\n        /* \"#utility.yul\":13292:13326   */\n      eq\n        /* \"#utility.yul\":13282:13344   */\n      tag_254\n      jumpi\n        /* \"#utility.yul\":13340:13341   */\n      0x00\n        /* \"#utility.yul\":13337:13338   */\n      dup1\n        /* \"#utility.yul\":13330:13342   */\n      revert\n        /* \"#utility.yul\":13282:13344   */\n    tag_254:\n        /* \"#utility.yul\":13230:13350   */\n      pop\n      jump\t// out\n        /* \"#utility.yul\":13356:13497   */\n    tag_144:\n        /* \"#utility.yul\":13412:13417   */\n      0x00\n        /* \"#utility.yul\":13443:13449   */\n      dup2\n        /* \"#utility.yul\":13437:13450   */\n      mload\n        /* \"#utility.yul\":13428:13450   */\n      swap1\n      pop\n        /* \"#utility.yul\":13459:13491   */\n      tag_256\n        /* \"#utility.yul\":13485:13490   */\n      dup2\n        /* \"#utility.yul\":13459:13491   */\n      tag_143\n      jump\t// in\n    tag_256:\n        /* \"#utility.yul\":13356:13497   */\n      swap3\n      swap2\n      pop\n      pop\n      jump\t// out\n        /* \"#utility.yul\":13503:13625   */\n    tag_145:\n        /* \"#utility.yul\":13576:13600   */\n      tag_258\n        /* \"#utility.yul\":13594:13599   */\n      dup2\n        /* \"#utility.yul\":13576:13600   */\n      tag_113\n      jump\t// in\n    tag_258:\n        /* \"#utility.yul\":13569:13574   */\n      dup2\n        /* \"#utility.yul\":13566:13601   */\n      eq\n        /* \"#utility.yul\":13556:13619   */\n      tag_259\n      jumpi\n        /* \"#utility.yul\":13615:13616   */\n      0x00\n        /* \"#utility.yul\":13612:13613   */\n      dup1\n        /* \"#utility.yul\":13605:13617   */\n      revert\n        /* \"#utility.yul\":13556:13619   */\n    tag_259:\n        /* \"#utility.yul\":13503:13625   */\n      pop\n      jump\t// out\n        /* \"#utility.yul\":13631:13774   */\n    tag_146:\n        /* \"#utility.yul\":13688:13693   */\n      0x00\n        /* \"#utility.yul\":13719:13725   */\n      dup2\n        /* \"#utility.yul\":13713:13726   */\n      mload\n        /* \"#utility.yul\":13704:13726   */\n      swap1\n      pop\n        /* \"#utility.yul\":13735:13768   */\n      tag_261\n        /* \"#utility.yul\":13762:13767   */\n      dup2\n        /* \"#utility.yul\":13735:13768   */\n      tag_145\n      jump\t// in\n    tag_261:\n        /* \"#utility.yul\":13631:13774   */\n      swap3\n      swap2\n      pop\n      pop\n      jump\t// out\n        /* \"#utility.yul\":13780:14751   */\n    tag_98:\n        /* \"#utility.yul\":13883:13889   */\n      0x00\n        /* \"#utility.yul\":13891:13897   */\n      dup1\n        /* \"#utility.yul\":13899:13905   */\n      0x00\n        /* \"#utility.yul\":13907:13913   */\n      dup1\n        /* \"#utility.yul\":13915:13921   */\n      0x00\n        /* \"#utility.yul\":13964:13967   */\n      0xa0\n        /* \"#utility.yul\":13952:13961   */\n      dup7\n        /* \"#utility.yul\":13943:13950   */\n      dup9\n        /* \"#utility.yul\":13939:13962   */\n      sub\n        /* \"#utility.yul\":13935:13968   */\n      slt\n        /* \"#utility.yul\":13932:14052   */\n      iszero\n      tag_263\n      jumpi\n        /* \"#utility.yul\":13971:14050   */\n      tag_264\n      tag_106\n      jump\t// in\n    tag_264:\n        /* \"#utility.yul\":13932:14052   */\n    tag_263:\n        /* \"#utility.yul\":14091:14092   */\n      0x00\n        /* \"#utility.yul\":14116:14179   */\n      tag_265\n        /* \"#utility.yul\":14171:14178   */\n      dup9\n        /* \"#utility.yul\":14162:14168   */\n      dup3\n        /* \"#utility.yul\":14151:14160   */\n      dup10\n        /* \"#utility.yul\":14147:14169   */\n      add\n        /* \"#utility.yul\":14116:14179   */\n      tag_142\n      jump\t// in\n    tag_265:\n        /* \"#utility.yul\":14106:14179   */\n      swap6\n      pop\n        /* \"#utility.yul\":14062:14189   */\n      pop\n        /* \"#utility.yul\":14228:14230   */\n      0x20\n        /* \"#utility.yul\":14254:14317   */\n      tag_266\n        /* \"#utility.yul\":14309:14316   */\n      dup9\n        /* \"#utility.yul\":14300:14306   */\n      dup3\n        /* \"#utility.yul\":14289:14298   */\n      dup10\n        /* \"#utility.yul\":14285:14307   */\n      add\n        /* \"#utility.yul\":14254:14317   */\n      tag_144\n      jump\t// in\n    tag_266:\n        /* \"#utility.yul\":14244:14317   */\n      swap5\n      pop\n        /* \"#utility.yul\":14199:14327   */\n      pop\n        /* \"#utility.yul\":14366:14368   */\n      0x40\n        /* \"#utility.yul\":14392:14456   */\n      tag_267\n        /* \"#utility.yul\":14448:14455   */\n      dup9\n        /* \"#utility.yul\":14439:14445   */\n      dup3\n        /* \"#utility.yul\":14428:14437   */\n      dup10\n        /* \"#utility.yul\":14424:14446   */\n      add\n        /* \"#utility.yul\":14392:14456   */\n      tag_146\n      jump\t// in\n    tag_267:\n        /* \"#utility.yul\":14382:14456   */\n      swap4\n      pop\n        /* \"#utility.yul\":14337:14466   */\n      pop\n        /* \"#utility.yul\":14505:14507   */\n      0x60\n        /* \"#utility.yul\":14531:14595   */\n      tag_268\n        /* \"#utility.yul\":14587:14594   */\n      dup9\n        /* \"#utility.yul\":14578:14584   */\n      dup3\n        /* \"#utility.yul\":14567:14576   */\n      dup10\n        /* \"#utility.yul\":14563:14585   */\n      add\n        /* \"#utility.yul\":14531:14595   */\n      tag_146\n      jump\t// in\n    tag_268:\n        /* \"#utility.yul\":14521:14595   */\n      swap3\n      pop\n        /* \"#utility.yul\":14476:14605   */\n      pop\n        /* \"#utility.yul\":14644:14647   */\n      0x80\n        /* \"#utility.yul\":14671:14734   */\n      tag_269\n        /* \"#utility.yul\":14726:14733   */\n      dup9\n        /* \"#utility.yul\":14717:14723   */\n      dup3\n        /* \"#utility.yul\":14706:14715   */\n      dup10\n        /* \"#utility.yul\":14702:14724   */\n      add\n        /* \"#utility.yul\":14671:14734   */\n      tag_142\n      jump\t// in\n    tag_269:\n        /* \"#utility.yul\":14661:14734   */\n      swap2\n      pop\n        /* \"#utility.yul\":14615:14744   */\n      pop\n        /* \"#utility.yul\":13780:14751   */\n      swap3\n      swap6\n      pop\n      swap3\n      swap6\n      swap1\n      swap4\n      pop\n      jump\t// out\n        /* \"#utility.yul\":14757:15167   */\n    tag_102:\n        /* \"#utility.yul\":14797:14804   */\n      0x00\n        /* \"#utility.yul\":14820:14840   */\n      tag_271\n        /* \"#utility.yul\":14838:14839   */\n      dup3\n        /* \"#utility.yul\":14820:14840   */\n      tag_113\n      jump\t// in\n    tag_271:\n        /* \"#utility.yul\":14815:14840   */\n      swap2\n      pop\n        /* \"#utility.yul\":14854:14874   */\n      tag_272\n        /* \"#utility.yul\":14872:14873   */\n      dup4\n        /* \"#utility.yul\":14854:14874   */\n      tag_113\n      jump\t// in\n    tag_272:\n        /* \"#utility.yul\":14849:14874   */\n      swap3\n      pop\n        /* \"#utility.yul\":14909:14910   */\n      dup3\n        /* \"#utility.yul\":14906:14907   */\n      dup3\n        /* \"#utility.yul\":14902:14911   */\n      mul\n        /* \"#utility.yul\":14931:14961   */\n      tag_273\n        /* \"#utility.yul\":14949:14960   */\n      dup2\n        /* \"#utility.yul\":14931:14961   */\n      tag_113\n      jump\t// in\n    tag_273:\n        /* \"#utility.yul\":14920:14961   */\n      swap2\n      pop\n        /* \"#utility.yul\":15110:15111   */\n      dup3\n        /* \"#utility.yul\":15101:15108   */\n      dup3\n        /* \"#utility.yul\":15097:15112   */\n      div\n        /* \"#utility.yul\":15094:15095   */\n      dup5\n        /* \"#utility.yul\":15091:15113   */\n      eq\n        /* \"#utility.yul\":15071:15072   */\n      dup4\n        /* \"#utility.yul\":15064:15073   */\n      iszero\n        /* \"#utility.yul\":15044:15127   */\n      or\n        /* \"#utility.yul\":15021:15160   */\n      tag_274\n      jumpi\n        /* \"#utility.yul\":15140:15158   */\n      tag_275\n      tag_120\n      jump\t// in\n    tag_275:\n        /* \"#utility.yul\":15021:15160   */\n    tag_274:\n        /* \"#utility.yul\":14805:15167   */\n      pop\n        /* \"#utility.yul\":14757:15167   */\n      swap3\n      swap2\n      pop\n      pop\n      jump\t// out\n        /* \"#utility.yul\":15173:15353   */\n    tag_147:\n        /* \"#utility.yul\":15221:15298   */\n      0x4e487b7100000000000000000000000000000000000000000000000000000000\n        /* \"#utility.yul\":15218:15219   */\n      0x00\n        /* \"#utility.yul\":15211:15299   */\n      mstore\n        /* \"#utility.yul\":15318:15322   */\n      0x12\n        /* \"#utility.yul\":15315:15316   */\n      0x04\n        /* \"#utility.yul\":15308:15323   */\n      mstore\n        /* \"#utility.yul\":15342:15346   */\n      0x24\n        /* \"#utility.yul\":15339:15340   */\n      0x00\n        /* \"#utility.yul\":15332:15347   */\n      revert\n        /* \"#utility.yul\":15359:15544   */\n    tag_104:\n        /* \"#utility.yul\":15399:15400   */\n      0x00\n        /* \"#utility.yul\":15416:15436   */\n      tag_278\n        /* \"#utility.yul\":15434:15435   */\n      dup3\n        /* \"#utility.yul\":15416:15436   */\n      tag_113\n      jump\t// in\n    tag_278:\n        /* \"#utility.yul\":15411:15436   */\n      swap2\n      pop\n        /* \"#utility.yul\":15450:15470   */\n      tag_279\n        /* \"#utility.yul\":15468:15469   */\n      dup4\n        /* \"#utility.yul\":15450:15470   */\n      tag_113\n      jump\t// in\n    tag_279:\n        /* \"#utility.yul\":15445:15470   */\n      swap3\n      pop\n        /* \"#utility.yul\":15489:15490   */\n      dup3\n        /* \"#utility.yul\":15479:15514   */\n      tag_280\n      jumpi\n        /* \"#utility.yul\":15494:15512   */\n      tag_281\n      tag_147\n      jump\t// in\n    tag_281:\n        /* \"#utility.yul\":15479:15514   */\n    tag_280:\n        /* \"#utility.yul\":15536:15537   */\n      dup3\n        /* \"#utility.yul\":15533:15534   */\n      dup3\n        /* \"#utility.yul\":15529:15538   */\n      div\n        /* \"#utility.yul\":15524:15538   */\n      swap1\n      pop\n        /* \"#utility.yul\":15359:15544   */\n      swap3\n      swap2\n      pop\n      pop\n      jump\t// out\n\n    auxdata: 0xa26469706673582212203bb3cc3e96843d431492c00ffd7b3a8981f16b794af84d6251baf6ef0f0b1e0164736f6c634300081a0033\n}\n",
				"bytecode": {
					"linkReferences": {},
					"object": "6080604052670de0b6b3a76400005f5534801561001a575f80fd5b50604051611107380380611107833981810160405281019061003c919061011b565b73694aa1769357215de4fac081bf1f309adc32530660015f6101000a81548173ffffffffffffffffffffffffffffffffffffffff021916908373ffffffffffffffffffffffffffffffffffffffff1602179055503360035f6101000a81548173ffffffffffffffffffffffffffffffffffffffff021916908373ffffffffffffffffffffffffffffffffffffffff160217905550426004819055508060058190555050610146565b5f80fd5b5f819050919050565b6100fa816100e8565b8114610104575f80fd5b50565b5f81519050610115816100f1565b92915050565b5f602082840312156101305761012f6100e4565b5b5f61013d84828501610107565b91505092915050565b610fb4806101535f395ff3fe60806040526004361061006f575f3560e01c80638da5cb5b1161004d5780638da5cb5b146100bb5780638edd6eb6146100e5578063a6f4e227146100fb578063bea4dfb5146101375761006f565b80631b9265b8146100735780631ea62b0e1461007d578063590e1ae3146100a5575b5f80fd5b61007b610161565b005b348015610088575f80fd5b506100a3600480360381019061009e91906108a2565b610242565b005b3480156100b0575f80fd5b506100b9610314565b005b3480156100c6575f80fd5b506100cf610564565b6040516100dc91906108dc565b60405180910390f35b3480156100f0575f80fd5b506100f9610589565b005b348015610106575f80fd5b50610121600480360381019061011c91906108a2565b610763565b60405161012e919061090d565b60405180910390f35b348015610142575f80fd5b5061014b610778565b604051610158919061093e565b60405180910390f35b5f5461016c34610815565b10156101ad576040517f08c379a00000000000000000000000000000000000000000000000000000000081526004016101a4906109d7565b60405180910390fd5b6005546004546101bd9190610a22565b42106101fe576040517f08c379a00000000000000000000000000000000000000000000000000000000081526004016101f590610a9f565b60405180910390fd5b3460025f3373ffffffffffffffffffffffffffffffffffffffff1673ffffffffffffffffffffffffffffffffffffffff1681526020019081526020015f2081905550565b60035f9054906101000a900473ffffffffffffffffffffffffffffffffffffffff1673ffffffffffffffffffffffffffffffffffffffff163373ffffffffffffffffffffffffffffffffffffffff16146102d1576040517f08c379a00000000000000000000000000000000000000000000000000000000081526004016102c890610b07565b60405180910390fd5b8060035f6101000a81548173ffffffffffffffffffffffffffffffffffffffff021916908373ffffffffffffffffffffffffffffffffffffffff16021790555050565b6005546004546103249190610a22565b421015610366576040517f08c379a000000000000000000000000000000000000000000000000000000000815260040161035d90610b6f565b60405180910390fd5b68056bc75e2d6310000061037947610815565b106103b9576040517f08c379a00000000000000000000000000000000000000000000000000000000081526004016103b090610bd7565b60405180910390fd5b5f60025f3373ffffffffffffffffffffffffffffffffffffffff1673ffffffffffffffffffffffffffffffffffffffff1681526020019081526020015f205403610438576040517f08c379a000000000000000000000000000000000000000000000000000000000815260040161042f90610c3f565b60405180910390fd5b5f3373ffffffffffffffffffffffffffffffffffffffff1660025f3373ffffffffffffffffffffffffffffffffffffffff1673ffffffffffffffffffffffffffffffffffffffff1681526020019081526020015f205460405161049a90610c8a565b5f6040518083038185875af1925050503d805f81146104d4576040519150601f19603f3d011682016040523d82523d5f602084013e6104d9565b606091505b5050809150508061051f576040517f08c379a000000000000000000000000000000000000000000000000000000000815260040161051690610ce8565b60405180910390fd5b5f60025f3373ffffffffffffffffffffffffffffffffffffffff1673ffffffffffffffffffffffffffffffffffffffff1681526020019081526020015f208190555050565b60035f9054906101000a900473ffffffffffffffffffffffffffffffffffffffff1681565b6005546004546105999190610a22565b4210156105db576040517f08c379a00000000000000000000000000000000000000000000000000000000081526004016105d290610b6f565b60405180910390fd5b60035f9054906101000a900473ffffffffffffffffffffffffffffffffffffffff1673ffffffffffffffffffffffffffffffffffffffff163373ffffffffffffffffffffffffffffffffffffffff161461066a576040517f08c379a000000000000000000000000000000000000000000000000000000000815260040161066190610b07565b60405180910390fd5b68056bc75e2d631000004710156106b6576040517f08c379a00000000000000000000000000000000000000000000000000000000081526004016106ad90610d50565b60405180910390fd5b5f3373ffffffffffffffffffffffffffffffffffffffff16476040516106db90610c8a565b5f6040518083038185875af1925050503d805f8114610715576040519150601f19603f3d011682016040523d82523d5f602084013e61071a565b606091505b50508091505080610760576040517f08c379a000000000000000000000000000000000000000000000000000000000815260040161075790610db8565b60405180910390fd5b50565b6002602052805f5260405f205f915090505481565b5f8060015f9054906101000a900473ffffffffffffffffffffffffffffffffffffffff1673ffffffffffffffffffffffffffffffffffffffff1663feaf968c6040518163ffffffff1660e01b815260040160a060405180830381865afa1580156107e4573d5f803e3d5ffd5b505050506040513d601f19601f820116820180604052508101906108089190610e69565b5050509150508091505090565b5f8061081f610778565b90506305f5e10081846108329190610ee0565b61083c9190610f4e565b915050919050565b5f80fd5b5f73ffffffffffffffffffffffffffffffffffffffff82169050919050565b5f61087182610848565b9050919050565b61088181610867565b811461088b575f80fd5b50565b5f8135905061089c81610878565b92915050565b5f602082840312156108b7576108b6610844565b5b5f6108c48482850161088e565b91505092915050565b6108d681610867565b82525050565b5f6020820190506108ef5f8301846108cd565b92915050565b5f819050919050565b610907816108f5565b82525050565b5f6020820190506109205f8301846108fe565b92915050565b5f819050919050565b61093881610926565b82525050565b5f6020820190506109515f83018461092f565b92915050565b5f82825260208201905092915050565b7f596f75206e65656420746f2073656e64206d696e696d756d206f6620312055535f8201527f4421000000000000000000000000000000000000000000000000000000000000602082015250565b5f6109c1602283610957565b91506109cc82610967565b604082019050919050565b5f6020820190508181035f8301526109ee816109b5565b9050919050565b7f4e487b71000000000000000000000000000000000000000000000000000000005f52601160045260245ffd5b5f610a2c826108f5565b9150610a37836108f5565b9250828201905080821115610a4f57610a4e6109f5565b5b92915050565b7f54686973206f7065726174696f6e206973206e6f7420616c6c6f77656420696e5f82015250565b5f610a89602083610957565b9150610a9482610a55565b602082019050919050565b5f6020820190508181035f830152610ab681610a7d565b9050919050565b7f596f7520617265206e6f74207468652063757272656e74206f776e65722100005f82015250565b5f610af1601e83610957565b9150610afc82610abd565b602082019050919050565b5f6020820190508181035f830152610b1e81610ae5565b9050919050565b7f546869732066756e64206973206e6f7420636c6f7365640000000000000000005f82015250565b5f610b59601783610957565b9150610b6482610b25565b602082019050919050565b5f6020820190508181035f830152610b8681610b4d565b9050919050565b7f54617267657420697320656e6f756768000000000000000000000000000000005f82015250565b5f610bc1601083610957565b9150610bcc82610b8d565b602082019050919050565b5f6020820190508181035f830152610bee81610bb5565b9050919050565b7f596f7520646964206e6f742073656e6420616e792066756e64732100000000005f82015250565b5f610c29601b83610957565b9150610c3482610bf5565b602082019050919050565b5f6020820190508181035f830152610c5681610c1d565b9050919050565b5f81905092915050565b50565b5f610c755f83610c5d565b9150610c8082610c67565b5f82019050919050565b5f610c9482610c6a565b9150819050919050565b7f526566756e64206661696c6564000000000000000000000000000000000000005f82015250565b5f610cd2600d83610957565b9150610cdd82610c9e565b602082019050919050565b5f6020820190508181035f830152610cff81610cc6565b9050919050565b7f4e6f7420656e6f756768203130303020555344000000000000000000000000005f82015250565b5f610d3a601383610957565b9150610d4582610d06565b602082019050919050565b5f6020820190508181035f830152610d6781610d2e565b9050919050565b7f5472616e7366657272696e67203130303020555344206661696c6564000000005f82015250565b5f610da2601c83610957565b9150610dad82610d6e565b602082019050919050565b5f6020820190508181035f830152610dcf81610d96565b9050919050565b5f69ffffffffffffffffffff82169050919050565b610df481610dd6565b8114610dfe575f80fd5b50565b5f81519050610e0f81610deb565b92915050565b610e1e81610926565b8114610e28575f80fd5b50565b5f81519050610e3981610e15565b92915050565b610e48816108f5565b8114610e52575f80fd5b50565b5f81519050610e6381610e3f565b92915050565b5f805f805f60a08688031215610e8257610e81610844565b5b5f610e8f88828901610e01565b9550506020610ea088828901610e2b565b9450506040610eb188828901610e55565b9350506060610ec288828901610e55565b9250506080610ed388828901610e01565b9150509295509295909350565b5f610eea826108f5565b9150610ef5836108f5565b9250828202610f03816108f5565b91508282048414831517610f1a57610f196109f5565b5b5092915050565b7f4e487b71000000000000000000000000000000000000000000000000000000005f52601260045260245ffd5b5f610f58826108f5565b9150610f63836108f5565b925082610f7357610f72610f21565b5b82820490509291505056fea26469706673582212203bb3cc3e96843d431492c00ffd7b3a8981f16b794af84d6251baf6ef0f0b1e0164736f6c634300081a0033",
					"opcodes": "PUSH1 0x80 PUSH1 0x40 MSTORE PUSH8 0xDE0B6B3A7640000 PUSH0 SSTORE CALLVALUE DUP1 ISZERO PUSH2 0x1A JUMPI PUSH0 DUP1 REVERT JUMPDEST POP PUSH1 0x40 MLOAD PUSH2 0x1107 CODESIZE SUB DUP1 PUSH2 0x1107 DUP4 CODECOPY DUP2 DUP2 ADD PUSH1 0x40 MSTORE DUP2 ADD SWAP1 PUSH2 0x3C SWAP2 SWAP1 PUSH2 0x11B JUMP JUMPDEST PUSH20 0x694AA1769357215DE4FAC081BF1F309ADC325306 PUSH1 0x1 PUSH0 PUSH2 0x100 EXP DUP2 SLOAD DUP2 PUSH20 0xFFFFFFFFFFFFFFFFFFFFFFFFFFFFFFFFFFFFFFFF MUL NOT AND SWAP1 DUP4 PUSH20 0xFFFFFFFFFFFFFFFFFFFFFFFFFFFFFFFFFFFFFFFF AND MUL OR SWAP1 SSTORE POP CALLER PUSH1 0x3 PUSH0 PUSH2 0x100 EXP DUP2 SLOAD DUP2 PUSH20 0xFFFFFFFFFFFFFFFFFFFFFFFFFFFFFFFFFFFFFFFF MUL NOT AND SWAP1 DUP4 PUSH20 0xFFFFFFFFFFFFFFFFFFFFFFFFFFFFFFFFFFFFFFFF AND MUL OR SWAP1 SSTORE POP TIMESTAMP PUSH1 0x4 DUP2 SWAP1 SSTORE POP DUP1 PUSH1 0x5 DUP2 SWAP1 SSTORE POP POP PUSH2 0x146 JUMP JUMPDEST PUSH0 DUP1 REVERT JUMPDEST PUSH0 DUP2 SWAP1 POP SWAP2 SWAP1 POP JUMP JUMPDEST PUSH2 0xFA DUP2 PUSH2 0xE8 JUMP JUMPDEST DUP2 EQ PUSH2 0x104 JUMPI PUSH0 DUP1 REVERT JUMPDEST POP JUMP JUMPDEST PUSH0 DUP2 MLOAD SWAP1 POP PUSH2 0x115 DUP2 PUSH2 0xF1 JUMP JUMPDEST SWAP3 SWAP2 POP POP JUMP JUMPDEST PUSH0 PUSH1 0x20 DUP3 DUP5 SUB SLT ISZERO PUSH2 0x130 JUMPI PUSH2 0x12F PUSH2 0xE4 JUMP JUMPDEST JUMPDEST PUSH0 PUSH2 0x13D DUP5 DUP3 DUP6 ADD PUSH2 0x107 JUMP JUMPDEST SWAP2 POP POP SWAP3 SWAP2 POP POP JUMP JUMPDEST PUSH2 0xFB4 DUP1 PUSH2 0x153 PUSH0 CODECOPY PUSH0 RETURN INVALID PUSH1 0x80 PUSH1 0x40 MSTORE PUSH1 0x4 CALLDATASIZE LT PUSH2 0x6F JUMPI PUSH0 CALLDATALOAD PUSH1 0xE0 SHR DUP1 PUSH4 0x8DA5CB5B GT PUSH2 0x4D JUMPI DUP1 PUSH4 0x8DA5CB5B EQ PUSH2 0xBB JUMPI DUP1 PUSH4 0x8EDD6EB6 EQ PUSH2 0xE5 JUMPI DUP1 PUSH4 0xA6F4E227 EQ PUSH2 0xFB JUMPI DUP1 PUSH4 0xBEA4DFB5 EQ PUSH2 0x137 JUMPI PUSH2 0x6F JUMP JUMPDEST DUP1 PUSH4 0x1B9265B8 EQ PUSH2 0x73 JUMPI DUP1 PUSH4 0x1EA62B0E EQ PUSH2 0x7D JUMPI DUP1 PUSH4 0x590E1AE3 EQ PUSH2 0xA5 JUMPI JUMPDEST PUSH0 DUP1 REVERT JUMPDEST PUSH2 0x7B PUSH2 0x161 JUMP JUMPDEST STOP JUMPDEST CALLVALUE DUP1 ISZERO PUSH2 0x88 JUMPI PUSH0 DUP1 REVERT JUMPDEST POP PUSH2 0xA3 PUSH1 0x4 DUP1 CALLDATASIZE SUB DUP2 ADD SWAP1 PUSH2 0x9E SWAP2 SWAP1 PUSH2 0x8A2 JUMP JUMPDEST PUSH2 0x242 JUMP JUMPDEST STOP JUMPDEST CALLVALUE DUP1 ISZERO PUSH2 0xB0 JUMPI PUSH0 DUP1 REVERT JUMPDEST POP PUSH2 0xB9 PUSH2 0x314 JUMP JUMPDEST STOP JUMPDEST CALLVALUE DUP1 ISZERO PUSH2 0xC6 JUMPI PUSH0 DUP1 REVERT JUMPDEST POP PUSH2 0xCF PUSH2 0x564 JUMP JUMPDEST PUSH1 0x40 MLOAD PUSH2 0xDC SWAP2 SWAP1 PUSH2 0x8DC JUMP JUMPDEST PUSH1 0x40 MLOAD DUP1 SWAP2 SUB SWAP1 RETURN JUMPDEST CALLVALUE DUP1 ISZERO PUSH2 0xF0 JUMPI PUSH0 DUP1 REVERT JUMPDEST POP PUSH2 0xF9 PUSH2 0x589 JUMP JUMPDEST STOP JUMPDEST CALLVALUE DUP1 ISZERO PUSH2 0x106 JUMPI PUSH0 DUP1 REVERT JUMPDEST POP PUSH2 0x121 PUSH1 0x4 DUP1 CALLDATASIZE SUB DUP2 ADD SWAP1 PUSH2 0x11C SWAP2 SWAP1 PUSH2 0x8A2 JUMP JUMPDEST PUSH2 0x763 JUMP JUMPDEST PUSH1 0x40 MLOAD PUSH2 0x12E SWAP2 SWAP1 PUSH2 0x90D JUMP JUMPDEST PUSH1 0x40 MLOAD DUP1 SWAP2 SUB SWAP1 RETURN JUMPDEST CALLVALUE DUP1 ISZERO PUSH2 0x142 JUMPI PUSH0 DUP1 REVERT JUMPDEST POP PUSH2 0x14B PUSH2 0x778 JUMP JUMPDEST PUSH1 0x40 MLOAD PUSH2 0x158 SWAP2 SWAP1 PUSH2 0x93E JUMP JUMPDEST PUSH1 0x40 MLOAD DUP1 SWAP2 SUB SWAP1 RETURN JUMPDEST PUSH0 SLOAD PUSH2 0x16C CALLVALUE PUSH2 0x815 JUMP JUMPDEST LT ISZERO PUSH2 0x1AD JUMPI PUSH1 0x40 MLOAD PUSH32 0x8C379A000000000000000000000000000000000000000000000000000000000 DUP2 MSTORE PUSH1 0x4 ADD PUSH2 0x1A4 SWAP1 PUSH2 0x9D7 JUMP JUMPDEST PUSH1 0x40 MLOAD DUP1 SWAP2 SUB SWAP1 REVERT JUMPDEST PUSH1 0x5 SLOAD PUSH1 0x4 SLOAD PUSH2 0x1BD SWAP2 SWAP1 PUSH2 0xA22 JUMP JUMPDEST TIMESTAMP LT PUSH2 0x1FE JUMPI PUSH1 0x40 MLOAD PUSH32 0x8C379A000000000000000000000000000000000000000000000000000000000 DUP2 MSTORE PUSH1 0x4 ADD PUSH2 0x1F5 SWAP1 PUSH2 0xA9F JUMP JUMPDEST PUSH1 0x40 MLOAD DUP1 SWAP2 SUB SWAP1 REVERT JUMPDEST CALLVALUE PUSH1 0x2 PUSH0 CALLER PUSH20 0xFFFFFFFFFFFFFFFFFFFFFFFFFFFFFFFFFFFFFFFF AND PUSH20 0xFFFFFFFFFFFFFFFFFFFFFFFFFFFFFFFFFFFFFFFF AND DUP2 MSTORE PUSH1 0x20 ADD SWAP1 DUP2 MSTORE PUSH1 0x20 ADD PUSH0 KECCAK256 DUP2 SWAP1 SSTORE POP JUMP JUMPDEST PUSH1 0x3 PUSH0 SWAP1 SLOAD SWAP1 PUSH2 0x100 EXP SWAP1 DIV PUSH20 0xFFFFFFFFFFFFFFFFFFFFFFFFFFFFFFFFFFFFFFFF AND PUSH20 0xFFFFFFFFFFFFFFFFFFFFFFFFFFFFFFFFFFFFFFFF AND CALLER PUSH20 0xFFFFFFFFFFFFFFFFFFFFFFFFFFFFFFFFFFFFFFFF AND EQ PUSH2 0x2D1 JUMPI PUSH1 0x40 MLOAD PUSH32 0x8C379A000000000000000000000000000000000000000000000000000000000 DUP2 MSTORE PUSH1 0x4 ADD PUSH2 0x2C8 SWAP1 PUSH2 0xB07 JUMP JUMPDEST PUSH1 0x40 MLOAD DUP1 SWAP2 SUB SWAP1 REVERT JUMPDEST DUP1 PUSH1 0x3 PUSH0 PUSH2 0x100 EXP DUP2 SLOAD DUP2 PUSH20 0xFFFFFFFFFFFFFFFFFFFFFFFFFFFFFFFFFFFFFFFF MUL NOT AND SWAP1 DUP4 PUSH20 0xFFFFFFFFFFFFFFFFFFFFFFFFFFFFFFFFFFFFFFFF AND MUL OR SWAP1 SSTORE POP POP JUMP JUMPDEST PUSH1 0x5 SLOAD PUSH1 0x4 SLOAD PUSH2 0x324 SWAP2 SWAP1 PUSH2 0xA22 JUMP JUMPDEST TIMESTAMP LT ISZERO PUSH2 0x366 JUMPI PUSH1 0x40 MLOAD PUSH32 0x8C379A000000000000000000000000000000000000000000000000000000000 DUP2 MSTORE PUSH1 0x4 ADD PUSH2 0x35D SWAP1 PUSH2 0xB6F JUMP JUMPDEST PUSH1 0x40 MLOAD DUP1 SWAP2 SUB SWAP1 REVERT JUMPDEST PUSH9 0x56BC75E2D63100000 PUSH2 0x379 SELFBALANCE PUSH2 0x815 JUMP JUMPDEST LT PUSH2 0x3B9 JUMPI PUSH1 0x40 MLOAD PUSH32 0x8C379A000000000000000000000000000000000000000000000000000000000 DUP2 MSTORE PUSH1 0x4 ADD PUSH2 0x3B0 SWAP1 PUSH2 0xBD7 JUMP JUMPDEST PUSH1 0x40 MLOAD DUP1 SWAP2 SUB SWAP1 REVERT JUMPDEST PUSH0 PUSH1 0x2 PUSH0 CALLER PUSH20 0xFFFFFFFFFFFFFFFFFFFFFFFFFFFFFFFFFFFFFFFF AND PUSH20 0xFFFFFFFFFFFFFFFFFFFFFFFFFFFFFFFFFFFFFFFF AND DUP2 MSTORE PUSH1 0x20 ADD SWAP1 DUP2 MSTORE PUSH1 0x20 ADD PUSH0 KECCAK256 SLOAD SUB PUSH2 0x438 JUMPI PUSH1 0x40 MLOAD PUSH32 0x8C379A000000000000000000000000000000000000000000000000000000000 DUP2 MSTORE PUSH1 0x4 ADD PUSH2 0x42F SWAP1 PUSH2 0xC3F JUMP JUMPDEST PUSH1 0x40 MLOAD DUP1 SWAP2 SUB SWAP1 REVERT JUMPDEST PUSH0 CALLER PUSH20 0xFFFFFFFFFFFFFFFFFFFFFFFFFFFFFFFFFFFFFFFF AND PUSH1 0x2 PUSH0 CALLER PUSH20 0xFFFFFFFFFFFFFFFFFFFFFFFFFFFFFFFFFFFFFFFF AND PUSH20 0xFFFFFFFFFFFFFFFFFFFFFFFFFFFFFFFFFFFFFFFF AND DUP2 MSTORE PUSH1 0x20 ADD SWAP1 DUP2 MSTORE PUSH1 0x20 ADD PUSH0 KECCAK256 SLOAD PUSH1 0x40 MLOAD PUSH2 0x49A SWAP1 PUSH2 0xC8A JUMP JUMPDEST PUSH0 PUSH1 0x40 MLOAD DUP1 DUP4 SUB DUP2 DUP6 DUP8 GAS CALL SWAP3 POP POP POP RETURNDATASIZE DUP1 PUSH0 DUP2 EQ PUSH2 0x4D4 JUMPI PUSH1 0x40 MLOAD SWAP2 POP PUSH1 0x1F NOT PUSH1 0x3F RETURNDATASIZE ADD AND DUP3 ADD PUSH1 0x40 MSTORE RETURNDATASIZE DUP3 MSTORE RETURNDATASIZE PUSH0 PUSH1 0x20 DUP5 ADD RETURNDATACOPY PUSH2 0x4D9 JUMP JUMPDEST PUSH1 0x60 SWAP2 POP JUMPDEST POP POP DUP1 SWAP2 POP POP DUP1 PUSH2 0x51F JUMPI PUSH1 0x40 MLOAD PUSH32 0x8C379A000000000000000000000000000000000000000000000000000000000 DUP2 MSTORE PUSH1 0x4 ADD PUSH2 0x516 SWAP1 PUSH2 0xCE8 JUMP JUMPDEST PUSH1 0x40 MLOAD DUP1 SWAP2 SUB SWAP1 REVERT JUMPDEST PUSH0 PUSH1 0x2 PUSH0 CALLER PUSH20 0xFFFFFFFFFFFFFFFFFFFFFFFFFFFFFFFFFFFFFFFF AND PUSH20 0xFFFFFFFFFFFFFFFFFFFFFFFFFFFFFFFFFFFFFFFF AND DUP2 MSTORE PUSH1 0x20 ADD SWAP1 DUP2 MSTORE PUSH1 0x20 ADD PUSH0 KECCAK256 DUP2 SWAP1 SSTORE POP POP JUMP JUMPDEST PUSH1 0x3 PUSH0 SWAP1 SLOAD SWAP1 PUSH2 0x100 EXP SWAP1 DIV PUSH20 0xFFFFFFFFFFFFFFFFFFFFFFFFFFFFFFFFFFFFFFFF AND DUP2 JUMP JUMPDEST PUSH1 0x5 SLOAD PUSH1 0x4 SLOAD PUSH2 0x599 SWAP2 SWAP1 PUSH2 0xA22 JUMP JUMPDEST TIMESTAMP LT ISZERO PUSH2 0x5DB JUMPI PUSH1 0x40 MLOAD PUSH32 0x8C379A000000000000000000000000000000000000000000000000000000000 DUP2 MSTORE PUSH1 0x4 ADD PUSH2 0x5D2 SWAP1 PUSH2 0xB6F JUMP JUMPDEST PUSH1 0x40 MLOAD DUP1 SWAP2 SUB SWAP1 REVERT JUMPDEST PUSH1 0x3 PUSH0 SWAP1 SLOAD SWAP1 PUSH2 0x100 EXP SWAP1 DIV PUSH20 0xFFFFFFFFFFFFFFFFFFFFFFFFFFFFFFFFFFFFFFFF AND PUSH20 0xFFFFFFFFFFFFFFFFFFFFFFFFFFFFFFFFFFFFFFFF AND CALLER PUSH20 0xFFFFFFFFFFFFFFFFFFFFFFFFFFFFFFFFFFFFFFFF AND EQ PUSH2 0x66A JUMPI PUSH1 0x40 MLOAD PUSH32 0x8C379A000000000000000000000000000000000000000000000000000000000 DUP2 MSTORE PUSH1 0x4 ADD PUSH2 0x661 SWAP1 PUSH2 0xB07 JUMP JUMPDEST PUSH1 0x40 MLOAD DUP1 SWAP2 SUB SWAP1 REVERT JUMPDEST PUSH9 0x56BC75E2D63100000 SELFBALANCE LT ISZERO PUSH2 0x6B6 JUMPI PUSH1 0x40 MLOAD PUSH32 0x8C379A000000000000000000000000000000000000000000000000000000000 DUP2 MSTORE PUSH1 0x4 ADD PUSH2 0x6AD SWAP1 PUSH2 0xD50 JUMP JUMPDEST PUSH1 0x40 MLOAD DUP1 SWAP2 SUB SWAP1 REVERT JUMPDEST PUSH0 CALLER PUSH20 0xFFFFFFFFFFFFFFFFFFFFFFFFFFFFFFFFFFFFFFFF AND SELFBALANCE PUSH1 0x40 MLOAD PUSH2 0x6DB SWAP1 PUSH2 0xC8A JUMP JUMPDEST PUSH0 PUSH1 0x40 MLOAD DUP1 DUP4 SUB DUP2 DUP6 DUP8 GAS CALL SWAP3 POP POP POP RETURNDATASIZE DUP1 PUSH0 DUP2 EQ PUSH2 0x715 JUMPI PUSH1 0x40 MLOAD SWAP2 POP PUSH1 0x1F NOT PUSH1 0x3F RETURNDATASIZE ADD AND DUP3 ADD PUSH1 0x40 MSTORE RETURNDATASIZE DUP3 MSTORE RETURNDATASIZE PUSH0 PUSH1 0x20 DUP5 ADD RETURNDATACOPY PUSH2 0x71A JUMP JUMPDEST PUSH1 0x60 SWAP2 POP JUMPDEST POP POP DUP1 SWAP2 POP POP DUP1 PUSH2 0x760 JUMPI PUSH1 0x40 MLOAD PUSH32 0x8C379A000000000000000000000000000000000000000000000000000000000 DUP2 MSTORE PUSH1 0x4 ADD PUSH2 0x757 SWAP1 PUSH2 0xDB8 JUMP JUMPDEST PUSH1 0x40 MLOAD DUP1 SWAP2 SUB SWAP1 REVERT JUMPDEST POP JUMP JUMPDEST PUSH1 0x2 PUSH1 0x20 MSTORE DUP1 PUSH0 MSTORE PUSH1 0x40 PUSH0 KECCAK256 PUSH0 SWAP2 POP SWAP1 POP SLOAD DUP2 JUMP JUMPDEST PUSH0 DUP1 PUSH1 0x1 PUSH0 SWAP1 SLOAD SWAP1 PUSH2 0x100 EXP SWAP1 DIV PUSH20 0xFFFFFFFFFFFFFFFFFFFFFFFFFFFFFFFFFFFFFFFF AND PUSH20 0xFFFFFFFFFFFFFFFFFFFFFFFFFFFFFFFFFFFFFFFF AND PUSH4 0xFEAF968C PUSH1 0x40 MLOAD DUP2 PUSH4 0xFFFFFFFF AND PUSH1 0xE0 SHL DUP2 MSTORE PUSH1 0x4 ADD PUSH1 0xA0 PUSH1 0x40 MLOAD DUP1 DUP4 SUB DUP2 DUP7 GAS STATICCALL ISZERO DUP1 ISZERO PUSH2 0x7E4 JUMPI RETURNDATASIZE PUSH0 DUP1 RETURNDATACOPY RETURNDATASIZE PUSH0 REVERT JUMPDEST POP POP POP POP PUSH1 0x40 MLOAD RETURNDATASIZE PUSH1 0x1F NOT PUSH1 0x1F DUP3 ADD AND DUP3 ADD DUP1 PUSH1 0x40 MSTORE POP DUP2 ADD SWAP1 PUSH2 0x808 SWAP2 SWAP1 PUSH2 0xE69 JUMP JUMPDEST POP POP POP SWAP2 POP POP DUP1 SWAP2 POP POP SWAP1 JUMP JUMPDEST PUSH0 DUP1 PUSH2 0x81F PUSH2 0x778 JUMP JUMPDEST SWAP1 POP PUSH4 0x5F5E100 DUP2 DUP5 PUSH2 0x832 SWAP2 SWAP1 PUSH2 0xEE0 JUMP JUMPDEST PUSH2 0x83C SWAP2 SWAP1 PUSH2 0xF4E JUMP JUMPDEST SWAP2 POP POP SWAP2 SWAP1 POP JUMP JUMPDEST PUSH0 DUP1 REVERT JUMPDEST PUSH0 PUSH20 0xFFFFFFFFFFFFFFFFFFFFFFFFFFFFFFFFFFFFFFFF DUP3 AND SWAP1 POP SWAP2 SWAP1 POP JUMP JUMPDEST PUSH0 PUSH2 0x871 DUP3 PUSH2 0x848 JUMP JUMPDEST SWAP1 POP SWAP2 SWAP1 POP JUMP JUMPDEST PUSH2 0x881 DUP2 PUSH2 0x867 JUMP JUMPDEST DUP2 EQ PUSH2 0x88B JUMPI PUSH0 DUP1 REVERT JUMPDEST POP JUMP JUMPDEST PUSH0 DUP2 CALLDATALOAD SWAP1 POP PUSH2 0x89C DUP2 PUSH2 0x878 JUMP JUMPDEST SWAP3 SWAP2 POP POP JUMP JUMPDEST PUSH0 PUSH1 0x20 DUP3 DUP5 SUB SLT ISZERO PUSH2 0x8B7 JUMPI PUSH2 0x8B6 PUSH2 0x844 JUMP JUMPDEST JUMPDEST PUSH0 PUSH2 0x8C4 DUP5 DUP3 DUP6 ADD PUSH2 0x88E JUMP JUMPDEST SWAP2 POP POP SWAP3 SWAP2 POP POP JUMP JUMPDEST PUSH2 0x8D6 DUP2 PUSH2 0x867 JUMP JUMPDEST DUP3 MSTORE POP POP JUMP JUMPDEST PUSH0 PUSH1 0x20 DUP3 ADD SWAP1 POP PUSH2 0x8EF PUSH0 DUP4 ADD DUP5 PUSH2 0x8CD JUMP JUMPDEST SWAP3 SWAP2 POP POP JUMP JUMPDEST PUSH0 DUP2 SWAP1 POP SWAP2 SWAP1 POP JUMP JUMPDEST PUSH2 0x907 DUP2 PUSH2 0x8F5 JUMP JUMPDEST DUP3 MSTORE POP POP JUMP JUMPDEST PUSH0 PUSH1 0x20 DUP3 ADD SWAP1 POP PUSH2 0x920 PUSH0 DUP4 ADD DUP5 PUSH2 0x8FE JUMP JUMPDEST SWAP3 SWAP2 POP POP JUMP JUMPDEST PUSH0 DUP2 SWAP1 POP SWAP2 SWAP1 POP JUMP JUMPDEST PUSH2 0x938 DUP2 PUSH2 0x926 JUMP JUMPDEST DUP3 MSTORE POP POP JUMP JUMPDEST PUSH0 PUSH1 0x20 DUP3 ADD SWAP1 POP PUSH2 0x951 PUSH0 DUP4 ADD DUP5 PUSH2 0x92F JUMP JUMPDEST SWAP3 SWAP2 POP POP JUMP JUMPDEST PUSH0 DUP3 DUP3 MSTORE PUSH1 0x20 DUP3 ADD SWAP1 POP SWAP3 SWAP2 POP POP JUMP JUMPDEST PUSH32 0x596F75206E65656420746F2073656E64206D696E696D756D206F662031205553 PUSH0 DUP3 ADD MSTORE PUSH32 0x4421000000000000000000000000000000000000000000000000000000000000 PUSH1 0x20 DUP3 ADD MSTORE POP JUMP JUMPDEST PUSH0 PUSH2 0x9C1 PUSH1 0x22 DUP4 PUSH2 0x957 JUMP JUMPDEST SWAP2 POP PUSH2 0x9CC DUP3 PUSH2 0x967 JUMP JUMPDEST PUSH1 0x40 DUP3 ADD SWAP1 POP SWAP2 SWAP1 POP JUMP JUMPDEST PUSH0 PUSH1 0x20 DUP3 ADD SWAP1 POP DUP2 DUP2 SUB PUSH0 DUP4 ADD MSTORE PUSH2 0x9EE DUP2 PUSH2 0x9B5 JUMP JUMPDEST SWAP1 POP SWAP2 SWAP1 POP JUMP JUMPDEST PUSH32 0x4E487B7100000000000000000000000000000000000000000000000000000000 PUSH0 MSTORE PUSH1 0x11 PUSH1 0x4 MSTORE PUSH1 0x24 PUSH0 REVERT JUMPDEST PUSH0 PUSH2 0xA2C DUP3 PUSH2 0x8F5 JUMP JUMPDEST SWAP2 POP PUSH2 0xA37 DUP4 PUSH2 0x8F5 JUMP JUMPDEST SWAP3 POP DUP3 DUP3 ADD SWAP1 POP DUP1 DUP3 GT ISZERO PUSH2 0xA4F JUMPI PUSH2 0xA4E PUSH2 0x9F5 JUMP JUMPDEST JUMPDEST SWAP3 SWAP2 POP POP JUMP JUMPDEST PUSH32 0x54686973206F7065726174696F6E206973206E6F7420616C6C6F77656420696E PUSH0 DUP3 ADD MSTORE POP JUMP JUMPDEST PUSH0 PUSH2 0xA89 PUSH1 0x20 DUP4 PUSH2 0x957 JUMP JUMPDEST SWAP2 POP PUSH2 0xA94 DUP3 PUSH2 0xA55 JUMP JUMPDEST PUSH1 0x20 DUP3 ADD SWAP1 POP SWAP2 SWAP1 POP JUMP JUMPDEST PUSH0 PUSH1 0x20 DUP3 ADD SWAP1 POP DUP2 DUP2 SUB PUSH0 DUP4 ADD MSTORE PUSH2 0xAB6 DUP2 PUSH2 0xA7D JUMP JUMPDEST SWAP1 POP SWAP2 SWAP1 POP JUMP JUMPDEST PUSH32 0x596F7520617265206E6F74207468652063757272656E74206F776E6572210000 PUSH0 DUP3 ADD MSTORE POP JUMP JUMPDEST PUSH0 PUSH2 0xAF1 PUSH1 0x1E DUP4 PUSH2 0x957 JUMP JUMPDEST SWAP2 POP PUSH2 0xAFC DUP3 PUSH2 0xABD JUMP JUMPDEST PUSH1 0x20 DUP3 ADD SWAP1 POP SWAP2 SWAP1 POP JUMP JUMPDEST PUSH0 PUSH1 0x20 DUP3 ADD SWAP1 POP DUP2 DUP2 SUB PUSH0 DUP4 ADD MSTORE PUSH2 0xB1E DUP2 PUSH2 0xAE5 JUMP JUMPDEST SWAP1 POP SWAP2 SWAP1 POP JUMP JUMPDEST PUSH32 0x546869732066756E64206973206E6F7420636C6F736564000000000000000000 PUSH0 DUP3 ADD MSTORE POP JUMP JUMPDEST PUSH0 PUSH2 0xB59 PUSH1 0x17 DUP4 PUSH2 0x957 JUMP JUMPDEST SWAP2 POP PUSH2 0xB64 DUP3 PUSH2 0xB25 JUMP JUMPDEST PUSH1 0x20 DUP3 ADD SWAP1 POP SWAP2 SWAP1 POP JUMP JUMPDEST PUSH0 PUSH1 0x20 DUP3 ADD SWAP1 POP DUP2 DUP2 SUB PUSH0 DUP4 ADD MSTORE PUSH2 0xB86 DUP2 PUSH2 0xB4D JUMP JUMPDEST SWAP1 POP SWAP2 SWAP1 POP JUMP JUMPDEST PUSH32 0x54617267657420697320656E6F75676800000000000000000000000000000000 PUSH0 DUP3 ADD MSTORE POP JUMP JUMPDEST PUSH0 PUSH2 0xBC1 PUSH1 0x10 DUP4 PUSH2 0x957 JUMP JUMPDEST SWAP2 POP PUSH2 0xBCC DUP3 PUSH2 0xB8D JUMP JUMPDEST PUSH1 0x20 DUP3 ADD SWAP1 POP SWAP2 SWAP1 POP JUMP JUMPDEST PUSH0 PUSH1 0x20 DUP3 ADD SWAP1 POP DUP2 DUP2 SUB PUSH0 DUP4 ADD MSTORE PUSH2 0xBEE DUP2 PUSH2 0xBB5 JUMP JUMPDEST SWAP1 POP SWAP2 SWAP1 POP JUMP JUMPDEST PUSH32 0x596F7520646964206E6F742073656E6420616E792066756E6473210000000000 PUSH0 DUP3 ADD MSTORE POP JUMP JUMPDEST PUSH0 PUSH2 0xC29 PUSH1 0x1B DUP4 PUSH2 0x957 JUMP JUMPDEST SWAP2 POP PUSH2 0xC34 DUP3 PUSH2 0xBF5 JUMP JUMPDEST PUSH1 0x20 DUP3 ADD SWAP1 POP SWAP2 SWAP1 POP JUMP JUMPDEST PUSH0 PUSH1 0x20 DUP3 ADD SWAP1 POP DUP2 DUP2 SUB PUSH0 DUP4 ADD MSTORE PUSH2 0xC56 DUP2 PUSH2 0xC1D JUMP JUMPDEST SWAP1 POP SWAP2 SWAP1 POP JUMP JUMPDEST PUSH0 DUP2 SWAP1 POP SWAP3 SWAP2 POP POP JUMP JUMPDEST POP JUMP JUMPDEST PUSH0 PUSH2 0xC75 PUSH0 DUP4 PUSH2 0xC5D JUMP JUMPDEST SWAP2 POP PUSH2 0xC80 DUP3 PUSH2 0xC67 JUMP JUMPDEST PUSH0 DUP3 ADD SWAP1 POP SWAP2 SWAP1 POP JUMP JUMPDEST PUSH0 PUSH2 0xC94 DUP3 PUSH2 0xC6A JUMP JUMPDEST SWAP2 POP DUP2 SWAP1 POP SWAP2 SWAP1 POP JUMP JUMPDEST PUSH32 0x526566756E64206661696C656400000000000000000000000000000000000000 PUSH0 DUP3 ADD MSTORE POP JUMP JUMPDEST PUSH0 PUSH2 0xCD2 PUSH1 0xD DUP4 PUSH2 0x957 JUMP JUMPDEST SWAP2 POP PUSH2 0xCDD DUP3 PUSH2 0xC9E JUMP JUMPDEST PUSH1 0x20 DUP3 ADD SWAP1 POP SWAP2 SWAP1 POP JUMP JUMPDEST PUSH0 PUSH1 0x20 DUP3 ADD SWAP1 POP DUP2 DUP2 SUB PUSH0 DUP4 ADD MSTORE PUSH2 0xCFF DUP2 PUSH2 0xCC6 JUMP JUMPDEST SWAP1 POP SWAP2 SWAP1 POP JUMP JUMPDEST PUSH32 0x4E6F7420656E6F75676820313030302055534400000000000000000000000000 PUSH0 DUP3 ADD MSTORE POP JUMP JUMPDEST PUSH0 PUSH2 0xD3A PUSH1 0x13 DUP4 PUSH2 0x957 JUMP JUMPDEST SWAP2 POP PUSH2 0xD45 DUP3 PUSH2 0xD06 JUMP JUMPDEST PUSH1 0x20 DUP3 ADD SWAP1 POP SWAP2 SWAP1 POP JUMP JUMPDEST PUSH0 PUSH1 0x20 DUP3 ADD SWAP1 POP DUP2 DUP2 SUB PUSH0 DUP4 ADD MSTORE PUSH2 0xD67 DUP2 PUSH2 0xD2E JUMP JUMPDEST SWAP1 POP SWAP2 SWAP1 POP JUMP JUMPDEST PUSH32 0x5472616E7366657272696E67203130303020555344206661696C656400000000 PUSH0 DUP3 ADD MSTORE POP JUMP JUMPDEST PUSH0 PUSH2 0xDA2 PUSH1 0x1C DUP4 PUSH2 0x957 JUMP JUMPDEST SWAP2 POP PUSH2 0xDAD DUP3 PUSH2 0xD6E JUMP JUMPDEST PUSH1 0x20 DUP3 ADD SWAP1 POP SWAP2 SWAP1 POP JUMP JUMPDEST PUSH0 PUSH1 0x20 DUP3 ADD SWAP1 POP DUP2 DUP2 SUB PUSH0 DUP4 ADD MSTORE PUSH2 0xDCF DUP2 PUSH2 0xD96 JUMP JUMPDEST SWAP1 POP SWAP2 SWAP1 POP JUMP JUMPDEST PUSH0 PUSH10 0xFFFFFFFFFFFFFFFFFFFF DUP3 AND SWAP1 POP SWAP2 SWAP1 POP JUMP JUMPDEST PUSH2 0xDF4 DUP2 PUSH2 0xDD6 JUMP JUMPDEST DUP2 EQ PUSH2 0xDFE JUMPI PUSH0 DUP1 REVERT JUMPDEST POP JUMP JUMPDEST PUSH0 DUP2 MLOAD SWAP1 POP PUSH2 0xE0F DUP2 PUSH2 0xDEB JUMP JUMPDEST SWAP3 SWAP2 POP POP JUMP JUMPDEST PUSH2 0xE1E DUP2 PUSH2 0x926 JUMP JUMPDEST DUP2 EQ PUSH2 0xE28 JUMPI PUSH0 DUP1 REVERT JUMPDEST POP JUMP JUMPDEST PUSH0 DUP2 MLOAD SWAP1 POP PUSH2 0xE39 DUP2 PUSH2 0xE15 JUMP JUMPDEST SWAP3 SWAP2 POP POP JUMP JUMPDEST PUSH2 0xE48 DUP2 PUSH2 0x8F5 JUMP JUMPDEST DUP2 EQ PUSH2 0xE52 JUMPI PUSH0 DUP1 REVERT JUMPDEST POP JUMP JUMPDEST PUSH0 DUP2 MLOAD SWAP1 POP PUSH2 0xE63 DUP2 PUSH2 0xE3F JUMP JUMPDEST SWAP3 SWAP2 POP POP JUMP JUMPDEST PUSH0 DUP1 PUSH0 DUP1 PUSH0 PUSH1 0xA0 DUP7 DUP9 SUB SLT ISZERO PUSH2 0xE82 JUMPI PUSH2 0xE81 PUSH2 0x844 JUMP JUMPDEST JUMPDEST PUSH0 PUSH2 0xE8F DUP9 DUP3 DUP10 ADD PUSH2 0xE01 JUMP JUMPDEST SWAP6 POP POP PUSH1 0x20 PUSH2 0xEA0 DUP9 DUP3 DUP10 ADD PUSH2 0xE2B JUMP JUMPDEST SWAP5 POP POP PUSH1 0x40 PUSH2 0xEB1 DUP9 DUP3 DUP10 ADD PUSH2 0xE55 JUMP JUMPDEST SWAP4 POP POP PUSH1 0x60 PUSH2 0xEC2 DUP9 DUP3 DUP10 ADD PUSH2 0xE55 JUMP JUMPDEST SWAP3 POP POP PUSH1 0x80 PUSH2 0xED3 DUP9 DUP3 DUP10 ADD PUSH2 0xE01 JUMP JUMPDEST SWAP2 POP POP SWAP3 SWAP6 POP SWAP3 SWAP6 SWAP1 SWAP4 POP JUMP JUMPDEST PUSH0 PUSH2 0xEEA DUP3 PUSH2 0x8F5 JUMP JUMPDEST SWAP2 POP PUSH2 0xEF5 DUP4 PUSH2 0x8F5 JUMP JUMPDEST SWAP3 POP DUP3 DUP3 MUL PUSH2 0xF03 DUP2 PUSH2 0x8F5 JUMP JUMPDEST SWAP2 POP DUP3 DUP3 DIV DUP5 EQ DUP4 ISZERO OR PUSH2 0xF1A JUMPI PUSH2 0xF19 PUSH2 0x9F5 JUMP JUMPDEST JUMPDEST POP SWAP3 SWAP2 POP POP JUMP JUMPDEST PUSH32 0x4E487B7100000000000000000000000000000000000000000000000000000000 PUSH0 MSTORE PUSH1 0x12 PUSH1 0x4 MSTORE PUSH1 0x24 PUSH0 REVERT JUMPDEST PUSH0 PUSH2 0xF58 DUP3 PUSH2 0x8F5 JUMP JUMPDEST SWAP2 POP PUSH2 0xF63 DUP4 PUSH2 0x8F5 JUMP JUMPDEST SWAP3 POP DUP3 PUSH2 0xF73 JUMPI PUSH2 0xF72 PUSH2 0xF21 JUMP JUMPDEST JUMPDEST DUP3 DUP3 DIV SWAP1 POP SWAP3 SWAP2 POP POP JUMP INVALID LOG2 PUSH5 0x6970667358 0x22 SLT KECCAK256 EXTCODESIZE 0xB3 0xCC RETURNDATACOPY SWAP7 DUP5 RETURNDATASIZE NUMBER EQ SWAP3 0xC0 0xF REVERT PUSH28 0x3A8981F16B794AF84D6251BAF6EF0F0B1E0164736F6C634300081A00 CALLER "
				},
				"gasEstimates": {
					"creation": {
						"codeDepositCost": "804000",
						"executionCost": "infinite",
						"totalCost": "infinite"
					},
					"external": {
						"fundsAmount(address)": "2846",
						"getChainlinkDataFeedLatestAnswer()": "infinite",
						"getFund()": "infinite",
						"owner()": "2508",
						"pay()": "infinite",
						"refund()": "infinite",
						"transformerOwnership(address)": "26907"
					},
					"internal": {
						"EthToUsd(uint256)": "infinite"
					}
				},
				"methodIdentifiers": {
					"fundsAmount(address)": "a6f4e227",
					"getChainlinkDataFeedLatestAnswer()": "bea4dfb5",
					"getFund()": "8edd6eb6",
					"owner()": "8da5cb5b",
					"pay()": "1b9265b8",
					"refund()": "590e1ae3",
					"transformerOwnership(address)": "1ea62b0e"
				}
			},
			"storageLayout": {
				"storage": [
					{
						"astId": 56,
						"contract": "fundgme/fund.sol:fund_get",
						"label": "MINIMUN_VALUE",
						"offset": 0,
						"slot": "0",
						"type": "t_uint256"
					},
					{
						"astId": 59,
						"contract": "fundgme/fund.sol:fund_get",
						"label": "priceFeed",
						"offset": 0,
						"slot": "1",
						"type": "t_contract(AggregatorV3Interface)45"
					},
					{
						"astId": 63,
						"contract": "fundgme/fund.sol:fund_get",
						"label": "fundsAmount",
						"offset": 0,
						"slot": "2",
						"type": "t_mapping(t_address,t_uint256)"
					},
					{
						"astId": 72,
						"contract": "fundgme/fund.sol:fund_get",
						"label": "owner",
						"offset": 0,
						"slot": "3",
						"type": "t_address"
					},
					{
						"astId": 74,
						"contract": "fundgme/fund.sol:fund_get",
						"label": "deploymentTimestamp",
						"offset": 0,
						"slot": "4",
						"type": "t_uint256"
					},
					{
						"astId": 76,
						"contract": "fundgme/fund.sol:fund_get",
						"label": "lockTime",
						"offset": 0,
						"slot": "5",
						"type": "t_uint256"
					}
				],
				"types": {
					"t_address": {
						"encoding": "inplace",
						"label": "address",
						"numberOfBytes": "20"
					},
					"t_contract(AggregatorV3Interface)45": {
						"encoding": "inplace",
						"label": "contract AggregatorV3Interface",
						"numberOfBytes": "20"
					},
					"t_mapping(t_address,t_uint256)": {
						"encoding": "mapping",
						"key": "t_address",
						"label": "mapping(address => uint256)",
						"numberOfBytes": "32",
						"value": "t_uint256"
					},
					"t_uint256": {
						"encoding": "inplace",
						"label": "uint256",
						"numberOfBytes": "32"
					}
				}
			},
			"userdoc": {
				"kind": "user",
				"methods": {},
				"version": 1
			}
		}
	}
}