{
	"fundgme/fund.sol": {
		"fund_get": {
			"abi": [
				{
					"inputs": [],
					"stateMutability": "nonpayable",
					"type": "constructor"
				},
				{
					"inputs": [
						{
							"internalType": "address",
							"name": "",
							"type": "address"
						}
					],
					"name": "fundsAmount",
					"outputs": [
						{
							"internalType": "uint256",
							"name": "",
							"type": "uint256"
						}
					],
					"stateMutability": "view",
					"type": "function"
				},
				{
					"inputs": [],
					"name": "getChainlinkDataFeedLatestAnswer",
					"outputs": [
						{
							"internalType": "int256",
							"name": "",
							"type": "int256"
						}
					],
					"stateMutability": "view",
					"type": "function"
				},
				{
					"inputs": [],
					"name": "pay",
					"outputs": [],
					"stateMutability": "payable",
					"type": "function"
				}
			],
			"devdoc": {
				"kind": "dev",
				"methods": {},
				"version": 1
			},
			"evm": {
				"assembly": "    /* \"fundgme/fund.sol\":175:1230  contract fund_get{... */\n  mstore(0x40, 0x80)\n    /* \"fundgme/fund.sol\":223:234  0.01*10**18 */\n  0x2386f26fc10000\n    /* \"fundgme/fund.sol\":199:234  uint256 MINIMUN_VALUE = 0.01*10**18 */\n  0x00\n  sstore\n    /* \"fundgme/fund.sol\":350:478  constructor(){... */\n  callvalue\n  dup1\n  iszero\n  tag_1\n  jumpi\n  0x00\n  dup1\n  revert\ntag_1:\n  pop\n    /* \"fundgme/fund.sol\":427:469  0x694AA1769357215DE4FAC081bf1f309aDC325306 */\n  0x694aa1769357215de4fac081bf1f309adc325306\n    /* \"fundgme/fund.sol\":393:402  priceFeed */\n  0x01\n  0x00\n    /* \"fundgme/fund.sol\":393:470  priceFeed = AggregatorV3Interface(0x694AA1769357215DE4FAC081bf1f309aDC325306) */\n  0x0100\n  exp\n  dup2\n  sload\n  dup2\n  0xffffffffffffffffffffffffffffffffffffffff\n  mul\n  not\n  and\n  swap1\n  dup4\n  0xffffffffffffffffffffffffffffffffffffffff\n  and\n  mul\n  or\n  swap1\n  sstore\n  pop\n    /* \"fundgme/fund.sol\":175:1230  contract fund_get{... */\n  dataSize(sub_0)\n  dup1\n  dataOffset(sub_0)\n  0x00\n  codecopy\n  0x00\n  return\nstop\n\nsub_0: assembly {\n        /* \"fundgme/fund.sol\":175:1230  contract fund_get{... */\n      mstore(0x40, 0x80)\n      jumpi(tag_1, lt(calldatasize, 0x04))\n      shr(0xe0, calldataload(0x00))\n      dup1\n      0x1b9265b8\n      eq\n      tag_2\n      jumpi\n      dup1\n      0xa6f4e227\n      eq\n      tag_3\n      jumpi\n      dup1\n      0xbea4dfb5\n      eq\n      tag_4\n      jumpi\n    tag_1:\n      0x00\n      dup1\n      revert\n        /* \"fundgme/fund.sol\":486:665  function pay() external  payable { ... */\n    tag_2:\n      tag_5\n      tag_6\n      jump\t// in\n    tag_5:\n      stop\n        /* \"fundgme/fund.sol\":294:341  mapping (address => uint256) public fundsAmount */\n    tag_3:\n      callvalue\n      dup1\n      iszero\n      tag_7\n      jumpi\n      0x00\n      dup1\n      revert\n    tag_7:\n      pop\n      tag_8\n      0x04\n      dup1\n      calldatasize\n      sub\n      dup2\n      add\n      swap1\n      tag_9\n      swap2\n      swap1\n      tag_10\n      jump\t// in\n    tag_9:\n      tag_11\n      jump\t// in\n    tag_8:\n      mload(0x40)\n      tag_12\n      swap2\n      swap1\n      tag_13\n      jump\t// in\n    tag_12:\n      mload(0x40)\n      dup1\n      swap2\n      sub\n      swap1\n      return\n        /* \"fundgme/fund.sol\":674:1023  function getChainlinkDataFeedLatestAnswer() public view returns (int) {... */\n    tag_4:\n      callvalue\n      dup1\n      iszero\n      tag_14\n      jumpi\n      0x00\n      dup1\n      revert\n    tag_14:\n      pop\n      tag_15\n      tag_16\n      jump\t// in\n    tag_15:\n      mload(0x40)\n      tag_17\n      swap2\n      swap1\n      tag_18\n      jump\t// in\n    tag_17:\n      mload(0x40)\n      dup1\n      swap2\n      sub\n      swap1\n      return\n        /* \"fundgme/fund.sol\":486:665  function pay() external  payable { ... */\n    tag_6:\n        /* \"fundgme/fund.sol\":560:573  MINIMUN_VALUE */\n      sload(0x00)\n        /* \"fundgme/fund.sol\":539:558  EthToUsd(msg.value) */\n      tag_20\n        /* \"fundgme/fund.sol\":548:557  msg.value */\n      callvalue\n        /* \"fundgme/fund.sol\":539:547  EthToUsd */\n      tag_21\n        /* \"fundgme/fund.sol\":539:558  EthToUsd(msg.value) */\n      jump\t// in\n    tag_20:\n        /* \"fundgme/fund.sol\":539:573  EthToUsd(msg.value)>=MINIMUN_VALUE */\n      lt\n      iszero\n        /* \"fundgme/fund.sol\":531:611  require(EthToUsd(msg.value)>=MINIMUN_VALUE,\"You need to send minimum of 1 ETH!\") */\n      tag_22\n      jumpi\n      mload(0x40)\n      0x08c379a000000000000000000000000000000000000000000000000000000000\n      dup2\n      mstore\n      0x04\n      add\n      tag_23\n      swap1\n      tag_24\n      jump\t// in\n    tag_23:\n      mload(0x40)\n      dup1\n      swap2\n      sub\n      swap1\n      revert\n    tag_22:\n        /* \"fundgme/fund.sol\":648:657  msg.value */\n      callvalue\n        /* \"fundgme/fund.sol\":622:633  fundsAmount */\n      0x02\n        /* \"fundgme/fund.sol\":622:645  fundsAmount[msg.sender] */\n      0x00\n        /* \"fundgme/fund.sol\":634:644  msg.sender */\n      caller\n        /* \"fundgme/fund.sol\":622:645  fundsAmount[msg.sender] */\n      0xffffffffffffffffffffffffffffffffffffffff\n      and\n      0xffffffffffffffffffffffffffffffffffffffff\n      and\n      dup2\n      mstore\n      0x20\n      add\n      swap1\n      dup2\n      mstore\n      0x20\n      add\n      0x00\n      keccak256\n        /* \"fundgme/fund.sol\":622:657  fundsAmount[msg.sender] = msg.value */\n      dup2\n      swap1\n      sstore\n      pop\n        /* \"fundgme/fund.sol\":486:665  function pay() external  payable { ... */\n      jump\t// out\n        /* \"fundgme/fund.sol\":294:341  mapping (address => uint256) public fundsAmount */\n    tag_11:\n      mstore(0x20, 0x02)\n      dup1\n      0x00\n      mstore\n      keccak256(0x00, 0x40)\n      0x00\n      swap2\n      pop\n      swap1\n      pop\n      sload\n      dup2\n      jump\t// out\n        /* \"fundgme/fund.sol\":674:1023  function getChainlinkDataFeedLatestAnswer() public view returns (int) {... */\n    tag_16:\n        /* \"fundgme/fund.sol\":739:742  int */\n      0x00\n        /* \"fundgme/fund.sol\":833:843  int answer */\n      dup1\n        /* \"fundgme/fund.sol\":964:973  priceFeed */\n      0x01\n      0x00\n      swap1\n      sload\n      swap1\n      0x0100\n      exp\n      swap1\n      div\n      0xffffffffffffffffffffffffffffffffffffffff\n      and\n        /* \"fundgme/fund.sol\":964:989  priceFeed.latestRoundData */\n      0xffffffffffffffffffffffffffffffffffffffff\n      and\n      0xfeaf968c\n        /* \"fundgme/fund.sol\":964:991  priceFeed.latestRoundData() */\n      mload(0x40)\n      dup2\n      0xffffffff\n      and\n      0xe0\n      shl\n      dup2\n      mstore\n      0x04\n      add\n      0xa0\n      mload(0x40)\n      dup1\n      dup4\n      sub\n      dup2\n      dup7\n      gas\n      staticcall\n      iszero\n      dup1\n      iszero\n      tag_27\n      jumpi\n      returndatasize\n      0x00\n      dup1\n      returndatacopy\n      revert(0x00, returndatasize)\n    tag_27:\n      pop\n      pop\n      pop\n      pop\n      mload(0x40)\n      returndatasize\n      not(0x1f)\n      0x1f\n      dup3\n      add\n      and\n      dup3\n      add\n      dup1\n      0x40\n      mstore\n      pop\n      dup2\n      add\n      swap1\n      tag_28\n      swap2\n      swap1\n      tag_29\n      jump\t// in\n    tag_28:\n        /* \"fundgme/fund.sol\":783:991  (... */\n      pop\n      pop\n      pop\n      swap2\n      pop\n      pop\n        /* \"fundgme/fund.sol\":1009:1015  answer */\n      dup1\n        /* \"fundgme/fund.sol\":1002:1015  return answer */\n      swap2\n      pop\n      pop\n        /* \"fundgme/fund.sol\":674:1023  function getChainlinkDataFeedLatestAnswer() public view returns (int) {... */\n      swap1\n      jump\t// out\n        /* \"fundgme/fund.sol\":1031:1227  function EthToUsd(uint256 ethAmount) internal view returns(uint256){... */\n    tag_21:\n        /* \"fundgme/fund.sol\":1090:1097  uint256 */\n      0x00\n        /* \"fundgme/fund.sol\":1109:1125  uint256 ethPrice */\n      dup1\n        /* \"fundgme/fund.sol\":1136:1170  getChainlinkDataFeedLatestAnswer() */\n      tag_31\n        /* \"fundgme/fund.sol\":1136:1168  getChainlinkDataFeedLatestAnswer */\n      tag_16\n        /* \"fundgme/fund.sol\":1136:1170  getChainlinkDataFeedLatestAnswer() */\n      jump\t// in\n    tag_31:\n        /* \"fundgme/fund.sol\":1109:1171  uint256 ethPrice = uint256(getChainlinkDataFeedLatestAnswer()) */\n      swap1\n      pop\n        /* \"fundgme/fund.sol\":1213:1218  10**8 */\n      0x05f5e100\n        /* \"fundgme/fund.sol\":1201:1209  ethPrice */\n      dup2\n        /* \"fundgme/fund.sol\":1189:1198  ethAmount */\n      dup5\n        /* \"fundgme/fund.sol\":1189:1209  ethAmount * ethPrice */\n      tag_32\n      swap2\n      swap1\n      tag_33\n      jump\t// in\n    tag_32:\n        /* \"fundgme/fund.sol\":1189:1219  ethAmount * ethPrice / (10**8) */\n      tag_34\n      swap2\n      swap1\n      tag_35\n      jump\t// in\n    tag_34:\n        /* \"fundgme/fund.sol\":1182:1219  return ethAmount * ethPrice / (10**8) */\n      swap2\n      pop\n      pop\n        /* \"fundgme/fund.sol\":1031:1227  function EthToUsd(uint256 ethAmount) internal view returns(uint256){... */\n      swap2\n      swap1\n      pop\n      jump\t// out\n        /* \"#utility.yul\":88:205   */\n    tag_37:\n        /* \"#utility.yul\":197:198   */\n      0x00\n        /* \"#utility.yul\":194:195   */\n      dup1\n        /* \"#utility.yul\":187:199   */\n      revert\n        /* \"#utility.yul\":334:460   */\n    tag_39:\n        /* \"#utility.yul\":371:378   */\n      0x00\n        /* \"#utility.yul\":411:453   */\n      0xffffffffffffffffffffffffffffffffffffffff\n        /* \"#utility.yul\":404:409   */\n      dup3\n        /* \"#utility.yul\":400:454   */\n      and\n        /* \"#utility.yul\":389:454   */\n      swap1\n      pop\n        /* \"#utility.yul\":334:460   */\n      swap2\n      swap1\n      pop\n      jump\t// out\n        /* \"#utility.yul\":466:562   */\n    tag_40:\n        /* \"#utility.yul\":503:510   */\n      0x00\n        /* \"#utility.yul\":532:556   */\n      tag_65\n        /* \"#utility.yul\":550:555   */\n      dup3\n        /* \"#utility.yul\":532:556   */\n      tag_39\n      jump\t// in\n    tag_65:\n        /* \"#utility.yul\":521:556   */\n      swap1\n      pop\n        /* \"#utility.yul\":466:562   */\n      swap2\n      swap1\n      pop\n      jump\t// out\n        /* \"#utility.yul\":568:690   */\n    tag_41:\n        /* \"#utility.yul\":641:665   */\n      tag_67\n        /* \"#utility.yul\":659:664   */\n      dup2\n        /* \"#utility.yul\":641:665   */\n      tag_40\n      jump\t// in\n    tag_67:\n        /* \"#utility.yul\":634:639   */\n      dup2\n        /* \"#utility.yul\":631:666   */\n      eq\n        /* \"#utility.yul\":621:684   */\n      tag_68\n      jumpi\n        /* \"#utility.yul\":680:681   */\n      0x00\n        /* \"#utility.yul\":677:678   */\n      dup1\n        /* \"#utility.yul\":670:682   */\n      revert\n        /* \"#utility.yul\":621:684   */\n    tag_68:\n        /* \"#utility.yul\":568:690   */\n      pop\n      jump\t// out\n        /* \"#utility.yul\":696:835   */\n    tag_42:\n        /* \"#utility.yul\":742:747   */\n      0x00\n        /* \"#utility.yul\":780:786   */\n      dup2\n        /* \"#utility.yul\":767:787   */\n      calldataload\n        /* \"#utility.yul\":758:787   */\n      swap1\n      pop\n        /* \"#utility.yul\":796:829   */\n      tag_70\n        /* \"#utility.yul\":823:828   */\n      dup2\n        /* \"#utility.yul\":796:829   */\n      tag_41\n      jump\t// in\n    tag_70:\n        /* \"#utility.yul\":696:835   */\n      swap3\n      swap2\n      pop\n      pop\n      jump\t// out\n        /* \"#utility.yul\":841:1170   */\n    tag_10:\n        /* \"#utility.yul\":900:906   */\n      0x00\n        /* \"#utility.yul\":949:951   */\n      0x20\n        /* \"#utility.yul\":937:946   */\n      dup3\n        /* \"#utility.yul\":928:935   */\n      dup5\n        /* \"#utility.yul\":924:947   */\n      sub\n        /* \"#utility.yul\":920:952   */\n      slt\n        /* \"#utility.yul\":917:1036   */\n      iszero\n      tag_72\n      jumpi\n        /* \"#utility.yul\":955:1034   */\n      tag_73\n      tag_37\n      jump\t// in\n    tag_73:\n        /* \"#utility.yul\":917:1036   */\n    tag_72:\n        /* \"#utility.yul\":1075:1076   */\n      0x00\n        /* \"#utility.yul\":1100:1153   */\n      tag_74\n        /* \"#utility.yul\":1145:1152   */\n      dup5\n        /* \"#utility.yul\":1136:1142   */\n      dup3\n        /* \"#utility.yul\":1125:1134   */\n      dup6\n        /* \"#utility.yul\":1121:1143   */\n      add\n        /* \"#utility.yul\":1100:1153   */\n      tag_42\n      jump\t// in\n    tag_74:\n        /* \"#utility.yul\":1090:1153   */\n      swap2\n      pop\n        /* \"#utility.yul\":1046:1163   */\n      pop\n        /* \"#utility.yul\":841:1170   */\n      swap3\n      swap2\n      pop\n      pop\n      jump\t// out\n        /* \"#utility.yul\":1176:1253   */\n    tag_43:\n        /* \"#utility.yul\":1213:1220   */\n      0x00\n        /* \"#utility.yul\":1242:1247   */\n      dup2\n        /* \"#utility.yul\":1231:1247   */\n      swap1\n      pop\n        /* \"#utility.yul\":1176:1253   */\n      swap2\n      swap1\n      pop\n      jump\t// out\n        /* \"#utility.yul\":1259:1377   */\n    tag_44:\n        /* \"#utility.yul\":1346:1370   */\n      tag_77\n        /* \"#utility.yul\":1364:1369   */\n      dup2\n        /* \"#utility.yul\":1346:1370   */\n      tag_43\n      jump\t// in\n    tag_77:\n        /* \"#utility.yul\":1341:1344   */\n      dup3\n        /* \"#utility.yul\":1334:1371   */\n      mstore\n        /* \"#utility.yul\":1259:1377   */\n      pop\n      pop\n      jump\t// out\n        /* \"#utility.yul\":1383:1605   */\n    tag_13:\n        /* \"#utility.yul\":1476:1480   */\n      0x00\n        /* \"#utility.yul\":1514:1516   */\n      0x20\n        /* \"#utility.yul\":1503:1512   */\n      dup3\n        /* \"#utility.yul\":1499:1517   */\n      add\n        /* \"#utility.yul\":1491:1517   */\n      swap1\n      pop\n        /* \"#utility.yul\":1527:1598   */\n      tag_79\n        /* \"#utility.yul\":1595:1596   */\n      0x00\n        /* \"#utility.yul\":1584:1593   */\n      dup4\n        /* \"#utility.yul\":1580:1597   */\n      add\n        /* \"#utility.yul\":1571:1577   */\n      dup5\n        /* \"#utility.yul\":1527:1598   */\n      tag_44\n      jump\t// in\n    tag_79:\n        /* \"#utility.yul\":1383:1605   */\n      swap3\n      swap2\n      pop\n      pop\n      jump\t// out\n        /* \"#utility.yul\":1611:1687   */\n    tag_45:\n        /* \"#utility.yul\":1647:1654   */\n      0x00\n        /* \"#utility.yul\":1676:1681   */\n      dup2\n        /* \"#utility.yul\":1665:1681   */\n      swap1\n      pop\n        /* \"#utility.yul\":1611:1687   */\n      swap2\n      swap1\n      pop\n      jump\t// out\n        /* \"#utility.yul\":1693:1808   */\n    tag_46:\n        /* \"#utility.yul\":1778:1801   */\n      tag_82\n        /* \"#utility.yul\":1795:1800   */\n      dup2\n        /* \"#utility.yul\":1778:1801   */\n      tag_45\n      jump\t// in\n    tag_82:\n        /* \"#utility.yul\":1773:1776   */\n      dup3\n        /* \"#utility.yul\":1766:1802   */\n      mstore\n        /* \"#utility.yul\":1693:1808   */\n      pop\n      pop\n      jump\t// out\n        /* \"#utility.yul\":1814:2032   */\n    tag_18:\n        /* \"#utility.yul\":1905:1909   */\n      0x00\n        /* \"#utility.yul\":1943:1945   */\n      0x20\n        /* \"#utility.yul\":1932:1941   */\n      dup3\n        /* \"#utility.yul\":1928:1946   */\n      add\n        /* \"#utility.yul\":1920:1946   */\n      swap1\n      pop\n        /* \"#utility.yul\":1956:2025   */\n      tag_84\n        /* \"#utility.yul\":2022:2023   */\n      0x00\n        /* \"#utility.yul\":2011:2020   */\n      dup4\n        /* \"#utility.yul\":2007:2024   */\n      add\n        /* \"#utility.yul\":1998:2004   */\n      dup5\n        /* \"#utility.yul\":1956:2025   */\n      tag_46\n      jump\t// in\n    tag_84:\n        /* \"#utility.yul\":1814:2032   */\n      swap3\n      swap2\n      pop\n      pop\n      jump\t// out\n        /* \"#utility.yul\":2038:2207   */\n    tag_47:\n        /* \"#utility.yul\":2122:2133   */\n      0x00\n        /* \"#utility.yul\":2156:2162   */\n      dup3\n        /* \"#utility.yul\":2151:2154   */\n      dup3\n        /* \"#utility.yul\":2144:2163   */\n      mstore\n        /* \"#utility.yul\":2196:2200   */\n      0x20\n        /* \"#utility.yul\":2191:2194   */\n      dup3\n        /* \"#utility.yul\":2187:2201   */\n      add\n        /* \"#utility.yul\":2172:2201   */\n      swap1\n      pop\n        /* \"#utility.yul\":2038:2207   */\n      swap3\n      swap2\n      pop\n      pop\n      jump\t// out\n        /* \"#utility.yul\":2213:2434   */\n    tag_48:\n        /* \"#utility.yul\":2353:2387   */\n      0x596f75206e65656420746f2073656e64206d696e696d756d206f662031204554\n        /* \"#utility.yul\":2349:2350   */\n      0x00\n        /* \"#utility.yul\":2341:2347   */\n      dup3\n        /* \"#utility.yul\":2337:2351   */\n      add\n        /* \"#utility.yul\":2330:2388   */\n      mstore\n        /* \"#utility.yul\":2422:2426   */\n      0x4821000000000000000000000000000000000000000000000000000000000000\n        /* \"#utility.yul\":2417:2419   */\n      0x20\n        /* \"#utility.yul\":2409:2415   */\n      dup3\n        /* \"#utility.yul\":2405:2420   */\n      add\n        /* \"#utility.yul\":2398:2427   */\n      mstore\n        /* \"#utility.yul\":2213:2434   */\n      pop\n      jump\t// out\n        /* \"#utility.yul\":2440:2806   */\n    tag_49:\n        /* \"#utility.yul\":2582:2585   */\n      0x00\n        /* \"#utility.yul\":2603:2670   */\n      tag_88\n        /* \"#utility.yul\":2667:2669   */\n      0x22\n        /* \"#utility.yul\":2662:2665   */\n      dup4\n        /* \"#utility.yul\":2603:2670   */\n      tag_47\n      jump\t// in\n    tag_88:\n        /* \"#utility.yul\":2596:2670   */\n      swap2\n      pop\n        /* \"#utility.yul\":2679:2772   */\n      tag_89\n        /* \"#utility.yul\":2768:2771   */\n      dup3\n        /* \"#utility.yul\":2679:2772   */\n      tag_48\n      jump\t// in\n    tag_89:\n        /* \"#utility.yul\":2797:2799   */\n      0x40\n        /* \"#utility.yul\":2792:2795   */\n      dup3\n        /* \"#utility.yul\":2788:2800   */\n      add\n        /* \"#utility.yul\":2781:2800   */\n      swap1\n      pop\n        /* \"#utility.yul\":2440:2806   */\n      swap2\n      swap1\n      pop\n      jump\t// out\n        /* \"#utility.yul\":2812:3231   */\n    tag_24:\n        /* \"#utility.yul\":2978:2982   */\n      0x00\n        /* \"#utility.yul\":3016:3018   */\n      0x20\n        /* \"#utility.yul\":3005:3014   */\n      dup3\n        /* \"#utility.yul\":3001:3019   */\n      add\n        /* \"#utility.yul\":2993:3019   */\n      swap1\n      pop\n        /* \"#utility.yul\":3065:3074   */\n      dup2\n        /* \"#utility.yul\":3059:3063   */\n      dup2\n        /* \"#utility.yul\":3055:3075   */\n      sub\n        /* \"#utility.yul\":3051:3052   */\n      0x00\n        /* \"#utility.yul\":3040:3049   */\n      dup4\n        /* \"#utility.yul\":3036:3053   */\n      add\n        /* \"#utility.yul\":3029:3076   */\n      mstore\n        /* \"#utility.yul\":3093:3224   */\n      tag_91\n        /* \"#utility.yul\":3219:3223   */\n      dup2\n        /* \"#utility.yul\":3093:3224   */\n      tag_49\n      jump\t// in\n    tag_91:\n        /* \"#utility.yul\":3085:3224   */\n      swap1\n      pop\n        /* \"#utility.yul\":2812:3231   */\n      swap2\n      swap1\n      pop\n      jump\t// out\n        /* \"#utility.yul\":3237:3342   */\n    tag_50:\n        /* \"#utility.yul\":3273:3280   */\n      0x00\n        /* \"#utility.yul\":3313:3335   */\n      0xffffffffffffffffffff\n        /* \"#utility.yul\":3306:3311   */\n      dup3\n        /* \"#utility.yul\":3302:3336   */\n      and\n        /* \"#utility.yul\":3291:3336   */\n      swap1\n      pop\n        /* \"#utility.yul\":3237:3342   */\n      swap2\n      swap1\n      pop\n      jump\t// out\n        /* \"#utility.yul\":3348:3468   */\n    tag_51:\n        /* \"#utility.yul\":3420:3443   */\n      tag_94\n        /* \"#utility.yul\":3437:3442   */\n      dup2\n        /* \"#utility.yul\":3420:3443   */\n      tag_50\n      jump\t// in\n    tag_94:\n        /* \"#utility.yul\":3413:3418   */\n      dup2\n        /* \"#utility.yul\":3410:3444   */\n      eq\n        /* \"#utility.yul\":3400:3462   */\n      tag_95\n      jumpi\n        /* \"#utility.yul\":3458:3459   */\n      0x00\n        /* \"#utility.yul\":3455:3456   */\n      dup1\n        /* \"#utility.yul\":3448:3460   */\n      revert\n        /* \"#utility.yul\":3400:3462   */\n    tag_95:\n        /* \"#utility.yul\":3348:3468   */\n      pop\n      jump\t// out\n        /* \"#utility.yul\":3474:3615   */\n    tag_52:\n        /* \"#utility.yul\":3530:3535   */\n      0x00\n        /* \"#utility.yul\":3561:3567   */\n      dup2\n        /* \"#utility.yul\":3555:3568   */\n      mload\n        /* \"#utility.yul\":3546:3568   */\n      swap1\n      pop\n        /* \"#utility.yul\":3577:3609   */\n      tag_97\n        /* \"#utility.yul\":3603:3608   */\n      dup2\n        /* \"#utility.yul\":3577:3609   */\n      tag_51\n      jump\t// in\n    tag_97:\n        /* \"#utility.yul\":3474:3615   */\n      swap3\n      swap2\n      pop\n      pop\n      jump\t// out\n        /* \"#utility.yul\":3621:3741   */\n    tag_53:\n        /* \"#utility.yul\":3693:3716   */\n      tag_99\n        /* \"#utility.yul\":3710:3715   */\n      dup2\n        /* \"#utility.yul\":3693:3716   */\n      tag_45\n      jump\t// in\n    tag_99:\n        /* \"#utility.yul\":3686:3691   */\n      dup2\n        /* \"#utility.yul\":3683:3717   */\n      eq\n        /* \"#utility.yul\":3673:3735   */\n      tag_100\n      jumpi\n        /* \"#utility.yul\":3731:3732   */\n      0x00\n        /* \"#utility.yul\":3728:3729   */\n      dup1\n        /* \"#utility.yul\":3721:3733   */\n      revert\n        /* \"#utility.yul\":3673:3735   */\n    tag_100:\n        /* \"#utility.yul\":3621:3741   */\n      pop\n      jump\t// out\n        /* \"#utility.yul\":3747:3888   */\n    tag_54:\n        /* \"#utility.yul\":3803:3808   */\n      0x00\n        /* \"#utility.yul\":3834:3840   */\n      dup2\n        /* \"#utility.yul\":3828:3841   */\n      mload\n        /* \"#utility.yul\":3819:3841   */\n      swap1\n      pop\n        /* \"#utility.yul\":3850:3882   */\n      tag_102\n        /* \"#utility.yul\":3876:3881   */\n      dup2\n        /* \"#utility.yul\":3850:3882   */\n      tag_53\n      jump\t// in\n    tag_102:\n        /* \"#utility.yul\":3747:3888   */\n      swap3\n      swap2\n      pop\n      pop\n      jump\t// out\n        /* \"#utility.yul\":3894:4016   */\n    tag_55:\n        /* \"#utility.yul\":3967:3991   */\n      tag_104\n        /* \"#utility.yul\":3985:3990   */\n      dup2\n        /* \"#utility.yul\":3967:3991   */\n      tag_43\n      jump\t// in\n    tag_104:\n        /* \"#utility.yul\":3960:3965   */\n      dup2\n        /* \"#utility.yul\":3957:3992   */\n      eq\n        /* \"#utility.yul\":3947:4010   */\n      tag_105\n      jumpi\n        /* \"#utility.yul\":4006:4007   */\n      0x00\n        /* \"#utility.yul\":4003:4004   */\n      dup1\n        /* \"#utility.yul\":3996:4008   */\n      revert\n        /* \"#utility.yul\":3947:4010   */\n    tag_105:\n        /* \"#utility.yul\":3894:4016   */\n      pop\n      jump\t// out\n        /* \"#utility.yul\":4022:4165   */\n    tag_56:\n        /* \"#utility.yul\":4079:4084   */\n      0x00\n        /* \"#utility.yul\":4110:4116   */\n      dup2\n        /* \"#utility.yul\":4104:4117   */\n      mload\n        /* \"#utility.yul\":4095:4117   */\n      swap1\n      pop\n        /* \"#utility.yul\":4126:4159   */\n      tag_107\n        /* \"#utility.yul\":4153:4158   */\n      dup2\n        /* \"#utility.yul\":4126:4159   */\n      tag_55\n      jump\t// in\n    tag_107:\n        /* \"#utility.yul\":4022:4165   */\n      swap3\n      swap2\n      pop\n      pop\n      jump\t// out\n        /* \"#utility.yul\":4171:5142   */\n    tag_29:\n        /* \"#utility.yul\":4274:4280   */\n      0x00\n        /* \"#utility.yul\":4282:4288   */\n      dup1\n        /* \"#utility.yul\":4290:4296   */\n      0x00\n        /* \"#utility.yul\":4298:4304   */\n      dup1\n        /* \"#utility.yul\":4306:4312   */\n      0x00\n        /* \"#utility.yul\":4355:4358   */\n      0xa0\n        /* \"#utility.yul\":4343:4352   */\n      dup7\n        /* \"#utility.yul\":4334:4341   */\n      dup9\n        /* \"#utility.yul\":4330:4353   */\n      sub\n        /* \"#utility.yul\":4326:4359   */\n      slt\n        /* \"#utility.yul\":4323:4443   */\n      iszero\n      tag_109\n      jumpi\n        /* \"#utility.yul\":4362:4441   */\n      tag_110\n      tag_37\n      jump\t// in\n    tag_110:\n        /* \"#utility.yul\":4323:4443   */\n    tag_109:\n        /* \"#utility.yul\":4482:4483   */\n      0x00\n        /* \"#utility.yul\":4507:4570   */\n      tag_111\n        /* \"#utility.yul\":4562:4569   */\n      dup9\n        /* \"#utility.yul\":4553:4559   */\n      dup3\n        /* \"#utility.yul\":4542:4551   */\n      dup10\n        /* \"#utility.yul\":4538:4560   */\n      add\n        /* \"#utility.yul\":4507:4570   */\n      tag_52\n      jump\t// in\n    tag_111:\n        /* \"#utility.yul\":4497:4570   */\n      swap6\n      pop\n        /* \"#utility.yul\":4453:4580   */\n      pop\n        /* \"#utility.yul\":4619:4621   */\n      0x20\n        /* \"#utility.yul\":4645:4708   */\n      tag_112\n        /* \"#utility.yul\":4700:4707   */\n      dup9\n        /* \"#utility.yul\":4691:4697   */\n      dup3\n        /* \"#utility.yul\":4680:4689   */\n      dup10\n        /* \"#utility.yul\":4676:4698   */\n      add\n        /* \"#utility.yul\":4645:4708   */\n      tag_54\n      jump\t// in\n    tag_112:\n        /* \"#utility.yul\":4635:4708   */\n      swap5\n      pop\n        /* \"#utility.yul\":4590:4718   */\n      pop\n        /* \"#utility.yul\":4757:4759   */\n      0x40\n        /* \"#utility.yul\":4783:4847   */\n      tag_113\n        /* \"#utility.yul\":4839:4846   */\n      dup9\n        /* \"#utility.yul\":4830:4836   */\n      dup3\n        /* \"#utility.yul\":4819:4828   */\n      dup10\n        /* \"#utility.yul\":4815:4837   */\n      add\n        /* \"#utility.yul\":4783:4847   */\n      tag_56\n      jump\t// in\n    tag_113:\n        /* \"#utility.yul\":4773:4847   */\n      swap4\n      pop\n        /* \"#utility.yul\":4728:4857   */\n      pop\n        /* \"#utility.yul\":4896:4898   */\n      0x60\n        /* \"#utility.yul\":4922:4986   */\n      tag_114\n        /* \"#utility.yul\":4978:4985   */\n      dup9\n        /* \"#utility.yul\":4969:4975   */\n      dup3\n        /* \"#utility.yul\":4958:4967   */\n      dup10\n        /* \"#utility.yul\":4954:4976   */\n      add\n        /* \"#utility.yul\":4922:4986   */\n      tag_56\n      jump\t// in\n    tag_114:\n        /* \"#utility.yul\":4912:4986   */\n      swap3\n      pop\n        /* \"#utility.yul\":4867:4996   */\n      pop\n        /* \"#utility.yul\":5035:5038   */\n      0x80\n        /* \"#utility.yul\":5062:5125   */\n      tag_115\n        /* \"#utility.yul\":5117:5124   */\n      dup9\n        /* \"#utility.yul\":5108:5114   */\n      dup3\n        /* \"#utility.yul\":5097:5106   */\n      dup10\n        /* \"#utility.yul\":5093:5115   */\n      add\n        /* \"#utility.yul\":5062:5125   */\n      tag_52\n      jump\t// in\n    tag_115:\n        /* \"#utility.yul\":5052:5125   */\n      swap2\n      pop\n        /* \"#utility.yul\":5006:5135   */\n      pop\n        /* \"#utility.yul\":4171:5142   */\n      swap3\n      swap6\n      pop\n      swap3\n      swap6\n      swap1\n      swap4\n      pop\n      jump\t// out\n        /* \"#utility.yul\":5148:5328   */\n    tag_57:\n        /* \"#utility.yul\":5196:5273   */\n      0x4e487b7100000000000000000000000000000000000000000000000000000000\n        /* \"#utility.yul\":5193:5194   */\n      0x00\n        /* \"#utility.yul\":5186:5274   */\n      mstore\n        /* \"#utility.yul\":5293:5297   */\n      0x11\n        /* \"#utility.yul\":5290:5291   */\n      0x04\n        /* \"#utility.yul\":5283:5298   */\n      mstore\n        /* \"#utility.yul\":5317:5321   */\n      0x24\n        /* \"#utility.yul\":5314:5315   */\n      0x00\n        /* \"#utility.yul\":5307:5322   */\n      revert\n        /* \"#utility.yul\":5334:5744   */\n    tag_33:\n        /* \"#utility.yul\":5374:5381   */\n      0x00\n        /* \"#utility.yul\":5397:5417   */\n      tag_118\n        /* \"#utility.yul\":5415:5416   */\n      dup3\n        /* \"#utility.yul\":5397:5417   */\n      tag_43\n      jump\t// in\n    tag_118:\n        /* \"#utility.yul\":5392:5417   */\n      swap2\n      pop\n        /* \"#utility.yul\":5431:5451   */\n      tag_119\n        /* \"#utility.yul\":5449:5450   */\n      dup4\n        /* \"#utility.yul\":5431:5451   */\n      tag_43\n      jump\t// in\n    tag_119:\n        /* \"#utility.yul\":5426:5451   */\n      swap3\n      pop\n        /* \"#utility.yul\":5486:5487   */\n      dup3\n        /* \"#utility.yul\":5483:5484   */\n      dup3\n        /* \"#utility.yul\":5479:5488   */\n      mul\n        /* \"#utility.yul\":5508:5538   */\n      tag_120\n        /* \"#utility.yul\":5526:5537   */\n      dup2\n        /* \"#utility.yul\":5508:5538   */\n      tag_43\n      jump\t// in\n    tag_120:\n        /* \"#utility.yul\":5497:5538   */\n      swap2\n      pop\n        /* \"#utility.yul\":5687:5688   */\n      dup3\n        /* \"#utility.yul\":5678:5685   */\n      dup3\n        /* \"#utility.yul\":5674:5689   */\n      div\n        /* \"#utility.yul\":5671:5672   */\n      dup5\n        /* \"#utility.yul\":5668:5690   */\n      eq\n        /* \"#utility.yul\":5648:5649   */\n      dup4\n        /* \"#utility.yul\":5641:5650   */\n      iszero\n        /* \"#utility.yul\":5621:5704   */\n      or\n        /* \"#utility.yul\":5598:5737   */\n      tag_121\n      jumpi\n        /* \"#utility.yul\":5717:5735   */\n      tag_122\n      tag_57\n      jump\t// in\n    tag_122:\n        /* \"#utility.yul\":5598:5737   */\n    tag_121:\n        /* \"#utility.yul\":5382:5744   */\n      pop\n        /* \"#utility.yul\":5334:5744   */\n      swap3\n      swap2\n      pop\n      pop\n      jump\t// out\n        /* \"#utility.yul\":5750:5930   */\n    tag_58:\n        /* \"#utility.yul\":5798:5875   */\n      0x4e487b7100000000000000000000000000000000000000000000000000000000\n        /* \"#utility.yul\":5795:5796   */\n      0x00\n        /* \"#utility.yul\":5788:5876   */\n      mstore\n        /* \"#utility.yul\":5895:5899   */\n      0x12\n        /* \"#utility.yul\":5892:5893   */\n      0x04\n        /* \"#utility.yul\":5885:5900   */\n      mstore\n        /* \"#utility.yul\":5919:5923   */\n      0x24\n        /* \"#utility.yul\":5916:5917   */\n      0x00\n        /* \"#utility.yul\":5909:5924   */\n      revert\n        /* \"#utility.yul\":5936:6121   */\n    tag_35:\n        /* \"#utility.yul\":5976:5977   */\n      0x00\n        /* \"#utility.yul\":5993:6013   */\n      tag_125\n        /* \"#utility.yul\":6011:6012   */\n      dup3\n        /* \"#utility.yul\":5993:6013   */\n      tag_43\n      jump\t// in\n    tag_125:\n        /* \"#utility.yul\":5988:6013   */\n      swap2\n      pop\n        /* \"#utility.yul\":6027:6047   */\n      tag_126\n        /* \"#utility.yul\":6045:6046   */\n      dup4\n        /* \"#utility.yul\":6027:6047   */\n      tag_43\n      jump\t// in\n    tag_126:\n        /* \"#utility.yul\":6022:6047   */\n      swap3\n      pop\n        /* \"#utility.yul\":6066:6067   */\n      dup3\n        /* \"#utility.yul\":6056:6091   */\n      tag_127\n      jumpi\n        /* \"#utility.yul\":6071:6089   */\n      tag_128\n      tag_58\n      jump\t// in\n    tag_128:\n        /* \"#utility.yul\":6056:6091   */\n    tag_127:\n        /* \"#utility.yul\":6113:6114   */\n      dup3\n        /* \"#utility.yul\":6110:6111   */\n      dup3\n        /* \"#utility.yul\":6106:6115   */\n      div\n        /* \"#utility.yul\":6101:6115   */\n      swap1\n      pop\n        /* \"#utility.yul\":5936:6121   */\n      swap3\n      swap2\n      pop\n      pop\n      jump\t// out\n\n    auxdata: 0xa2646970667358221220e5863828fdcf3bb8c860101c04725b8d5085286ea20323066a7c66e5872f390164736f6c634300081a0033\n}\n",
				"bytecode": {
					"linkReferences": {},
					"object": "6080604052662386f26fc100005f553480156018575f80fd5b5073694aa1769357215de4fac081bf1f309adc32530660015f6101000a81548173ffffffffffffffffffffffffffffffffffffffff021916908373ffffffffffffffffffffffffffffffffffffffff1602179055506105ac8061007a5f395ff3fe608060405260043610610033575f3560e01c80631b9265b814610037578063a6f4e22714610041578063bea4dfb51461007d575b5f80fd5b61003f6100a7565b005b34801561004c575f80fd5b5061006760048036038101906100629190610276565b610137565b60405161007491906102b9565b60405180910390f35b348015610088575f80fd5b5061009161014c565b60405161009e91906102ea565b60405180910390f35b5f546100b2346101e9565b10156100f3576040517f08c379a00000000000000000000000000000000000000000000000000000000081526004016100ea90610383565b60405180910390fd5b3460025f3373ffffffffffffffffffffffffffffffffffffffff1673ffffffffffffffffffffffffffffffffffffffff1681526020019081526020015f2081905550565b6002602052805f5260405f205f915090505481565b5f8060015f9054906101000a900473ffffffffffffffffffffffffffffffffffffffff1673ffffffffffffffffffffffffffffffffffffffff1663feaf968c6040518163ffffffff1660e01b815260040160a060405180830381865afa1580156101b8573d5f803e3d5ffd5b505050506040513d601f19601f820116820180604052508101906101dc9190610434565b5050509150508091505090565b5f806101f361014c565b90506305f5e100818461020691906104d8565b6102109190610546565b915050919050565b5f80fd5b5f73ffffffffffffffffffffffffffffffffffffffff82169050919050565b5f6102458261021c565b9050919050565b6102558161023b565b811461025f575f80fd5b50565b5f813590506102708161024c565b92915050565b5f6020828403121561028b5761028a610218565b5b5f61029884828501610262565b91505092915050565b5f819050919050565b6102b3816102a1565b82525050565b5f6020820190506102cc5f8301846102aa565b92915050565b5f819050919050565b6102e4816102d2565b82525050565b5f6020820190506102fd5f8301846102db565b92915050565b5f82825260208201905092915050565b7f596f75206e65656420746f2073656e64206d696e696d756d206f6620312045545f8201527f4821000000000000000000000000000000000000000000000000000000000000602082015250565b5f61036d602283610303565b915061037882610313565b604082019050919050565b5f6020820190508181035f83015261039a81610361565b9050919050565b5f69ffffffffffffffffffff82169050919050565b6103bf816103a1565b81146103c9575f80fd5b50565b5f815190506103da816103b6565b92915050565b6103e9816102d2565b81146103f3575f80fd5b50565b5f81519050610404816103e0565b92915050565b610413816102a1565b811461041d575f80fd5b50565b5f8151905061042e8161040a565b92915050565b5f805f805f60a0868803121561044d5761044c610218565b5b5f61045a888289016103cc565b955050602061046b888289016103f6565b945050604061047c88828901610420565b935050606061048d88828901610420565b925050608061049e888289016103cc565b9150509295509295909350565b7f4e487b71000000000000000000000000000000000000000000000000000000005f52601160045260245ffd5b5f6104e2826102a1565b91506104ed836102a1565b92508282026104fb816102a1565b91508282048414831517610512576105116104ab565b5b5092915050565b7f4e487b71000000000000000000000000000000000000000000000000000000005f52601260045260245ffd5b5f610550826102a1565b915061055b836102a1565b92508261056b5761056a610519565b5b82820490509291505056fea2646970667358221220e5863828fdcf3bb8c860101c04725b8d5085286ea20323066a7c66e5872f390164736f6c634300081a0033",
					"opcodes": "PUSH1 0x80 PUSH1 0x40 MSTORE PUSH7 0x2386F26FC10000 PUSH0 SSTORE CALLVALUE DUP1 ISZERO PUSH1 0x18 JUMPI PUSH0 DUP1 REVERT JUMPDEST POP PUSH20 0x694AA1769357215DE4FAC081BF1F309ADC325306 PUSH1 0x1 PUSH0 PUSH2 0x100 EXP DUP2 SLOAD DUP2 PUSH20 0xFFFFFFFFFFFFFFFFFFFFFFFFFFFFFFFFFFFFFFFF MUL NOT AND SWAP1 DUP4 PUSH20 0xFFFFFFFFFFFFFFFFFFFFFFFFFFFFFFFFFFFFFFFF AND MUL OR SWAP1 SSTORE POP PUSH2 0x5AC DUP1 PUSH2 0x7A PUSH0 CODECOPY PUSH0 RETURN INVALID PUSH1 0x80 PUSH1 0x40 MSTORE PUSH1 0x4 CALLDATASIZE LT PUSH2 0x33 JUMPI PUSH0 CALLDATALOAD PUSH1 0xE0 SHR DUP1 PUSH4 0x1B9265B8 EQ PUSH2 0x37 JUMPI DUP1 PUSH4 0xA6F4E227 EQ PUSH2 0x41 JUMPI DUP1 PUSH4 0xBEA4DFB5 EQ PUSH2 0x7D JUMPI JUMPDEST PUSH0 DUP1 REVERT JUMPDEST PUSH2 0x3F PUSH2 0xA7 JUMP JUMPDEST STOP JUMPDEST CALLVALUE DUP1 ISZERO PUSH2 0x4C JUMPI PUSH0 DUP1 REVERT JUMPDEST POP PUSH2 0x67 PUSH1 0x4 DUP1 CALLDATASIZE SUB DUP2 ADD SWAP1 PUSH2 0x62 SWAP2 SWAP1 PUSH2 0x276 JUMP JUMPDEST PUSH2 0x137 JUMP JUMPDEST PUSH1 0x40 MLOAD PUSH2 0x74 SWAP2 SWAP1 PUSH2 0x2B9 JUMP JUMPDEST PUSH1 0x40 MLOAD DUP1 SWAP2 SUB SWAP1 RETURN JUMPDEST CALLVALUE DUP1 ISZERO PUSH2 0x88 JUMPI PUSH0 DUP1 REVERT JUMPDEST POP PUSH2 0x91 PUSH2 0x14C JUMP JUMPDEST PUSH1 0x40 MLOAD PUSH2 0x9E SWAP2 SWAP1 PUSH2 0x2EA JUMP JUMPDEST PUSH1 0x40 MLOAD DUP1 SWAP2 SUB SWAP1 RETURN JUMPDEST PUSH0 SLOAD PUSH2 0xB2 CALLVALUE PUSH2 0x1E9 JUMP JUMPDEST LT ISZERO PUSH2 0xF3 JUMPI PUSH1 0x40 MLOAD PUSH32 0x8C379A000000000000000000000000000000000000000000000000000000000 DUP2 MSTORE PUSH1 0x4 ADD PUSH2 0xEA SWAP1 PUSH2 0x383 JUMP JUMPDEST PUSH1 0x40 MLOAD DUP1 SWAP2 SUB SWAP1 REVERT JUMPDEST CALLVALUE PUSH1 0x2 PUSH0 CALLER PUSH20 0xFFFFFFFFFFFFFFFFFFFFFFFFFFFFFFFFFFFFFFFF AND PUSH20 0xFFFFFFFFFFFFFFFFFFFFFFFFFFFFFFFFFFFFFFFF AND DUP2 MSTORE PUSH1 0x20 ADD SWAP1 DUP2 MSTORE PUSH1 0x20 ADD PUSH0 KECCAK256 DUP2 SWAP1 SSTORE POP JUMP JUMPDEST PUSH1 0x2 PUSH1 0x20 MSTORE DUP1 PUSH0 MSTORE PUSH1 0x40 PUSH0 KECCAK256 PUSH0 SWAP2 POP SWAP1 POP SLOAD DUP2 JUMP JUMPDEST PUSH0 DUP1 PUSH1 0x1 PUSH0 SWAP1 SLOAD SWAP1 PUSH2 0x100 EXP SWAP1 DIV PUSH20 0xFFFFFFFFFFFFFFFFFFFFFFFFFFFFFFFFFFFFFFFF AND PUSH20 0xFFFFFFFFFFFFFFFFFFFFFFFFFFFFFFFFFFFFFFFF AND PUSH4 0xFEAF968C PUSH1 0x40 MLOAD DUP2 PUSH4 0xFFFFFFFF AND PUSH1 0xE0 SHL DUP2 MSTORE PUSH1 0x4 ADD PUSH1 0xA0 PUSH1 0x40 MLOAD DUP1 DUP4 SUB DUP2 DUP7 GAS STATICCALL ISZERO DUP1 ISZERO PUSH2 0x1B8 JUMPI RETURNDATASIZE PUSH0 DUP1 RETURNDATACOPY RETURNDATASIZE PUSH0 REVERT JUMPDEST POP POP POP POP PUSH1 0x40 MLOAD RETURNDATASIZE PUSH1 0x1F NOT PUSH1 0x1F DUP3 ADD AND DUP3 ADD DUP1 PUSH1 0x40 MSTORE POP DUP2 ADD SWAP1 PUSH2 0x1DC SWAP2 SWAP1 PUSH2 0x434 JUMP JUMPDEST POP POP POP SWAP2 POP POP DUP1 SWAP2 POP POP SWAP1 JUMP JUMPDEST PUSH0 DUP1 PUSH2 0x1F3 PUSH2 0x14C JUMP JUMPDEST SWAP1 POP PUSH4 0x5F5E100 DUP2 DUP5 PUSH2 0x206 SWAP2 SWAP1 PUSH2 0x4D8 JUMP JUMPDEST PUSH2 0x210 SWAP2 SWAP1 PUSH2 0x546 JUMP JUMPDEST SWAP2 POP POP SWAP2 SWAP1 POP JUMP JUMPDEST PUSH0 DUP1 REVERT JUMPDEST PUSH0 PUSH20 0xFFFFFFFFFFFFFFFFFFFFFFFFFFFFFFFFFFFFFFFF DUP3 AND SWAP1 POP SWAP2 SWAP1 POP JUMP JUMPDEST PUSH0 PUSH2 0x245 DUP3 PUSH2 0x21C JUMP JUMPDEST SWAP1 POP SWAP2 SWAP1 POP JUMP JUMPDEST PUSH2 0x255 DUP2 PUSH2 0x23B JUMP JUMPDEST DUP2 EQ PUSH2 0x25F JUMPI PUSH0 DUP1 REVERT JUMPDEST POP JUMP JUMPDEST PUSH0 DUP2 CALLDATALOAD SWAP1 POP PUSH2 0x270 DUP2 PUSH2 0x24C JUMP JUMPDEST SWAP3 SWAP2 POP POP JUMP JUMPDEST PUSH0 PUSH1 0x20 DUP3 DUP5 SUB SLT ISZERO PUSH2 0x28B JUMPI PUSH2 0x28A PUSH2 0x218 JUMP JUMPDEST JUMPDEST PUSH0 PUSH2 0x298 DUP5 DUP3 DUP6 ADD PUSH2 0x262 JUMP JUMPDEST SWAP2 POP POP SWAP3 SWAP2 POP POP JUMP JUMPDEST PUSH0 DUP2 SWAP1 POP SWAP2 SWAP1 POP JUMP JUMPDEST PUSH2 0x2B3 DUP2 PUSH2 0x2A1 JUMP JUMPDEST DUP3 MSTORE POP POP JUMP JUMPDEST PUSH0 PUSH1 0x20 DUP3 ADD SWAP1 POP PUSH2 0x2CC PUSH0 DUP4 ADD DUP5 PUSH2 0x2AA JUMP JUMPDEST SWAP3 SWAP2 POP POP JUMP JUMPDEST PUSH0 DUP2 SWAP1 POP SWAP2 SWAP1 POP JUMP JUMPDEST PUSH2 0x2E4 DUP2 PUSH2 0x2D2 JUMP JUMPDEST DUP3 MSTORE POP POP JUMP JUMPDEST PUSH0 PUSH1 0x20 DUP3 ADD SWAP1 POP PUSH2 0x2FD PUSH0 DUP4 ADD DUP5 PUSH2 0x2DB JUMP JUMPDEST SWAP3 SWAP2 POP POP JUMP JUMPDEST PUSH0 DUP3 DUP3 MSTORE PUSH1 0x20 DUP3 ADD SWAP1 POP SWAP3 SWAP2 POP POP JUMP JUMPDEST PUSH32 0x596F75206E65656420746F2073656E64206D696E696D756D206F662031204554 PUSH0 DUP3 ADD MSTORE PUSH32 0x4821000000000000000000000000000000000000000000000000000000000000 PUSH1 0x20 DUP3 ADD MSTORE POP JUMP JUMPDEST PUSH0 PUSH2 0x36D PUSH1 0x22 DUP4 PUSH2 0x303 JUMP JUMPDEST SWAP2 POP PUSH2 0x378 DUP3 PUSH2 0x313 JUMP JUMPDEST PUSH1 0x40 DUP3 ADD SWAP1 POP SWAP2 SWAP1 POP JUMP JUMPDEST PUSH0 PUSH1 0x20 DUP3 ADD SWAP1 POP DUP2 DUP2 SUB PUSH0 DUP4 ADD MSTORE PUSH2 0x39A DUP2 PUSH2 0x361 JUMP JUMPDEST SWAP1 POP SWAP2 SWAP1 POP JUMP JUMPDEST PUSH0 PUSH10 0xFFFFFFFFFFFFFFFFFFFF DUP3 AND SWAP1 POP SWAP2 SWAP1 POP JUMP JUMPDEST PUSH2 0x3BF DUP2 PUSH2 0x3A1 JUMP JUMPDEST DUP2 EQ PUSH2 0x3C9 JUMPI PUSH0 DUP1 REVERT JUMPDEST POP JUMP JUMPDEST PUSH0 DUP2 MLOAD SWAP1 POP PUSH2 0x3DA DUP2 PUSH2 0x3B6 JUMP JUMPDEST SWAP3 SWAP2 POP POP JUMP JUMPDEST PUSH2 0x3E9 DUP2 PUSH2 0x2D2 JUMP JUMPDEST DUP2 EQ PUSH2 0x3F3 JUMPI PUSH0 DUP1 REVERT JUMPDEST POP JUMP JUMPDEST PUSH0 DUP2 MLOAD SWAP1 POP PUSH2 0x404 DUP2 PUSH2 0x3E0 JUMP JUMPDEST SWAP3 SWAP2 POP POP JUMP JUMPDEST PUSH2 0x413 DUP2 PUSH2 0x2A1 JUMP JUMPDEST DUP2 EQ PUSH2 0x41D JUMPI PUSH0 DUP1 REVERT JUMPDEST POP JUMP JUMPDEST PUSH0 DUP2 MLOAD SWAP1 POP PUSH2 0x42E DUP2 PUSH2 0x40A JUMP JUMPDEST SWAP3 SWAP2 POP POP JUMP JUMPDEST PUSH0 DUP1 PUSH0 DUP1 PUSH0 PUSH1 0xA0 DUP7 DUP9 SUB SLT ISZERO PUSH2 0x44D JUMPI PUSH2 0x44C PUSH2 0x218 JUMP JUMPDEST JUMPDEST PUSH0 PUSH2 0x45A DUP9 DUP3 DUP10 ADD PUSH2 0x3CC JUMP JUMPDEST SWAP6 POP POP PUSH1 0x20 PUSH2 0x46B DUP9 DUP3 DUP10 ADD PUSH2 0x3F6 JUMP JUMPDEST SWAP5 POP POP PUSH1 0x40 PUSH2 0x47C DUP9 DUP3 DUP10 ADD PUSH2 0x420 JUMP JUMPDEST SWAP4 POP POP PUSH1 0x60 PUSH2 0x48D DUP9 DUP3 DUP10 ADD PUSH2 0x420 JUMP JUMPDEST SWAP3 POP POP PUSH1 0x80 PUSH2 0x49E DUP9 DUP3 DUP10 ADD PUSH2 0x3CC JUMP JUMPDEST SWAP2 POP POP SWAP3 SWAP6 POP SWAP3 SWAP6 SWAP1 SWAP4 POP JUMP JUMPDEST PUSH32 0x4E487B7100000000000000000000000000000000000000000000000000000000 PUSH0 MSTORE PUSH1 0x11 PUSH1 0x4 MSTORE PUSH1 0x24 PUSH0 REVERT JUMPDEST PUSH0 PUSH2 0x4E2 DUP3 PUSH2 0x2A1 JUMP JUMPDEST SWAP2 POP PUSH2 0x4ED DUP4 PUSH2 0x2A1 JUMP JUMPDEST SWAP3 POP DUP3 DUP3 MUL PUSH2 0x4FB DUP2 PUSH2 0x2A1 JUMP JUMPDEST SWAP2 POP DUP3 DUP3 DIV DUP5 EQ DUP4 ISZERO OR PUSH2 0x512 JUMPI PUSH2 0x511 PUSH2 0x4AB JUMP JUMPDEST JUMPDEST POP SWAP3 SWAP2 POP POP JUMP JUMPDEST PUSH32 0x4E487B7100000000000000000000000000000000000000000000000000000000 PUSH0 MSTORE PUSH1 0x12 PUSH1 0x4 MSTORE PUSH1 0x24 PUSH0 REVERT JUMPDEST PUSH0 PUSH2 0x550 DUP3 PUSH2 0x2A1 JUMP JUMPDEST SWAP2 POP PUSH2 0x55B DUP4 PUSH2 0x2A1 JUMP JUMPDEST SWAP3 POP DUP3 PUSH2 0x56B JUMPI PUSH2 0x56A PUSH2 0x519 JUMP JUMPDEST JUMPDEST DUP3 DUP3 DIV SWAP1 POP SWAP3 SWAP2 POP POP JUMP INVALID LOG2 PUSH5 0x6970667358 0x22 SLT KECCAK256 0xE5 DUP7 CODESIZE 0x28 REVERT 0xCF EXTCODESIZE 0xB8 0xC8 PUSH1 0x10 SHR DIV PUSH19 0x5B8D5085286EA20323066A7C66E5872F390164 PUSH20 0x6F6C634300081A00330000000000000000000000 "
				},
				"gasEstimates": {
					"creation": {
						"codeDepositCost": "290400",
						"executionCost": "46700",
						"totalCost": "337100"
					},
					"external": {
						"fundsAmount(address)": "2802",
						"getChainlinkDataFeedLatestAnswer()": "infinite",
						"pay()": "infinite"
					},
					"internal": {
						"EthToUsd(uint256)": "infinite"
					}
				},
				"methodIdentifiers": {
					"fundsAmount(address)": "a6f4e227",
					"getChainlinkDataFeedLatestAnswer()": "bea4dfb5",
					"pay()": "1b9265b8"
				}
			},
			"storageLayout": {
				"storage": [
					{
						"astId": 56,
						"contract": "fundgme/fund.sol:fund_get",
						"label": "MINIMUN_VALUE",
						"offset": 0,
						"slot": "0",
						"type": "t_uint256"
					},
					{
						"astId": 59,
						"contract": "fundgme/fund.sol:fund_get",
						"label": "priceFeed",
						"offset": 0,
						"slot": "1",
						"type": "t_contract(AggregatorV3Interface)45"
					},
					{
						"astId": 63,
						"contract": "fundgme/fund.sol:fund_get",
						"label": "fundsAmount",
						"offset": 0,
						"slot": "2",
						"type": "t_mapping(t_address,t_uint256)"
					}
				],
				"types": {
					"t_address": {
						"encoding": "inplace",
						"label": "address",
						"numberOfBytes": "20"
					},
					"t_contract(AggregatorV3Interface)45": {
						"encoding": "inplace",
						"label": "contract AggregatorV3Interface",
						"numberOfBytes": "20"
					},
					"t_mapping(t_address,t_uint256)": {
						"encoding": "mapping",
						"key": "t_address",
						"label": "mapping(address => uint256)",
						"numberOfBytes": "32",
						"value": "t_uint256"
					},
					"t_uint256": {
						"encoding": "inplace",
						"label": "uint256",
						"numberOfBytes": "32"
					}
				}
			},
			"userdoc": {
				"kind": "user",
				"methods": {},
				"version": 1
			}
		}
	}
}